{
  "contractName": "Crowdfunding",
  "abi": [
    {
      "anonymous": false,
      "inputs": [
        {
          "indexed": false,
          "internalType": "address",
          "name": "contractAddress",
          "type": "address"
        },
        {
          "indexed": false,
          "internalType": "address",
          "name": "projectFounder",
          "type": "address"
        },
        {
          "indexed": false,
          "internalType": "string",
          "name": "projectTitle",
          "type": "string"
        },
        {
          "indexed": false,
          "internalType": "string",
          "name": "projectDescription",
          "type": "string"
        },
        {
          "indexed": false,
          "internalType": "uint256",
          "name": "deadline",
          "type": "uint256"
        },
        {
          "indexed": false,
          "internalType": "uint256",
          "name": "goalAmount",
          "type": "uint256"
        }
      ],
      "name": "ProjectCreated",
      "type": "event"
    },
    {
      "inputs": [
        {
          "internalType": "string",
          "name": "title",
          "type": "string"
        },
        {
          "internalType": "string",
          "name": "description",
          "type": "string"
        },
        {
          "internalType": "uint256",
          "name": "durationInDays",
          "type": "uint256"
        },
        {
          "internalType": "uint256",
          "name": "amountToRaise",
          "type": "uint256"
        }
      ],
      "name": "startProject",
      "outputs": [],
      "stateMutability": "nonpayable",
      "type": "function"
    },
    {
      "inputs": [],
      "name": "returnAllProjects",
      "outputs": [
        {
          "internalType": "contract Project[]",
          "name": "",
          "type": "address[]"
        }
      ],
      "stateMutability": "view",
      "type": "function"
    }
  ],
  "bytecode": "0x608060405234801561001057600080fd5b50613909806100206000396000f3fe60806040523480156200001157600080fd5b50600436106200003a5760003560e01c806385b6e28e146200003f578063a24a2d161462000061575b600080fd5b6200004962000081565b604051620000589190620003c4565b60405180910390f35b6200007f60048036038101906200007991906200049b565b62000111565b005b606060008054806020026020016040519081016040528092919081815260200182805480156200010757602002820191906000526020600020905b8160009054906101000a900473ffffffffffffffffffffffffffffffffffffffff1673ffffffffffffffffffffffffffffffffffffffff1681526020019060010190808311620000bc575b5050505050905090565b60006200013f6200012f62015180856200023e90919063ffffffff16565b426200025690919063ffffffff16565b905060003388888888868860405162000158906200026e565b6200016a9796959493929190620005ed565b604051809103906000f08015801562000187573d6000803e3d6000fd5b5090506000819080600181540180825580915050600190039060005260206000200160009091909190916101000a81548173ffffffffffffffffffffffffffffffffffffffff021916908373ffffffffffffffffffffffffffffffffffffffff1602179055507f2a7c5dbfc2565e0ea9fbd6660b70c2a7285eafdb0c33fd255d466c64cf7bc13381338a8a8a8a888a6040516200022c98979695949392919062000681565b60405180910390a15050505050505050565b600081836200024e91906200072f565b905092915050565b6000818362000266919062000790565b905092915050565b6130e680620007ee83390190565b600081519050919050565b600082825260208201905092915050565b6000819050602082019050919050565b600073ffffffffffffffffffffffffffffffffffffffff82169050919050565b6000819050919050565b6000620002f3620002ed620002e784620002a8565b620002c8565b620002a8565b9050919050565b60006200030782620002d2565b9050919050565b60006200031b82620002fa565b9050919050565b6200032d816200030e565b82525050565b600062000341838362000322565b60208301905092915050565b6000602082019050919050565b600062000367826200027c565b62000373818562000287565b9350620003808362000298565b8060005b83811015620003b75781516200039b888262000333565b9750620003a8836200034d565b92505060018101905062000384565b5085935050505092915050565b60006020820190508181036000830152620003e081846200035a565b905092915050565b600080fd5b600080fd5b600080fd5b600080fd5b600080fd5b60008083601f8401126200041a5762000419620003f2565b5b8235905067ffffffffffffffff8111156200043a5762000439620003f7565b5b602083019150836001820283011115620004595762000458620003fc565b5b9250929050565b6000819050919050565b620004758162000460565b81146200048157600080fd5b50565b60008135905062000495816200046a565b92915050565b60008060008060008060808789031215620004bb57620004ba620003e8565b5b600087013567ffffffffffffffff811115620004dc57620004db620003ed565b5b620004ea89828a0162000401565b9650965050602087013567ffffffffffffffff81111562000510576200050f620003ed565b5b6200051e89828a0162000401565b945094505060406200053389828a0162000484565b92505060606200054689828a0162000484565b9150509295509295509295565b60006200056082620002a8565b9050919050565b620005728162000553565b82525050565b600082825260208201905092915050565b82818337600083830152505050565b6000601f19601f8301169050919050565b6000620005b7838562000578565b9350620005c683858462000589565b620005d18362000598565b840190509392505050565b620005e78162000460565b82525050565b600060a08201905062000604600083018a62000567565b81810360208301526200061981888a620005a9565b9050818103604083015262000630818688620005a9565b9050620006416060830185620005dc565b620006506080830184620005dc565b98975050505050505050565b60006200066982620002a8565b9050919050565b6200067b816200065c565b82525050565b600060c08201905062000698600083018b62000670565b620006a7602083018a62000670565b8181036040830152620006bc81888a620005a9565b90508181036060830152620006d3818688620005a9565b9050620006e46080830185620005dc565b620006f360a0830184620005dc565b9998505050505050505050565b7f4e487b7100000000000000000000000000000000000000000000000000000000600052601160045260246000fd5b60006200073c8262000460565b9150620007498362000460565b9250817fffffffffffffffffffffffffffffffffffffffffffffffffffffffffffffffff048311821515161562000785576200078462000700565b5b828202905092915050565b60006200079d8262000460565b9150620007aa8362000460565b9250827fffffffffffffffffffffffffffffffffffffffffffffffffffffffffffffffff03821115620007e257620007e162000700565b5b82820190509291505056fe60806040526000600860006101000a81548160ff021916908360028111156200002d576200002c62000510565b5b02179055503480156200003f57600080fd5b50604051620030e6380380620030e683398181016040528101906200006591906200077c565b84600160006101000a81548173ffffffffffffffffffffffffffffffffffffffff021916908373ffffffffffffffffffffffffffffffffffffffff1602179055508360069080519060200190620000be92919062000460565b508260079080519060200190620000d792919062000460565b5080600281905550816005819055506000600481905550620001207fdf8b4c520ffe197c5343c6f5aec59570151ef9a492f2c624fd45ddde6135ec42806200026560201b60201c565b620001727f948fe2b0ce12a6942353b73cf8db43299111ff826b4a5c052c6f460715b674957fdf8b4c520ffe197c5343c6f5aec59570151ef9a492f2c624fd45ddde6135ec426200026560201b60201c565b620001c47fa26228957b4ff1ee8d2f4555d58f130924b7939446a6af38afd42a510a51fbb47f948fe2b0ce12a6942353b73cf8db43299111ff826b4a5c052c6f460715b674956200026560201b60201c565b620001f67fdf8b4c520ffe197c5343c6f5aec59570151ef9a492f2c624fd45ddde6135ec4286620002c860201b60201c565b620002287f948fe2b0ce12a6942353b73cf8db43299111ff826b4a5c052c6f460715b6749586620002c860201b60201c565b6200025a7fa26228957b4ff1ee8d2f4555d58f130924b7939446a6af38afd42a510a51fbb486620002c860201b60201c565b5050505050620008a6565b60006200027883620002de60201b60201c565b905081600080858152602001908152602001600020600101819055508181847fbd79b86ffe0ab8e8776151514217cd7cacd52c909f66475c3af44e129f0b00ff60405160405180910390a4505050565b620002da8282620002fd60201b60201c565b5050565b6000806000838152602001908152602001600020600101549050919050565b6200030f8282620003ee60201b60201c565b620003ea57600160008084815260200190815260200160002060000160008373ffffffffffffffffffffffffffffffffffffffff1673ffffffffffffffffffffffffffffffffffffffff16815260200190815260200160002060006101000a81548160ff0219169083151502179055506200038f6200045860201b60201c565b73ffffffffffffffffffffffffffffffffffffffff168173ffffffffffffffffffffffffffffffffffffffff16837f2f8788117e7eff1d82e926ec794901d17c78024a50270940304540a733656f0d60405160405180910390a45b5050565b600080600084815260200190815260200160002060000160008373ffffffffffffffffffffffffffffffffffffffff1673ffffffffffffffffffffffffffffffffffffffff16815260200190815260200160002060009054906101000a900460ff16905092915050565b600033905090565b8280546200046e9062000871565b90600052602060002090601f016020900481019282620004925760008555620004de565b82601f10620004ad57805160ff1916838001178555620004de565b82800160010185558215620004de579182015b82811115620004dd578251825591602001919060010190620004c0565b5b509050620004ed9190620004f1565b5090565b5b808211156200050c576000816000905550600101620004f2565b5090565b7f4e487b7100000000000000000000000000000000000000000000000000000000600052602160045260246000fd5b6000604051905090565b600080fd5b600080fd5b600073ffffffffffffffffffffffffffffffffffffffff82169050919050565b6000620005808262000553565b9050919050565b620005928162000573565b81146200059e57600080fd5b50565b600081519050620005b28162000587565b92915050565b600080fd5b600080fd5b6000601f19601f8301169050919050565b7f4e487b7100000000000000000000000000000000000000000000000000000000600052604160045260246000fd5b6200060d82620005c2565b810181811067ffffffffffffffff821117156200062f576200062e620005d3565b5b80604052505050565b6000620006446200053f565b905062000652828262000602565b919050565b600067ffffffffffffffff821115620006755762000674620005d3565b5b6200068082620005c2565b9050602081019050919050565b60005b83811015620006ad57808201518184015260208101905062000690565b83811115620006bd576000848401525b50505050565b6000620006da620006d48462000657565b62000638565b905082815260208101848484011115620006f957620006f8620005bd565b5b620007068482856200068d565b509392505050565b600082601f830112620007265762000725620005b8565b5b815162000738848260208601620006c3565b91505092915050565b6000819050919050565b620007568162000741565b81146200076257600080fd5b50565b60008151905062000776816200074b565b92915050565b600080600080600060a086880312156200079b576200079a62000549565b5b6000620007ab88828901620005a1565b955050602086015167ffffffffffffffff811115620007cf57620007ce6200054e565b5b620007dd888289016200070e565b945050604086015167ffffffffffffffff8111156200080157620008006200054e565b5b6200080f888289016200070e565b9350506060620008228882890162000765565b9250506080620008358882890162000765565b9150509295509295909350565b7f4e487b7100000000000000000000000000000000000000000000000000000000600052602260045260246000fd5b600060028204905060018216806200088a57607f821691505b602082108103620008a0576200089f62000842565b5b50919050565b61283080620008b66000396000f3fe6080604052600436106101b75760003560e01c80637284e416116100ec578063b2d5ae441161008a578063d2e1da1e11610064578063d2e1da1e146105ea578063d547741f14610615578063d7bb99ba1461063e578063fbbf93a014610648576101b7565b8063b2d5ae4414610569578063c19d93fb14610594578063ce845d1d146105bf576101b7565b806386f32586116100c657806386f32586146104c157806391d14854146104d85780639c5b2a1914610515578063a217fddf1461053e576101b7565b80637284e416146104445780637742ab9f1461046f57806382e45ba014610498576101b7565b80633f185b6c116101595780634a79d50c116101335780634a79d50c1461039a5780634c4cea5a146103c55780634d853ee5146103f057806358ac612c1461041b576101b7565b80633f185b6c1461030957806342e94c901461033257806343487d8d1461036f576101b7565b80632a0acc6a116101955780632a0acc6a146102615780632f2ff15d1461028c57806336568abe146102b557806337f944cc146102de576101b7565b806301ffc9a7146101bc5780630785001c146101f9578063248a9ca314610224575b600080fd5b3480156101c857600080fd5b506101e360048036038101906101de9190611c45565b610679565b6040516101f09190611c8d565b60405180910390f35b34801561020557600080fd5b5061020e6106f3565b60405161021b9190611cc1565b60405180910390f35b34801561023057600080fd5b5061024b60048036038101906102469190611d12565b6106f9565b6040516102589190611d4e565b60405180910390f35b34801561026d57600080fd5b50610276610718565b6040516102839190611d4e565b60405180910390f35b34801561029857600080fd5b506102b360048036038101906102ae9190611dc7565b61073c565b005b3480156102c157600080fd5b506102dc60048036038101906102d79190611dc7565b61075d565b005b3480156102ea57600080fd5b506102f36107e0565b6040516103009190611cc1565b60405180910390f35b34801561031557600080fd5b50610330600480360381019061032b9190611e07565b6107e6565b005b34801561033e57600080fd5b5061035960048036038101906103549190611e07565b6108a7565b6040516103669190611cc1565b60405180910390f35b34801561037b57600080fd5b506103846108bf565b6040516103919190611d4e565b60405180910390f35b3480156103a657600080fd5b506103af6108e3565b6040516103bc9190611ecd565b60405180910390f35b3480156103d157600080fd5b506103da610971565b6040516103e79190611cc1565b60405180910390f35b3480156103fc57600080fd5b50610405610977565b6040516104129190611f10565b60405180910390f35b34801561042757600080fd5b50610442600480360381019061043d9190611e07565b61099d565b005b34801561045057600080fd5b50610459610b5e565b6040516104669190611ecd565b60405180910390f35b34801561047b57600080fd5b5061049660048036038101906104919190611e07565b610bec565b005b3480156104a457600080fd5b506104bf60048036038101906104ba9190611e07565b610dae565b005b3480156104cd57600080fd5b506104d6610e70565b005b3480156104e457600080fd5b506104ff60048036038101906104fa9190611dc7565b610ef4565b60405161050c9190611c8d565b60405180910390f35b34801561052157600080fd5b5061053c60048036038101906105379190611e07565b610f5e565b005b34801561054a57600080fd5b50610553611079565b6040516105609190611d4e565b60405180910390f35b34801561057557600080fd5b5061057e611080565b60405161058b9190611c8d565b60405180910390f35b3480156105a057600080fd5b506105a9611244565b6040516105b69190611fa2565b60405180910390f35b3480156105cb57600080fd5b506105d4611257565b6040516105e19190611cc1565b60405180910390f35b3480156105f657600080fd5b506105ff61125d565b60405161060c9190611d4e565b60405180910390f35b34801561062157600080fd5b5061063c60048036038101906106379190611dc7565b611281565b005b6106466112a2565b005b34801561065457600080fd5b5061065d6113db565b6040516106709796959493929190611fbd565b60405180910390f35b60007f7965db0b000000000000000000000000000000000000000000000000000000007bffffffffffffffffffffffffffffffffffffffffffffffffffffffff1916827bffffffffffffffffffffffffffffffffffffffffffffffffffffffff191614806106ec57506106eb8261154f565b5b9050919050565b60025481565b6000806000838152602001908152602001600020600101549050919050565b7fdf8b4c520ffe197c5343c6f5aec59570151ef9a492f2c624fd45ddde6135ec4281565b610745826106f9565b61074e816115b9565b61075883836115cd565b505050565b6107656116ad565b73ffffffffffffffffffffffffffffffffffffffff168173ffffffffffffffffffffffffffffffffffffffff16146107d2576040517f08c379a00000000000000000000000000000000000000000000000000000000081526004016107c9906120ac565b60405180910390fd5b6107dc82826116b5565b5050565b60055481565b7f948fe2b0ce12a6942353b73cf8db43299111ff826b4a5c052c6f460715b67495610810816115b9565b61083a7fa26228957b4ff1ee8d2f4555d58f130924b7939446a6af38afd42a510a51fbb483610ef4565b610879576040517f08c379a000000000000000000000000000000000000000000000000000000000815260040161087090612118565b60405180910390fd5b6108a37fa26228957b4ff1ee8d2f4555d58f130924b7939446a6af38afd42a510a51fbb483611281565b5050565b60096020528060005260406000206000915090505481565b7f948fe2b0ce12a6942353b73cf8db43299111ff826b4a5c052c6f460715b6749581565b600680546108f090612167565b80601f016020809104026020016040519081016040528092919081815260200182805461091c90612167565b80156109695780601f1061093e57610100808354040283529160200191610969565b820191906000526020600020905b81548152906001019060200180831161094c57829003601f168201915b505050505081565b60035481565b600160009054906101000a900473ffffffffffffffffffffffffffffffffffffffff1681565b6109c77fdf8b4c520ffe197c5343c6f5aec59570151ef9a492f2c624fd45ddde6135ec4233610ef4565b610a06576040517f08c379a00000000000000000000000000000000000000000000000000000000081526004016109fd906121e4565b60405180910390fd5b610a307f948fe2b0ce12a6942353b73cf8db43299111ff826b4a5c052c6f460715b6749533610ef4565b610a6f576040517f08c379a0000000000000000000000000000000000000000000000000000000008152600401610a6690612276565b60405180910390fd5b610a997f948fe2b0ce12a6942353b73cf8db43299111ff826b4a5c052c6f460715b6749582610ef4565b610ad8576040517f08c379a0000000000000000000000000000000000000000000000000000000008152600401610acf90612308565b60405180910390fd5b610b027f948fe2b0ce12a6942353b73cf8db43299111ff826b4a5c052c6f460715b6749582611281565b610b2c7fa26228957b4ff1ee8d2f4555d58f130924b7939446a6af38afd42a510a51fbb482610ef4565b610b5b57610b5a7fa26228957b4ff1ee8d2f4555d58f130924b7939446a6af38afd42a510a51fbb48261073c565b5b50565b60078054610b6b90612167565b80601f0160208091040260200160405190810160405280929190818152602001828054610b9790612167565b8015610be45780601f10610bb957610100808354040283529160200191610be4565b820191906000526020600020905b815481529060010190602001808311610bc757829003601f168201915b505050505081565b610c167fdf8b4c520ffe197c5343c6f5aec59570151ef9a492f2c624fd45ddde6135ec4233610ef4565b610c55576040517f08c379a0000000000000000000000000000000000000000000000000000000008152600401610c4c906121e4565b60405180910390fd5b610c7f7f948fe2b0ce12a6942353b73cf8db43299111ff826b4a5c052c6f460715b6749533610ef4565b610cbe576040517f08c379a0000000000000000000000000000000000000000000000000000000008152600401610cb590612276565b60405180910390fd5b610ce87f948fe2b0ce12a6942353b73cf8db43299111ff826b4a5c052c6f460715b6749582610ef4565b610d27576040517f08c379a0000000000000000000000000000000000000000000000000000000008152600401610d1e90612308565b60405180910390fd5b610d517f948fe2b0ce12a6942353b73cf8db43299111ff826b4a5c052c6f460715b6749582611281565b610d7b7fa26228957b4ff1ee8d2f4555d58f130924b7939446a6af38afd42a510a51fbb482610ef4565b15610dab57610daa7fa26228957b4ff1ee8d2f4555d58f130924b7939446a6af38afd42a510a51fbb482611281565b5b50565b7f948fe2b0ce12a6942353b73cf8db43299111ff826b4a5c052c6f460715b67495610dd8816115b9565b610e027fa26228957b4ff1ee8d2f4555d58f130924b7939446a6af38afd42a510a51fbb483610ef4565b15610e42576040517f08c379a0000000000000000000000000000000000000000000000000000000008152600401610e3990612374565b60405180910390fd5b610e6c7fa26228957b4ff1ee8d2f4555d58f130924b7939446a6af38afd42a510a51fbb48361073c565b5050565b60025460045410610eb4576002600860006101000a81548160ff02191690836002811115610ea157610ea0611f2b565b5b0217905550610eae611796565b50610eeb565b600554421115610eea576001600860006101000a81548160ff02191690836002811115610ee457610ee3611f2b565b5b02179055505b5b42600381905550565b600080600084815260200190815260200160002060000160008373ffffffffffffffffffffffffffffffffffffffff1673ffffffffffffffffffffffffffffffffffffffff16815260200190815260200160002060009054906101000a900460ff16905092915050565b7fdf8b4c520ffe197c5343c6f5aec59570151ef9a492f2c624fd45ddde6135ec42610f88816115b9565b610fb27f948fe2b0ce12a6942353b73cf8db43299111ff826b4a5c052c6f460715b6749583610ef4565b15610ff2576040517f08c379a0000000000000000000000000000000000000000000000000000000008152600401610fe990612406565b60405180910390fd5b61101c7f948fe2b0ce12a6942353b73cf8db43299111ff826b4a5c052c6f460715b674958361073c565b6110467fa26228957b4ff1ee8d2f4555d58f130924b7939446a6af38afd42a510a51fbb483610ef4565b611075576110747fa26228957b4ff1ee8d2f4555d58f130924b7939446a6af38afd42a510a51fbb48361073c565b5b5050565b6000801b81565b6000600180600281111561109757611096611f2b565b5b600860009054906101000a900460ff1660028111156110b9576110b8611f2b565b5b146110c357600080fd5b6000600960003373ffffffffffffffffffffffffffffffffffffffff1673ffffffffffffffffffffffffffffffffffffffff168152602001908152602001600020541161110f57600080fd5b6000600960003373ffffffffffffffffffffffffffffffffffffffff1673ffffffffffffffffffffffffffffffffffffffff1681526020019081526020016000205490506000600960003373ffffffffffffffffffffffffffffffffffffffff1673ffffffffffffffffffffffffffffffffffffffff168152602001908152602001600020819055503373ffffffffffffffffffffffffffffffffffffffff166108fc829081150290604051600060405180830381858888f1935050505061121f5780600960003373ffffffffffffffffffffffffffffffffffffffff1673ffffffffffffffffffffffffffffffffffffffff168152602001908152602001600020819055506000925050611240565b611234816004546118e390919063ffffffff16565b60048190555060019250505b5090565b600860009054906101000a900460ff1681565b60045481565b7fa26228957b4ff1ee8d2f4555d58f130924b7939446a6af38afd42a510a51fbb481565b61128a826106f9565b611293816115b9565b61129d83836116b5565b505050565b60008060028111156112b7576112b6611f2b565b5b600860009054906101000a900460ff1660028111156112d9576112d8611f2b565b5b146112e357600080fd5b61133534600960003373ffffffffffffffffffffffffffffffffffffffff1673ffffffffffffffffffffffffffffffffffffffff168152602001908152602001600020546118f990919063ffffffff16565b600960003373ffffffffffffffffffffffffffffffffffffffff1673ffffffffffffffffffffffffffffffffffffffff1681526020019081526020016000208190555061138d346004546118f990919063ffffffff16565b6004819055507f5cdc4ab8d637538ead6cc1904d4160343656c8c82bd266635cfd31ac008fffe033346004546040516113c893929190612435565b60405180910390a16113d8610e70565b50565b6000606080600080600080600160009054906101000a900473ffffffffffffffffffffffffffffffffffffffff1696506006805461141890612167565b80601f016020809104026020016040519081016040528092919081815260200182805461144490612167565b80156114915780601f1061146657610100808354040283529160200191611491565b820191906000526020600020905b81548152906001019060200180831161147457829003601f168201915b50505050509550600780546114a590612167565b80601f01602080910402602001604051908101604052809291908181526020018280546114d190612167565b801561151e5780601f106114f35761010080835404028352916020019161151e565b820191906000526020600020905b81548152906001019060200180831161150157829003601f168201915b505050505094506005549350600860009054906101000a900460ff1692506004549150600254905090919293949596565b60007f01ffc9a7000000000000000000000000000000000000000000000000000000007bffffffffffffffffffffffffffffffffffffffffffffffffffffffff1916827bffffffffffffffffffffffffffffffffffffffffffffffffffffffff1916149050919050565b6115ca816115c56116ad565b61190f565b50565b6115d78282610ef4565b6116a957600160008084815260200190815260200160002060000160008373ffffffffffffffffffffffffffffffffffffffff1673ffffffffffffffffffffffffffffffffffffffff16815260200190815260200160002060006101000a81548160ff02191690831515021790555061164e6116ad565b73ffffffffffffffffffffffffffffffffffffffff168173ffffffffffffffffffffffffffffffffffffffff16837f2f8788117e7eff1d82e926ec794901d17c78024a50270940304540a733656f0d60405160405180910390a45b5050565b600033905090565b6116bf8282610ef4565b1561179257600080600084815260200190815260200160002060000160008373ffffffffffffffffffffffffffffffffffffffff1673ffffffffffffffffffffffffffffffffffffffff16815260200190815260200160002060006101000a81548160ff0219169083151502179055506117376116ad565b73ffffffffffffffffffffffffffffffffffffffff168173ffffffffffffffffffffffffffffffffffffffff16837ff6391f5c32d9c69d2a47ea670b442974b53935d1edc7fd64eb21e047a839171b60405160405180910390a45b5050565b600060028060028111156117ad576117ac611f2b565b5b600860009054906101000a900460ff1660028111156117cf576117ce611f2b565b5b146117d957600080fd5b600060045490506000600481905550600160009054906101000a900473ffffffffffffffffffffffffffffffffffffffff1673ffffffffffffffffffffffffffffffffffffffff166108fc829081150290604051600060405180830381858888f19350505050156118a7577f704550da41cf2dbdec1b58d0de0aa0fe3d23d83073f4c7552575b840d278206a600160009054906101000a900473ffffffffffffffffffffffffffffffffffffffff1660405161189591906124cb565b60405180910390a160019250506118df565b806004819055506002600860006101000a81548160ff021916908360028111156118d4576118d3611f2b565b5b021790555060009250505b5090565b600081836118f19190612515565b905092915050565b600081836119079190612549565b905092915050565b6119198282610ef4565b6119a85761193e8173ffffffffffffffffffffffffffffffffffffffff1660146119ac565b61194c8360001c60206119ac565b60405160200161195d929190612673565b6040516020818303038152906040526040517f08c379a000000000000000000000000000000000000000000000000000000000815260040161199f9190611ecd565b60405180910390fd5b5050565b6060600060028360026119bf91906126ad565b6119c99190612549565b67ffffffffffffffff8111156119e2576119e1612707565b5b6040519080825280601f01601f191660200182016040528015611a145781602001600182028036833780820191505090505b5090507f300000000000000000000000000000000000000000000000000000000000000081600081518110611a4c57611a4b612736565b5b60200101907effffffffffffffffffffffffffffffffffffffffffffffffffffffffffffff1916908160001a9053507f780000000000000000000000000000000000000000000000000000000000000081600181518110611ab057611aaf612736565b5b60200101907effffffffffffffffffffffffffffffffffffffffffffffffffffffffffffff1916908160001a90535060006001846002611af091906126ad565b611afa9190612549565b90505b6001811115611b9a577f3031323334353637383961626364656600000000000000000000000000000000600f861660108110611b3c57611b3b612736565b5b1a60f81b828281518110611b5357611b52612736565b5b60200101907effffffffffffffffffffffffffffffffffffffffffffffffffffffffffffff1916908160001a905350600485901c945080611b9390612765565b9050611afd565b5060008414611bde576040517f08c379a0000000000000000000000000000000000000000000000000000000008152600401611bd5906127da565b60405180910390fd5b8091505092915050565b600080fd5b60007fffffffff0000000000000000000000000000000000000000000000000000000082169050919050565b611c2281611bed565b8114611c2d57600080fd5b50565b600081359050611c3f81611c19565b92915050565b600060208284031215611c5b57611c5a611be8565b5b6000611c6984828501611c30565b91505092915050565b60008115159050919050565b611c8781611c72565b82525050565b6000602082019050611ca26000830184611c7e565b92915050565b6000819050919050565b611cbb81611ca8565b82525050565b6000602082019050611cd66000830184611cb2565b92915050565b6000819050919050565b611cef81611cdc565b8114611cfa57600080fd5b50565b600081359050611d0c81611ce6565b92915050565b600060208284031215611d2857611d27611be8565b5b6000611d3684828501611cfd565b91505092915050565b611d4881611cdc565b82525050565b6000602082019050611d636000830184611d3f565b92915050565b600073ffffffffffffffffffffffffffffffffffffffff82169050919050565b6000611d9482611d69565b9050919050565b611da481611d89565b8114611daf57600080fd5b50565b600081359050611dc181611d9b565b92915050565b60008060408385031215611dde57611ddd611be8565b5b6000611dec85828601611cfd565b9250506020611dfd85828601611db2565b9150509250929050565b600060208284031215611e1d57611e1c611be8565b5b6000611e2b84828501611db2565b91505092915050565b600081519050919050565b600082825260208201905092915050565b60005b83811015611e6e578082015181840152602081019050611e53565b83811115611e7d576000848401525b50505050565b6000601f19601f8301169050919050565b6000611e9f82611e34565b611ea98185611e3f565b9350611eb9818560208601611e50565b611ec281611e83565b840191505092915050565b60006020820190508181036000830152611ee78184611e94565b905092915050565b6000611efa82611d69565b9050919050565b611f0a81611eef565b82525050565b6000602082019050611f256000830184611f01565b92915050565b7f4e487b7100000000000000000000000000000000000000000000000000000000600052602160045260246000fd5b60038110611f6b57611f6a611f2b565b5b50565b6000819050611f7c82611f5a565b919050565b6000611f8c82611f6e565b9050919050565b611f9c81611f81565b82525050565b6000602082019050611fb76000830184611f93565b92915050565b600060e082019050611fd2600083018a611f01565b8181036020830152611fe48189611e94565b90508181036040830152611ff88188611e94565b90506120076060830187611cb2565b6120146080830186611f93565b61202160a0830185611cb2565b61202e60c0830184611cb2565b98975050505050505050565b7f416363657373436f6e74726f6c3a2063616e206f6e6c792072656e6f756e636560008201527f20726f6c657320666f722073656c660000000000000000000000000000000000602082015250565b6000612096602f83611e3f565b91506120a18261203a565b604082019050919050565b600060208201905081810360008301526120c581612089565b9050919050565b7f55736572206973206e6f7420612070726f647563657221000000000000000000600082015250565b6000612102601783611e3f565b915061210d826120cc565b602082019050919050565b60006020820190508181036000830152612131816120f5565b9050919050565b7f4e487b7100000000000000000000000000000000000000000000000000000000600052602260045260246000fd5b6000600282049050600182168061217f57607f821691505b60208210810361219257612191612138565b5b50919050565b7f43616c6c6572206973206e6f7420616e2061646d696e00000000000000000000600082015250565b60006121ce601683611e3f565b91506121d982612198565b602082019050919050565b600060208201905081810360008301526121fd816121c1565b9050919050565b7f43616c6c6572206973206e6f7420616e206578656375746976652070726f647560008201527f6365720000000000000000000000000000000000000000000000000000000000602082015250565b6000612260602383611e3f565b915061226b82612204565b604082019050919050565b6000602082019050818103600083015261228f81612253565b9050919050565b7f55736572206973206e6f7420616e206578656375746976652070726f6475636560008201527f7221000000000000000000000000000000000000000000000000000000000000602082015250565b60006122f2602283611e3f565b91506122fd82612296565b604082019050919050565b60006020820190508181036000830152612321816122e5565b9050919050565b7f5573657220697320612070726f647563657220616c7265616479210000000000600082015250565b600061235e601b83611e3f565b915061236982612328565b602082019050919050565b6000602082019050818103600083015261238d81612351565b9050919050565b7f5573657220697320616e206578656375746976652070726f647563657220616c60008201527f7265616479210000000000000000000000000000000000000000000000000000602082015250565b60006123f0602683611e3f565b91506123fb82612394565b604082019050919050565b6000602082019050818103600083015261241f816123e3565b9050919050565b61242f81611d89565b82525050565b600060608201905061244a6000830186612426565b6124576020830185611cb2565b6124646040830184611cb2565b949350505050565b6000819050919050565b600061249161248c61248784611d69565b61246c565b611d69565b9050919050565b60006124a382612476565b9050919050565b60006124b582612498565b9050919050565b6124c5816124aa565b82525050565b60006020820190506124e060008301846124bc565b92915050565b7f4e487b7100000000000000000000000000000000000000000000000000000000600052601160045260246000fd5b600061252082611ca8565b915061252b83611ca8565b92508282101561253e5761253d6124e6565b5b828203905092915050565b600061255482611ca8565b915061255f83611ca8565b9250827fffffffffffffffffffffffffffffffffffffffffffffffffffffffffffffffff03821115612594576125936124e6565b5b828201905092915050565b600081905092915050565b7f416363657373436f6e74726f6c3a206163636f756e7420000000000000000000600082015250565b60006125e060178361259f565b91506125eb826125aa565b601782019050919050565b600061260182611e34565b61260b818561259f565b935061261b818560208601611e50565b80840191505092915050565b7f206973206d697373696e6720726f6c6520000000000000000000000000000000600082015250565b600061265d60118361259f565b915061266882612627565b601182019050919050565b600061267e826125d3565b915061268a82856125f6565b915061269582612650565b91506126a182846125f6565b91508190509392505050565b60006126b882611ca8565b91506126c383611ca8565b9250817fffffffffffffffffffffffffffffffffffffffffffffffffffffffffffffffff04831182151516156126fc576126fb6124e6565b5b828202905092915050565b7f4e487b7100000000000000000000000000000000000000000000000000000000600052604160045260246000fd5b7f4e487b7100000000000000000000000000000000000000000000000000000000600052603260045260246000fd5b600061277082611ca8565b915060008203612783576127826124e6565b5b600182039050919050565b7f537472696e67733a20686578206c656e67746820696e73756666696369656e74600082015250565b60006127c4602083611e3f565b91506127cf8261278e565b602082019050919050565b600060208201905081810360008301526127f3816127b7565b905091905056fea2646970667358221220267a9689c4abb05231529f3dfc92e1dba02501ae3bab3ed5966beb49b9a0529464736f6c634300080e0033a26469706673582212205fbe6e5ed2f3528114b2c2a2e83446c034637911b05c7e58d42279d16c4204a264736f6c634300080e0033",
  "immutableReferences": {},
  "source": "// SPDX-License-Identifier: UNLICENSED\r\npragma solidity >=0.6.0 <0.9.0;\r\nimport '@openzeppelin/contracts/utils/math/SafeMath.sol';\r\nimport './Project.sol';\r\n\r\ncontract Crowdfunding {\r\n    using SafeMath for uint256;\r\n\r\n    // List of existing projects\r\n    Project[] private projects;\r\n\r\n    // Event that will be emitted whenever a new project is started\r\n    event ProjectCreated(\r\n        address contractAddress,\r\n        address projectFounder,\r\n        string projectTitle,\r\n        string projectDescription,\r\n        uint256 deadline,\r\n        uint256 goalAmount\r\n    );\r\n\r\n    function startProject(\r\n        string calldata title,\r\n        string calldata description,\r\n        uint durationInDays,\r\n        uint amountToRaise\r\n    ) external {\r\n        uint raiseUntil = block.timestamp.add(durationInDays.mul(1 days));\r\n        Project newProject = new Project(\r\n          payable(msg.sender), title, description, raiseUntil, amountToRaise\r\n        );\r\n        projects.push(newProject);\r\n        emit ProjectCreated(\r\n            address(newProject),\r\n            msg.sender,\r\n            title,\r\n            description,\r\n            raiseUntil,\r\n            amountToRaise\r\n        );\r\n    }                                                                                                                                   \r\n    function returnAllProjects() external view returns(Project[] memory){\r\n        return projects;\r\n    }\r\n}\r\n",
  "sourcePath": "C:\\Workspace\\DStream\\backend\\contracts\\crowdfunding\\Crowdfunding.sol",
  "compiler": {
    "name": "solc",
    "version": "0.8.14+commit.80d49f37.Emscripten.clang"
  },
  "schemaVersion": "3.4.7",
  "updatedAt": "2022-06-21T15:02:31.210Z",
  "devdoc": {
    "kind": "dev",
    "methods": {},
    "version": 1
  },
  "userdoc": {
    "kind": "user",
    "methods": {},
    "version": 1
  }
}