{
  "contractName": "DStreamToken",
  "abi": [
    {
      "inputs": [],
      "stateMutability": "nonpayable",
      "type": "constructor"
    },
    {
      "anonymous": false,
      "inputs": [
        {
          "indexed": true,
          "internalType": "address",
          "name": "owner",
          "type": "address"
        },
        {
          "indexed": true,
          "internalType": "address",
          "name": "spender",
          "type": "address"
        },
        {
          "indexed": false,
          "internalType": "uint256",
          "name": "value",
          "type": "uint256"
        }
      ],
      "name": "Approval",
      "type": "event"
    },
    {
      "anonymous": false,
      "inputs": [
        {
          "indexed": false,
          "internalType": "address",
          "name": "user",
          "type": "address"
        },
        {
          "indexed": false,
          "internalType": "uint256",
          "name": "videoId",
          "type": "uint256"
        },
        {
          "indexed": false,
          "internalType": "uint256",
          "name": "count",
          "type": "uint256"
        },
        {
          "indexed": false,
          "internalType": "uint256",
          "name": "date",
          "type": "uint256"
        },
        {
          "indexed": false,
          "internalType": "uint256",
          "name": "amount",
          "type": "uint256"
        }
      ],
      "name": "StreamRewardLogAdded",
      "type": "event"
    },
    {
      "anonymous": false,
      "inputs": [
        {
          "indexed": true,
          "internalType": "address",
          "name": "from",
          "type": "address"
        },
        {
          "indexed": true,
          "internalType": "address",
          "name": "to",
          "type": "address"
        },
        {
          "indexed": false,
          "internalType": "uint256",
          "name": "value",
          "type": "uint256"
        }
      ],
      "name": "Transfer",
      "type": "event"
    },
    {
      "inputs": [
        {
          "internalType": "address",
          "name": "owner",
          "type": "address"
        },
        {
          "internalType": "address",
          "name": "spender",
          "type": "address"
        }
      ],
      "name": "allowance",
      "outputs": [
        {
          "internalType": "uint256",
          "name": "",
          "type": "uint256"
        }
      ],
      "stateMutability": "view",
      "type": "function"
    },
    {
      "inputs": [
        {
          "internalType": "address",
          "name": "spender",
          "type": "address"
        },
        {
          "internalType": "uint256",
          "name": "amount",
          "type": "uint256"
        }
      ],
      "name": "approve",
      "outputs": [
        {
          "internalType": "bool",
          "name": "",
          "type": "bool"
        }
      ],
      "stateMutability": "nonpayable",
      "type": "function"
    },
    {
      "inputs": [
        {
          "internalType": "address",
          "name": "account",
          "type": "address"
        }
      ],
      "name": "balanceOf",
      "outputs": [
        {
          "internalType": "uint256",
          "name": "",
          "type": "uint256"
        }
      ],
      "stateMutability": "view",
      "type": "function"
    },
    {
      "inputs": [],
      "name": "decimals",
      "outputs": [
        {
          "internalType": "uint8",
          "name": "",
          "type": "uint8"
        }
      ],
      "stateMutability": "view",
      "type": "function"
    },
    {
      "inputs": [
        {
          "internalType": "address",
          "name": "spender",
          "type": "address"
        },
        {
          "internalType": "uint256",
          "name": "subtractedValue",
          "type": "uint256"
        }
      ],
      "name": "decreaseAllowance",
      "outputs": [
        {
          "internalType": "bool",
          "name": "",
          "type": "bool"
        }
      ],
      "stateMutability": "nonpayable",
      "type": "function"
    },
    {
      "inputs": [
        {
          "internalType": "address",
          "name": "spender",
          "type": "address"
        },
        {
          "internalType": "uint256",
          "name": "addedValue",
          "type": "uint256"
        }
      ],
      "name": "increaseAllowance",
      "outputs": [
        {
          "internalType": "bool",
          "name": "",
          "type": "bool"
        }
      ],
      "stateMutability": "nonpayable",
      "type": "function"
    },
    {
      "inputs": [],
      "name": "name",
      "outputs": [
        {
          "internalType": "string",
          "name": "",
          "type": "string"
        }
      ],
      "stateMutability": "view",
      "type": "function"
    },
    {
      "inputs": [],
      "name": "symbol",
      "outputs": [
        {
          "internalType": "string",
          "name": "",
          "type": "string"
        }
      ],
      "stateMutability": "view",
      "type": "function"
    },
    {
      "inputs": [],
      "name": "totalSupply",
      "outputs": [
        {
          "internalType": "uint256",
          "name": "",
          "type": "uint256"
        }
      ],
      "stateMutability": "view",
      "type": "function"
    },
    {
      "inputs": [
        {
          "internalType": "address",
          "name": "to",
          "type": "address"
        },
        {
          "internalType": "uint256",
          "name": "amount",
          "type": "uint256"
        }
      ],
      "name": "transfer",
      "outputs": [
        {
          "internalType": "bool",
          "name": "",
          "type": "bool"
        }
      ],
      "stateMutability": "nonpayable",
      "type": "function"
    },
    {
      "inputs": [
        {
          "internalType": "address",
          "name": "from",
          "type": "address"
        },
        {
          "internalType": "address",
          "name": "to",
          "type": "address"
        },
        {
          "internalType": "uint256",
          "name": "amount",
          "type": "uint256"
        }
      ],
      "name": "transferFrom",
      "outputs": [
        {
          "internalType": "bool",
          "name": "",
          "type": "bool"
        }
      ],
      "stateMutability": "nonpayable",
      "type": "function"
    },
    {
      "inputs": [
        {
          "internalType": "address",
          "name": "from",
          "type": "address"
        },
        {
          "internalType": "address",
          "name": "to",
          "type": "address"
        },
        {
          "internalType": "uint256",
          "name": "videoId",
          "type": "uint256"
        }
      ],
      "name": "sendAwards",
      "outputs": [],
      "stateMutability": "nonpayable",
      "type": "function"
    }
  ],
  "bytecode": "0x60806040523480156200001157600080fd5b506040518060400160405280600d81526020017f4453747265616d20546f6b656e000000000000000000000000000000000000008152506040518060400160405280600381526020017f445354000000000000000000000000000000000000000000000000000000000081525081600390805190602001906200009692919062000493565b508060049080519060200190620000af92919062000493565b505050620000f133620000c76200013760201b60201c565b600a620000d59190620006dd565b620f4240620000e591906200072e565b6200014060201b60201c565b620001313330620001076200013760201b60201c565b600a620001159190620006dd565b620f42406200012591906200072e565b620002b860201b60201c565b62000a31565b60006012905090565b600073ffffffffffffffffffffffffffffffffffffffff168273ffffffffffffffffffffffffffffffffffffffff1603620001b2576040517f08c379a0000000000000000000000000000000000000000000000000000000008152600401620001a990620007f0565b60405180910390fd5b620001c6600083836200048960201b60201c565b8060026000828254620001da919062000812565b92505081905550806000808473ffffffffffffffffffffffffffffffffffffffff1673ffffffffffffffffffffffffffffffffffffffff168152602001908152602001600020600082825462000231919062000812565b925050819055508173ffffffffffffffffffffffffffffffffffffffff16600073ffffffffffffffffffffffffffffffffffffffff167fddf252ad1be2c89b69c2b068fc378daa952ba7f163c4a11628f55a4df523b3ef8360405162000298919062000880565b60405180910390a3620002b4600083836200048e60201b60201c565b5050565b600073ffffffffffffffffffffffffffffffffffffffff168373ffffffffffffffffffffffffffffffffffffffff16036200032a576040517f08c379a0000000000000000000000000000000000000000000000000000000008152600401620003219062000913565b60405180910390fd5b600073ffffffffffffffffffffffffffffffffffffffff168273ffffffffffffffffffffffffffffffffffffffff16036200039c576040517f08c379a00000000000000000000000000000000000000000000000000000000081526004016200039390620009ab565b60405180910390fd5b80600160008573ffffffffffffffffffffffffffffffffffffffff1673ffffffffffffffffffffffffffffffffffffffff16815260200190815260200160002060008473ffffffffffffffffffffffffffffffffffffffff1673ffffffffffffffffffffffffffffffffffffffff168152602001908152602001600020819055508173ffffffffffffffffffffffffffffffffffffffff168373ffffffffffffffffffffffffffffffffffffffff167f8c5be1e5ebec7d5bd14f71427d1e84f3dd0314c0f7b2291e5b200ac8c7c3b925836040516200047c919062000880565b60405180910390a3505050565b505050565b505050565b828054620004a190620009fc565b90600052602060002090601f016020900481019282620004c5576000855562000511565b82601f10620004e057805160ff191683800117855562000511565b8280016001018555821562000511579182015b8281111562000510578251825591602001919060010190620004f3565b5b50905062000520919062000524565b5090565b5b808211156200053f57600081600090555060010162000525565b5090565b7f4e487b7100000000000000000000000000000000000000000000000000000000600052601160045260246000fd5b60008160011c9050919050565b6000808291508390505b6001851115620005d157808604811115620005a957620005a862000543565b5b6001851615620005b95780820291505b8081029050620005c98562000572565b945062000589565b94509492505050565b600082620005ec5760019050620006bf565b81620005fc5760009050620006bf565b8160018114620006155760028114620006205762000656565b6001915050620006bf565b60ff84111562000635576200063462000543565b5b8360020a9150848211156200064f576200064e62000543565b5b50620006bf565b5060208310610133831016604e8410600b8410161715620006905782820a9050838111156200068a576200068962000543565b5b620006bf565b6200069f84848460016200057f565b92509050818404811115620006b957620006b862000543565b5b81810290505b9392505050565b6000819050919050565b600060ff82169050919050565b6000620006ea82620006c6565b9150620006f783620006d0565b9250620007267fffffffffffffffffffffffffffffffffffffffffffffffffffffffffffffffff8484620005da565b905092915050565b60006200073b82620006c6565b91506200074883620006c6565b9250817fffffffffffffffffffffffffffffffffffffffffffffffffffffffffffffffff048311821515161562000784576200078362000543565b5b828202905092915050565b600082825260208201905092915050565b7f45524332303a206d696e7420746f20746865207a65726f206164647265737300600082015250565b6000620007d8601f836200078f565b9150620007e582620007a0565b602082019050919050565b600060208201905081810360008301526200080b81620007c9565b9050919050565b60006200081f82620006c6565b91506200082c83620006c6565b9250827fffffffffffffffffffffffffffffffffffffffffffffffffffffffffffffffff0382111562000864576200086362000543565b5b828201905092915050565b6200087a81620006c6565b82525050565b60006020820190506200089760008301846200086f565b92915050565b7f45524332303a20617070726f76652066726f6d20746865207a65726f2061646460008201527f7265737300000000000000000000000000000000000000000000000000000000602082015250565b6000620008fb6024836200078f565b915062000908826200089d565b604082019050919050565b600060208201905081810360008301526200092e81620008ec565b9050919050565b7f45524332303a20617070726f766520746f20746865207a65726f20616464726560008201527f7373000000000000000000000000000000000000000000000000000000000000602082015250565b6000620009936022836200078f565b9150620009a08262000935565b604082019050919050565b60006020820190508181036000830152620009c68162000984565b9050919050565b7f4e487b7100000000000000000000000000000000000000000000000000000000600052602260045260246000fd5b6000600282049050600182168062000a1557607f821691505b60208210810362000a2b5762000a2a620009cd565b5b50919050565b6115e38062000a416000396000f3fe608060405234801561001057600080fd5b50600436106100b45760003560e01c806362e0289b1161007157806362e0289b146101a357806370a08231146101bf57806395d89b41146101ef578063a457c2d71461020d578063a9059cbb1461023d578063dd62ed3e1461026d576100b4565b806306fdde03146100b9578063095ea7b3146100d757806318160ddd1461010757806323b872dd14610125578063313ce567146101555780633950935114610173575b600080fd5b6100c161029d565b6040516100ce9190610c64565b60405180910390f35b6100f160048036038101906100ec9190610d1f565b61032f565b6040516100fe9190610d7a565b60405180910390f35b61010f610352565b60405161011c9190610da4565b60405180910390f35b61013f600480360381019061013a9190610dbf565b61035c565b60405161014c9190610d7a565b60405180910390f35b61015d61038b565b60405161016a9190610e2e565b60405180910390f35b61018d60048036038101906101889190610d1f565b610394565b60405161019a9190610d7a565b60405180910390f35b6101bd60048036038101906101b89190610dbf565b6103cb565b005b6101d960048036038101906101d49190610e49565b6104d4565b6040516101e69190610da4565b60405180910390f35b6101f761051c565b6040516102049190610c64565b60405180910390f35b61022760048036038101906102229190610d1f565b6105ae565b6040516102349190610d7a565b60405180910390f35b61025760048036038101906102529190610d1f565b610625565b6040516102649190610d7a565b60405180910390f35b61028760048036038101906102829190610e76565b610648565b6040516102949190610da4565b60405180910390f35b6060600380546102ac90610ee5565b80601f01602080910402602001604051908101604052809291908181526020018280546102d890610ee5565b80156103255780601f106102fa57610100808354040283529160200191610325565b820191906000526020600020905b81548152906001019060200180831161030857829003601f168201915b5050505050905090565b60008061033a6106cf565b90506103478185856106d7565b600191505092915050565b6000600254905090565b6000806103676106cf565b90506103748582856108a0565b61037f85858561092c565b60019150509392505050565b60006012905090565b60008061039f6106cf565b90506103c08185856103b18589610648565b6103bb9190610f45565b6106d7565b600191505092915050565b6103f4336103d761038b565b600a6103e391906110ce565b60646103ef9190611119565b61032f565b5061041f838361040261038b565b600a61040e91906110ce565b606461041a9190611119565b61035c565b5061044760016005600084815260200190815260200160002054610bab90919063ffffffff16565b60056000838152602001908152602001600020819055507ffe595ea0d3340075061d846b8901eb1da72ad0fba681eafbb02e3e56c64a10c4828260056000858152602001908152602001600020544261049e61038b565b600a6104aa91906110ce565b60646104b69190611119565b6040516104c7959493929190611182565b60405180910390a1505050565b60008060008373ffffffffffffffffffffffffffffffffffffffff1673ffffffffffffffffffffffffffffffffffffffff168152602001908152602001600020549050919050565b60606004805461052b90610ee5565b80601f016020809104026020016040519081016040528092919081815260200182805461055790610ee5565b80156105a45780601f10610579576101008083540402835291602001916105a4565b820191906000526020600020905b81548152906001019060200180831161058757829003601f168201915b5050505050905090565b6000806105b96106cf565b905060006105c78286610648565b90508381101561060c576040517f08c379a000000000000000000000000000000000000000000000000000000000815260040161060390611247565b60405180910390fd5b61061982868684036106d7565b60019250505092915050565b6000806106306106cf565b905061063d81858561092c565b600191505092915050565b6000600160008473ffffffffffffffffffffffffffffffffffffffff1673ffffffffffffffffffffffffffffffffffffffff16815260200190815260200160002060008373ffffffffffffffffffffffffffffffffffffffff1673ffffffffffffffffffffffffffffffffffffffff16815260200190815260200160002054905092915050565b600033905090565b600073ffffffffffffffffffffffffffffffffffffffff168373ffffffffffffffffffffffffffffffffffffffff1603610746576040517f08c379a000000000000000000000000000000000000000000000000000000000815260040161073d906112d9565b60405180910390fd5b600073ffffffffffffffffffffffffffffffffffffffff168273ffffffffffffffffffffffffffffffffffffffff16036107b5576040517f08c379a00000000000000000000000000000000000000000000000000000000081526004016107ac9061136b565b60405180910390fd5b80600160008573ffffffffffffffffffffffffffffffffffffffff1673ffffffffffffffffffffffffffffffffffffffff16815260200190815260200160002060008473ffffffffffffffffffffffffffffffffffffffff1673ffffffffffffffffffffffffffffffffffffffff168152602001908152602001600020819055508173ffffffffffffffffffffffffffffffffffffffff168373ffffffffffffffffffffffffffffffffffffffff167f8c5be1e5ebec7d5bd14f71427d1e84f3dd0314c0f7b2291e5b200ac8c7c3b925836040516108939190610da4565b60405180910390a3505050565b60006108ac8484610648565b90507fffffffffffffffffffffffffffffffffffffffffffffffffffffffffffffffff81146109265781811015610918576040517f08c379a000000000000000000000000000000000000000000000000000000000815260040161090f906113d7565b60405180910390fd5b61092584848484036106d7565b5b50505050565b600073ffffffffffffffffffffffffffffffffffffffff168373ffffffffffffffffffffffffffffffffffffffff160361099b576040517f08c379a000000000000000000000000000000000000000000000000000000000815260040161099290611469565b60405180910390fd5b600073ffffffffffffffffffffffffffffffffffffffff168273ffffffffffffffffffffffffffffffffffffffff1603610a0a576040517f08c379a0000000000000000000000000000000000000000000000000000000008152600401610a01906114fb565b60405180910390fd5b610a15838383610bc1565b60008060008573ffffffffffffffffffffffffffffffffffffffff1673ffffffffffffffffffffffffffffffffffffffff16815260200190815260200160002054905081811015610a9b576040517f08c379a0000000000000000000000000000000000000000000000000000000008152600401610a929061158d565b60405180910390fd5b8181036000808673ffffffffffffffffffffffffffffffffffffffff1673ffffffffffffffffffffffffffffffffffffffff16815260200190815260200160002081905550816000808573ffffffffffffffffffffffffffffffffffffffff1673ffffffffffffffffffffffffffffffffffffffff1681526020019081526020016000206000828254610b2e9190610f45565b925050819055508273ffffffffffffffffffffffffffffffffffffffff168473ffffffffffffffffffffffffffffffffffffffff167fddf252ad1be2c89b69c2b068fc378daa952ba7f163c4a11628f55a4df523b3ef84604051610b929190610da4565b60405180910390a3610ba5848484610bc6565b50505050565b60008183610bb99190610f45565b905092915050565b505050565b505050565b600081519050919050565b600082825260208201905092915050565b60005b83811015610c05578082015181840152602081019050610bea565b83811115610c14576000848401525b50505050565b6000601f19601f8301169050919050565b6000610c3682610bcb565b610c408185610bd6565b9350610c50818560208601610be7565b610c5981610c1a565b840191505092915050565b60006020820190508181036000830152610c7e8184610c2b565b905092915050565b600080fd5b600073ffffffffffffffffffffffffffffffffffffffff82169050919050565b6000610cb682610c8b565b9050919050565b610cc681610cab565b8114610cd157600080fd5b50565b600081359050610ce381610cbd565b92915050565b6000819050919050565b610cfc81610ce9565b8114610d0757600080fd5b50565b600081359050610d1981610cf3565b92915050565b60008060408385031215610d3657610d35610c86565b5b6000610d4485828601610cd4565b9250506020610d5585828601610d0a565b9150509250929050565b60008115159050919050565b610d7481610d5f565b82525050565b6000602082019050610d8f6000830184610d6b565b92915050565b610d9e81610ce9565b82525050565b6000602082019050610db96000830184610d95565b92915050565b600080600060608486031215610dd857610dd7610c86565b5b6000610de686828701610cd4565b9350506020610df786828701610cd4565b9250506040610e0886828701610d0a565b9150509250925092565b600060ff82169050919050565b610e2881610e12565b82525050565b6000602082019050610e436000830184610e1f565b92915050565b600060208284031215610e5f57610e5e610c86565b5b6000610e6d84828501610cd4565b91505092915050565b60008060408385031215610e8d57610e8c610c86565b5b6000610e9b85828601610cd4565b9250506020610eac85828601610cd4565b9150509250929050565b7f4e487b7100000000000000000000000000000000000000000000000000000000600052602260045260246000fd5b60006002820490506001821680610efd57607f821691505b602082108103610f1057610f0f610eb6565b5b50919050565b7f4e487b7100000000000000000000000000000000000000000000000000000000600052601160045260246000fd5b6000610f5082610ce9565b9150610f5b83610ce9565b9250827fffffffffffffffffffffffffffffffffffffffffffffffffffffffffffffffff03821115610f9057610f8f610f16565b5b828201905092915050565b60008160011c9050919050565b6000808291508390505b6001851115610ff257808604811115610fce57610fcd610f16565b5b6001851615610fdd5780820291505b8081029050610feb85610f9b565b9450610fb2565b94509492505050565b60008261100b57600190506110c7565b8161101957600090506110c7565b816001811461102f576002811461103957611068565b60019150506110c7565b60ff84111561104b5761104a610f16565b5b8360020a91508482111561106257611061610f16565b5b506110c7565b5060208310610133831016604e8410600b841016171561109d5782820a90508381111561109857611097610f16565b5b6110c7565b6110aa8484846001610fa8565b925090508184048111156110c1576110c0610f16565b5b81810290505b9392505050565b60006110d982610ce9565b91506110e483610e12565b92506111117fffffffffffffffffffffffffffffffffffffffffffffffffffffffffffffffff8484610ffb565b905092915050565b600061112482610ce9565b915061112f83610ce9565b9250817fffffffffffffffffffffffffffffffffffffffffffffffffffffffffffffffff048311821515161561116857611167610f16565b5b828202905092915050565b61117c81610cab565b82525050565b600060a0820190506111976000830188611173565b6111a46020830187610d95565b6111b16040830186610d95565b6111be6060830185610d95565b6111cb6080830184610d95565b9695505050505050565b7f45524332303a2064656372656173656420616c6c6f77616e63652062656c6f7760008201527f207a65726f000000000000000000000000000000000000000000000000000000602082015250565b6000611231602583610bd6565b915061123c826111d5565b604082019050919050565b6000602082019050818103600083015261126081611224565b9050919050565b7f45524332303a20617070726f76652066726f6d20746865207a65726f2061646460008201527f7265737300000000000000000000000000000000000000000000000000000000602082015250565b60006112c3602483610bd6565b91506112ce82611267565b604082019050919050565b600060208201905081810360008301526112f2816112b6565b9050919050565b7f45524332303a20617070726f766520746f20746865207a65726f20616464726560008201527f7373000000000000000000000000000000000000000000000000000000000000602082015250565b6000611355602283610bd6565b9150611360826112f9565b604082019050919050565b6000602082019050818103600083015261138481611348565b9050919050565b7f45524332303a20696e73756666696369656e7420616c6c6f77616e6365000000600082015250565b60006113c1601d83610bd6565b91506113cc8261138b565b602082019050919050565b600060208201905081810360008301526113f0816113b4565b9050919050565b7f45524332303a207472616e736665722066726f6d20746865207a65726f20616460008201527f6472657373000000000000000000000000000000000000000000000000000000602082015250565b6000611453602583610bd6565b915061145e826113f7565b604082019050919050565b6000602082019050818103600083015261148281611446565b9050919050565b7f45524332303a207472616e7366657220746f20746865207a65726f206164647260008201527f6573730000000000000000000000000000000000000000000000000000000000602082015250565b60006114e5602383610bd6565b91506114f082611489565b604082019050919050565b60006020820190508181036000830152611514816114d8565b9050919050565b7f45524332303a207472616e7366657220616d6f756e742065786365656473206260008201527f616c616e63650000000000000000000000000000000000000000000000000000602082015250565b6000611577602683610bd6565b91506115828261151b565b604082019050919050565b600060208201905081810360008301526115a68161156a565b905091905056fea2646970667358221220c58ff8145e9bc6aa931d67afa2a5fc9621c456eb119374dfede8c46a4e4fd26564736f6c634300080e0033",
  "immutableReferences": {},
  "source": "// SPDX-License-Identifier: UNLICENSED\r\npragma solidity >=0.6.0 <0.9.0;\r\n\r\nimport \"@openzeppelin/contracts/utils/math/SafeMath.sol\";\r\nimport \"@openzeppelin/contracts/token/ERC20/ERC20.sol\";\r\n\r\ncontract DStreamToken is ERC20 {\r\n  using SafeMath for uint256;\r\n\r\n  mapping(uint => uint) streamLogsCountByVideoId;\r\n\r\n  event StreamRewardLogAdded(\r\n    address user, uint videoId, uint count, uint date, uint amount\r\n  );\r\n\r\n  constructor() ERC20(\"DStream Token\", \"DST\") {\r\n    _mint(msg.sender, 1000000 * 10 ** decimals());\r\n    _approve(msg.sender, address(this), 1000000 * 10 ** decimals());\r\n  }\r\n\r\n  // will work only for the creator unless user have sufficient token already\r\n  function sendAwards(address from, address to, uint videoId) public {\r\n    approve(msg.sender, 100 * 10 ** decimals());\r\n    transferFrom(from, to, 100 * 10 ** decimals());\r\n    streamLogsCountByVideoId[videoId] = streamLogsCountByVideoId[videoId].add(1);\r\n    emit StreamRewardLogAdded(\r\n      to, \r\n      videoId, \r\n      streamLogsCountByVideoId[videoId], \r\n      block.timestamp, \r\n      100 * 10 ** decimals()\r\n    );\r\n  }\r\n\r\n}\r\n",
  "sourcePath": "C:\\Workspace\\DStream\\backend\\contracts\\tokens\\DStreamToken.sol",
  "compiler": {
    "name": "solc",
    "version": "0.8.14+commit.80d49f37.Emscripten.clang"
  },
  "schemaVersion": "3.4.7",
  "updatedAt": "2022-06-30T08:00:24.654Z",
  "devdoc": {
    "kind": "dev",
    "methods": {
      "allowance(address,address)": {
        "details": "See {IERC20-allowance}."
      },
      "approve(address,uint256)": {
        "details": "See {IERC20-approve}. NOTE: If `amount` is the maximum `uint256`, the allowance is not updated on `transferFrom`. This is semantically equivalent to an infinite approval. Requirements: - `spender` cannot be the zero address."
      },
      "balanceOf(address)": {
        "details": "See {IERC20-balanceOf}."
      },
      "decimals()": {
        "details": "Returns the number of decimals used to get its user representation. For example, if `decimals` equals `2`, a balance of `505` tokens should be displayed to a user as `5.05` (`505 / 10 ** 2`). Tokens usually opt for a value of 18, imitating the relationship between Ether and Wei. This is the value {ERC20} uses, unless this function is overridden; NOTE: This information is only used for _display_ purposes: it in no way affects any of the arithmetic of the contract, including {IERC20-balanceOf} and {IERC20-transfer}."
      },
      "decreaseAllowance(address,uint256)": {
        "details": "Atomically decreases the allowance granted to `spender` by the caller. This is an alternative to {approve} that can be used as a mitigation for problems described in {IERC20-approve}. Emits an {Approval} event indicating the updated allowance. Requirements: - `spender` cannot be the zero address. - `spender` must have allowance for the caller of at least `subtractedValue`."
      },
      "increaseAllowance(address,uint256)": {
        "details": "Atomically increases the allowance granted to `spender` by the caller. This is an alternative to {approve} that can be used as a mitigation for problems described in {IERC20-approve}. Emits an {Approval} event indicating the updated allowance. Requirements: - `spender` cannot be the zero address."
      },
      "name()": {
        "details": "Returns the name of the token."
      },
      "symbol()": {
        "details": "Returns the symbol of the token, usually a shorter version of the name."
      },
      "totalSupply()": {
        "details": "See {IERC20-totalSupply}."
      },
      "transfer(address,uint256)": {
        "details": "See {IERC20-transfer}. Requirements: - `to` cannot be the zero address. - the caller must have a balance of at least `amount`."
      },
      "transferFrom(address,address,uint256)": {
        "details": "See {IERC20-transferFrom}. Emits an {Approval} event indicating the updated allowance. This is not required by the EIP. See the note at the beginning of {ERC20}. NOTE: Does not update the allowance if the current allowance is the maximum `uint256`. Requirements: - `from` and `to` cannot be the zero address. - `from` must have a balance of at least `amount`. - the caller must have allowance for ``from``'s tokens of at least `amount`."
      }
    },
    "version": 1
  },
  "userdoc": {
    "kind": "user",
    "methods": {},
    "version": 1
  }
}