{
  "contractName": "DStreamToken",
  "abi": [
    {
      "inputs": [],
      "stateMutability": "nonpayable",
      "type": "constructor"
    },
    {
      "anonymous": false,
      "inputs": [
        {
          "indexed": true,
          "internalType": "address",
          "name": "owner",
          "type": "address"
        },
        {
          "indexed": true,
          "internalType": "address",
          "name": "spender",
          "type": "address"
        },
        {
          "indexed": false,
          "internalType": "uint256",
          "name": "value",
          "type": "uint256"
        }
      ],
      "name": "Approval",
      "type": "event"
    },
    {
      "anonymous": false,
      "inputs": [
        {
          "indexed": false,
          "internalType": "address",
          "name": "user",
          "type": "address"
        },
        {
          "indexed": false,
          "internalType": "uint256",
          "name": "videoId",
          "type": "uint256"
        },
        {
          "indexed": false,
          "internalType": "uint256",
          "name": "date",
          "type": "uint256"
        },
        {
          "indexed": false,
          "internalType": "uint256",
          "name": "amount",
          "type": "uint256"
        }
      ],
      "name": "StreamRewardLog",
      "type": "event"
    },
    {
      "anonymous": false,
      "inputs": [
        {
          "indexed": true,
          "internalType": "address",
          "name": "from",
          "type": "address"
        },
        {
          "indexed": true,
          "internalType": "address",
          "name": "to",
          "type": "address"
        },
        {
          "indexed": false,
          "internalType": "uint256",
          "name": "value",
          "type": "uint256"
        }
      ],
      "name": "Transfer",
      "type": "event"
    },
    {
      "inputs": [
        {
          "internalType": "address",
          "name": "owner",
          "type": "address"
        },
        {
          "internalType": "address",
          "name": "spender",
          "type": "address"
        }
      ],
      "name": "allowance",
      "outputs": [
        {
          "internalType": "uint256",
          "name": "",
          "type": "uint256"
        }
      ],
      "stateMutability": "view",
      "type": "function",
      "constant": true
    },
    {
      "inputs": [
        {
          "internalType": "address",
          "name": "spender",
          "type": "address"
        },
        {
          "internalType": "uint256",
          "name": "amount",
          "type": "uint256"
        }
      ],
      "name": "approve",
      "outputs": [
        {
          "internalType": "bool",
          "name": "",
          "type": "bool"
        }
      ],
      "stateMutability": "nonpayable",
      "type": "function"
    },
    {
      "inputs": [
        {
          "internalType": "address",
          "name": "account",
          "type": "address"
        }
      ],
      "name": "balanceOf",
      "outputs": [
        {
          "internalType": "uint256",
          "name": "",
          "type": "uint256"
        }
      ],
      "stateMutability": "view",
      "type": "function",
      "constant": true
    },
    {
      "inputs": [],
      "name": "decimals",
      "outputs": [
        {
          "internalType": "uint8",
          "name": "",
          "type": "uint8"
        }
      ],
      "stateMutability": "view",
      "type": "function",
      "constant": true
    },
    {
      "inputs": [
        {
          "internalType": "address",
          "name": "spender",
          "type": "address"
        },
        {
          "internalType": "uint256",
          "name": "subtractedValue",
          "type": "uint256"
        }
      ],
      "name": "decreaseAllowance",
      "outputs": [
        {
          "internalType": "bool",
          "name": "",
          "type": "bool"
        }
      ],
      "stateMutability": "nonpayable",
      "type": "function"
    },
    {
      "inputs": [
        {
          "internalType": "address",
          "name": "spender",
          "type": "address"
        },
        {
          "internalType": "uint256",
          "name": "addedValue",
          "type": "uint256"
        }
      ],
      "name": "increaseAllowance",
      "outputs": [
        {
          "internalType": "bool",
          "name": "",
          "type": "bool"
        }
      ],
      "stateMutability": "nonpayable",
      "type": "function"
    },
    {
      "inputs": [],
      "name": "name",
      "outputs": [
        {
          "internalType": "string",
          "name": "",
          "type": "string"
        }
      ],
      "stateMutability": "view",
      "type": "function",
      "constant": true
    },
    {
      "inputs": [],
      "name": "symbol",
      "outputs": [
        {
          "internalType": "string",
          "name": "",
          "type": "string"
        }
      ],
      "stateMutability": "view",
      "type": "function",
      "constant": true
    },
    {
      "inputs": [],
      "name": "totalSupply",
      "outputs": [
        {
          "internalType": "uint256",
          "name": "",
          "type": "uint256"
        }
      ],
      "stateMutability": "view",
      "type": "function",
      "constant": true
    },
    {
      "inputs": [
        {
          "internalType": "address",
          "name": "to",
          "type": "address"
        },
        {
          "internalType": "uint256",
          "name": "amount",
          "type": "uint256"
        }
      ],
      "name": "transfer",
      "outputs": [
        {
          "internalType": "bool",
          "name": "",
          "type": "bool"
        }
      ],
      "stateMutability": "nonpayable",
      "type": "function"
    },
    {
      "inputs": [
        {
          "internalType": "address",
          "name": "from",
          "type": "address"
        },
        {
          "internalType": "address",
          "name": "to",
          "type": "address"
        },
        {
          "internalType": "uint256",
          "name": "amount",
          "type": "uint256"
        }
      ],
      "name": "transferFrom",
      "outputs": [
        {
          "internalType": "bool",
          "name": "",
          "type": "bool"
        }
      ],
      "stateMutability": "nonpayable",
      "type": "function"
    },
    {
      "inputs": [
        {
          "internalType": "address",
          "name": "from",
          "type": "address"
        },
        {
          "internalType": "address",
          "name": "to",
          "type": "address"
        },
        {
          "internalType": "uint256",
          "name": "videoId",
          "type": "uint256"
        }
      ],
      "name": "sendAwards",
      "outputs": [],
      "stateMutability": "nonpayable",
      "type": "function"
    }
  ],
  "bytecode": "0x60806040523480156200001157600080fd5b506040518060400160405280600d81526020017f4453747265616d20546f6b656e000000000000000000000000000000000000008152506040518060400160405280600381526020017f44535400000000000000000000000000000000000000000000000000000000008152508160039080519060200190620000969291906200046e565b508060049080519060200190620000af9291906200046e565b505050620000f133620000c76200011260201b60201c565b600a620000d59190620006b8565b620f4240620000e5919062000709565b6200011b60201b60201c565b6200010c3330670de0b6b3a76400006200029360201b60201c565b62000a0c565b60006012905090565b600073ffffffffffffffffffffffffffffffffffffffff168273ffffffffffffffffffffffffffffffffffffffff16036200018d576040517f08c379a00000000000000000000000000000000000000000000000000000000081526004016200018490620007cb565b60405180910390fd5b620001a1600083836200046460201b60201c565b8060026000828254620001b59190620007ed565b92505081905550806000808473ffffffffffffffffffffffffffffffffffffffff1673ffffffffffffffffffffffffffffffffffffffff16815260200190815260200160002060008282546200020c9190620007ed565b925050819055508173ffffffffffffffffffffffffffffffffffffffff16600073ffffffffffffffffffffffffffffffffffffffff167fddf252ad1be2c89b69c2b068fc378daa952ba7f163c4a11628f55a4df523b3ef836040516200027391906200085b565b60405180910390a36200028f600083836200046960201b60201c565b5050565b600073ffffffffffffffffffffffffffffffffffffffff168373ffffffffffffffffffffffffffffffffffffffff160362000305576040517f08c379a0000000000000000000000000000000000000000000000000000000008152600401620002fc90620008ee565b60405180910390fd5b600073ffffffffffffffffffffffffffffffffffffffff168273ffffffffffffffffffffffffffffffffffffffff160362000377576040517f08c379a00000000000000000000000000000000000000000000000000000000081526004016200036e9062000986565b60405180910390fd5b80600160008573ffffffffffffffffffffffffffffffffffffffff1673ffffffffffffffffffffffffffffffffffffffff16815260200190815260200160002060008473ffffffffffffffffffffffffffffffffffffffff1673ffffffffffffffffffffffffffffffffffffffff168152602001908152602001600020819055508173ffffffffffffffffffffffffffffffffffffffff168373ffffffffffffffffffffffffffffffffffffffff167f8c5be1e5ebec7d5bd14f71427d1e84f3dd0314c0f7b2291e5b200ac8c7c3b925836040516200045791906200085b565b60405180910390a3505050565b505050565b505050565b8280546200047c90620009d7565b90600052602060002090601f016020900481019282620004a05760008555620004ec565b82601f10620004bb57805160ff1916838001178555620004ec565b82800160010185558215620004ec579182015b82811115620004eb578251825591602001919060010190620004ce565b5b509050620004fb9190620004ff565b5090565b5b808211156200051a57600081600090555060010162000500565b5090565b7f4e487b7100000000000000000000000000000000000000000000000000000000600052601160045260246000fd5b60008160011c9050919050565b6000808291508390505b6001851115620005ac578086048111156200058457620005836200051e565b5b6001851615620005945780820291505b8081029050620005a4856200054d565b945062000564565b94509492505050565b600082620005c757600190506200069a565b81620005d757600090506200069a565b8160018114620005f05760028114620005fb5762000631565b60019150506200069a565b60ff84111562000610576200060f6200051e565b5b8360020a9150848211156200062a57620006296200051e565b5b506200069a565b5060208310610133831016604e8410600b84101617156200066b5782820a9050838111156200066557620006646200051e565b5b6200069a565b6200067a84848460016200055a565b925090508184048111156200069457620006936200051e565b5b81810290505b9392505050565b6000819050919050565b600060ff82169050919050565b6000620006c582620006a1565b9150620006d283620006ab565b9250620007017fffffffffffffffffffffffffffffffffffffffffffffffffffffffffffffffff8484620005b5565b905092915050565b60006200071682620006a1565b91506200072383620006a1565b9250817fffffffffffffffffffffffffffffffffffffffffffffffffffffffffffffffff04831182151516156200075f576200075e6200051e565b5b828202905092915050565b600082825260208201905092915050565b7f45524332303a206d696e7420746f20746865207a65726f206164647265737300600082015250565b6000620007b3601f836200076a565b9150620007c0826200077b565b602082019050919050565b60006020820190508181036000830152620007e681620007a4565b9050919050565b6000620007fa82620006a1565b91506200080783620006a1565b9250827fffffffffffffffffffffffffffffffffffffffffffffffffffffffffffffffff038211156200083f576200083e6200051e565b5b828201905092915050565b6200085581620006a1565b82525050565b60006020820190506200087260008301846200084a565b92915050565b7f45524332303a20617070726f76652066726f6d20746865207a65726f2061646460008201527f7265737300000000000000000000000000000000000000000000000000000000602082015250565b6000620008d66024836200076a565b9150620008e38262000878565b604082019050919050565b600060208201905081810360008301526200090981620008c7565b9050919050565b7f45524332303a20617070726f766520746f20746865207a65726f20616464726560008201527f7373000000000000000000000000000000000000000000000000000000000000602082015250565b60006200096e6022836200076a565b91506200097b8262000910565b604082019050919050565b60006020820190508181036000830152620009a1816200095f565b9050919050565b7f4e487b7100000000000000000000000000000000000000000000000000000000600052602260045260246000fd5b60006002820490506001821680620009f057607f821691505b60208210810362000a065762000a05620009a8565b5b50919050565b61156c8062000a1c6000396000f3fe608060405234801561001057600080fd5b50600436106100b45760003560e01c806362e0289b1161007157806362e0289b146101a357806370a08231146101bf57806395d89b41146101ef578063a457c2d71461020d578063a9059cbb1461023d578063dd62ed3e1461026d576100b4565b806306fdde03146100b9578063095ea7b3146100d757806318160ddd1461010757806323b872dd14610125578063313ce567146101555780633950935114610173575b600080fd5b6100c161029d565b6040516100ce9190610bfb565b60405180910390f35b6100f160048036038101906100ec9190610cb6565b61032f565b6040516100fe9190610d11565b60405180910390f35b61010f610352565b60405161011c9190610d3b565b60405180910390f35b61013f600480360381019061013a9190610d56565b61035c565b60405161014c9190610d11565b60405180910390f35b61015d61038b565b60405161016a9190610dc5565b60405180910390f35b61018d60048036038101906101889190610cb6565b610394565b60405161019a9190610d11565b60405180910390f35b6101bd60048036038101906101b89190610d56565b6103cb565b005b6101d960048036038101906101d49190610de0565b610481565b6040516101e69190610d3b565b60405180910390f35b6101f76104c9565b6040516102049190610bfb565b60405180910390f35b61022760048036038101906102229190610cb6565b61055b565b6040516102349190610d11565b60405180910390f35b61025760048036038101906102529190610cb6565b6105d2565b6040516102649190610d11565b60405180910390f35b61028760048036038101906102829190610e0d565b6105f5565b6040516102949190610d3b565b60405180910390f35b6060600380546102ac90610e7c565b80601f01602080910402602001604051908101604052809291908181526020018280546102d890610e7c565b80156103255780601f106102fa57610100808354040283529160200191610325565b820191906000526020600020905b81548152906001019060200180831161030857829003601f168201915b5050505050905090565b60008061033a61067c565b9050610347818585610684565b600191505092915050565b6000600254905090565b60008061036761067c565b905061037485828561084d565b61037f8585856108d9565b60019150509392505050565b60006012905090565b60008061039f61067c565b90506103c08185856103b185896105f5565b6103bb9190610edc565b610684565b600191505092915050565b6103f4336103d761038b565b600a6103e39190611065565b60646103ef91906110b0565b61032f565b5061041f838361040261038b565b600a61040e9190611065565b606461041a91906110b0565b61035c565b507f9f15e8a2170a518fa1abdeefd61dd836767e4269378bcd151dee52f5d2f94c0282824261044c61038b565b600a6104589190611065565b606461046491906110b0565b6040516104749493929190611119565b60405180910390a1505050565b60008060008373ffffffffffffffffffffffffffffffffffffffff1673ffffffffffffffffffffffffffffffffffffffff168152602001908152602001600020549050919050565b6060600480546104d890610e7c565b80601f016020809104026020016040519081016040528092919081815260200182805461050490610e7c565b80156105515780601f1061052657610100808354040283529160200191610551565b820191906000526020600020905b81548152906001019060200180831161053457829003601f168201915b5050505050905090565b60008061056661067c565b9050600061057482866105f5565b9050838110156105b9576040517f08c379a00000000000000000000000000000000000000000000000000000000081526004016105b0906111d0565b60405180910390fd5b6105c68286868403610684565b60019250505092915050565b6000806105dd61067c565b90506105ea8185856108d9565b600191505092915050565b6000600160008473ffffffffffffffffffffffffffffffffffffffff1673ffffffffffffffffffffffffffffffffffffffff16815260200190815260200160002060008373ffffffffffffffffffffffffffffffffffffffff1673ffffffffffffffffffffffffffffffffffffffff16815260200190815260200160002054905092915050565b600033905090565b600073ffffffffffffffffffffffffffffffffffffffff168373ffffffffffffffffffffffffffffffffffffffff16036106f3576040517f08c379a00000000000000000000000000000000000000000000000000000000081526004016106ea90611262565b60405180910390fd5b600073ffffffffffffffffffffffffffffffffffffffff168273ffffffffffffffffffffffffffffffffffffffff1603610762576040517f08c379a0000000000000000000000000000000000000000000000000000000008152600401610759906112f4565b60405180910390fd5b80600160008573ffffffffffffffffffffffffffffffffffffffff1673ffffffffffffffffffffffffffffffffffffffff16815260200190815260200160002060008473ffffffffffffffffffffffffffffffffffffffff1673ffffffffffffffffffffffffffffffffffffffff168152602001908152602001600020819055508173ffffffffffffffffffffffffffffffffffffffff168373ffffffffffffffffffffffffffffffffffffffff167f8c5be1e5ebec7d5bd14f71427d1e84f3dd0314c0f7b2291e5b200ac8c7c3b925836040516108409190610d3b565b60405180910390a3505050565b600061085984846105f5565b90507fffffffffffffffffffffffffffffffffffffffffffffffffffffffffffffffff81146108d357818110156108c5576040517f08c379a00000000000000000000000000000000000000000000000000000000081526004016108bc90611360565b60405180910390fd5b6108d28484848403610684565b5b50505050565b600073ffffffffffffffffffffffffffffffffffffffff168373ffffffffffffffffffffffffffffffffffffffff1603610948576040517f08c379a000000000000000000000000000000000000000000000000000000000815260040161093f906113f2565b60405180910390fd5b600073ffffffffffffffffffffffffffffffffffffffff168273ffffffffffffffffffffffffffffffffffffffff16036109b7576040517f08c379a00000000000000000000000000000000000000000000000000000000081526004016109ae90611484565b60405180910390fd5b6109c2838383610b58565b60008060008573ffffffffffffffffffffffffffffffffffffffff1673ffffffffffffffffffffffffffffffffffffffff16815260200190815260200160002054905081811015610a48576040517f08c379a0000000000000000000000000000000000000000000000000000000008152600401610a3f90611516565b60405180910390fd5b8181036000808673ffffffffffffffffffffffffffffffffffffffff1673ffffffffffffffffffffffffffffffffffffffff16815260200190815260200160002081905550816000808573ffffffffffffffffffffffffffffffffffffffff1673ffffffffffffffffffffffffffffffffffffffff1681526020019081526020016000206000828254610adb9190610edc565b925050819055508273ffffffffffffffffffffffffffffffffffffffff168473ffffffffffffffffffffffffffffffffffffffff167fddf252ad1be2c89b69c2b068fc378daa952ba7f163c4a11628f55a4df523b3ef84604051610b3f9190610d3b565b60405180910390a3610b52848484610b5d565b50505050565b505050565b505050565b600081519050919050565b600082825260208201905092915050565b60005b83811015610b9c578082015181840152602081019050610b81565b83811115610bab576000848401525b50505050565b6000601f19601f8301169050919050565b6000610bcd82610b62565b610bd78185610b6d565b9350610be7818560208601610b7e565b610bf081610bb1565b840191505092915050565b60006020820190508181036000830152610c158184610bc2565b905092915050565b600080fd5b600073ffffffffffffffffffffffffffffffffffffffff82169050919050565b6000610c4d82610c22565b9050919050565b610c5d81610c42565b8114610c6857600080fd5b50565b600081359050610c7a81610c54565b92915050565b6000819050919050565b610c9381610c80565b8114610c9e57600080fd5b50565b600081359050610cb081610c8a565b92915050565b60008060408385031215610ccd57610ccc610c1d565b5b6000610cdb85828601610c6b565b9250506020610cec85828601610ca1565b9150509250929050565b60008115159050919050565b610d0b81610cf6565b82525050565b6000602082019050610d266000830184610d02565b92915050565b610d3581610c80565b82525050565b6000602082019050610d506000830184610d2c565b92915050565b600080600060608486031215610d6f57610d6e610c1d565b5b6000610d7d86828701610c6b565b9350506020610d8e86828701610c6b565b9250506040610d9f86828701610ca1565b9150509250925092565b600060ff82169050919050565b610dbf81610da9565b82525050565b6000602082019050610dda6000830184610db6565b92915050565b600060208284031215610df657610df5610c1d565b5b6000610e0484828501610c6b565b91505092915050565b60008060408385031215610e2457610e23610c1d565b5b6000610e3285828601610c6b565b9250506020610e4385828601610c6b565b9150509250929050565b7f4e487b7100000000000000000000000000000000000000000000000000000000600052602260045260246000fd5b60006002820490506001821680610e9457607f821691505b602082108103610ea757610ea6610e4d565b5b50919050565b7f4e487b7100000000000000000000000000000000000000000000000000000000600052601160045260246000fd5b6000610ee782610c80565b9150610ef283610c80565b9250827fffffffffffffffffffffffffffffffffffffffffffffffffffffffffffffffff03821115610f2757610f26610ead565b5b828201905092915050565b60008160011c9050919050565b6000808291508390505b6001851115610f8957808604811115610f6557610f64610ead565b5b6001851615610f745780820291505b8081029050610f8285610f32565b9450610f49565b94509492505050565b600082610fa2576001905061105e565b81610fb0576000905061105e565b8160018114610fc65760028114610fd057610fff565b600191505061105e565b60ff841115610fe257610fe1610ead565b5b8360020a915084821115610ff957610ff8610ead565b5b5061105e565b5060208310610133831016604e8410600b84101617156110345782820a90508381111561102f5761102e610ead565b5b61105e565b6110418484846001610f3f565b9250905081840481111561105857611057610ead565b5b81810290505b9392505050565b600061107082610c80565b915061107b83610da9565b92506110a87fffffffffffffffffffffffffffffffffffffffffffffffffffffffffffffffff8484610f92565b905092915050565b60006110bb82610c80565b91506110c683610c80565b9250817fffffffffffffffffffffffffffffffffffffffffffffffffffffffffffffffff04831182151516156110ff576110fe610ead565b5b828202905092915050565b61111381610c42565b82525050565b600060808201905061112e600083018761110a565b61113b6020830186610d2c565b6111486040830185610d2c565b6111556060830184610d2c565b95945050505050565b7f45524332303a2064656372656173656420616c6c6f77616e63652062656c6f7760008201527f207a65726f000000000000000000000000000000000000000000000000000000602082015250565b60006111ba602583610b6d565b91506111c58261115e565b604082019050919050565b600060208201905081810360008301526111e9816111ad565b9050919050565b7f45524332303a20617070726f76652066726f6d20746865207a65726f2061646460008201527f7265737300000000000000000000000000000000000000000000000000000000602082015250565b600061124c602483610b6d565b9150611257826111f0565b604082019050919050565b6000602082019050818103600083015261127b8161123f565b9050919050565b7f45524332303a20617070726f766520746f20746865207a65726f20616464726560008201527f7373000000000000000000000000000000000000000000000000000000000000602082015250565b60006112de602283610b6d565b91506112e982611282565b604082019050919050565b6000602082019050818103600083015261130d816112d1565b9050919050565b7f45524332303a20696e73756666696369656e7420616c6c6f77616e6365000000600082015250565b600061134a601d83610b6d565b915061135582611314565b602082019050919050565b600060208201905081810360008301526113798161133d565b9050919050565b7f45524332303a207472616e736665722066726f6d20746865207a65726f20616460008201527f6472657373000000000000000000000000000000000000000000000000000000602082015250565b60006113dc602583610b6d565b91506113e782611380565b604082019050919050565b6000602082019050818103600083015261140b816113cf565b9050919050565b7f45524332303a207472616e7366657220746f20746865207a65726f206164647260008201527f6573730000000000000000000000000000000000000000000000000000000000602082015250565b600061146e602383610b6d565b915061147982611412565b604082019050919050565b6000602082019050818103600083015261149d81611461565b9050919050565b7f45524332303a207472616e7366657220616d6f756e742065786365656473206260008201527f616c616e63650000000000000000000000000000000000000000000000000000602082015250565b6000611500602683610b6d565b915061150b826114a4565b604082019050919050565b6000602082019050818103600083015261152f816114f3565b905091905056fea2646970667358221220384f79cdf272a4c4bc394c243494d6715b6f41b571033b9758da923dea54639464736f6c634300080e0033",
  "immutableReferences": {},
  "source": "// SPDX-License-Identifier: UNLICENSED\r\npragma solidity >=0.6.0 <0.9.0;\r\n\r\nimport \"@openzeppelin/contracts/utils/math/SafeMath.sol\";\r\nimport \"@openzeppelin/contracts/token/ERC20/ERC20.sol\";\r\n\r\ncontract DStreamToken is ERC20 {\r\n  using SafeMath for uint256;\r\n\r\n  event StreamRewardLog(address user, uint videoId, uint date, uint amount);\r\n\r\n  constructor() ERC20(\"DStream Token\", \"DST\") {\r\n    _mint(msg.sender, 1000000 * 10 ** decimals());\r\n    _approve(msg.sender, address(this), 10 ** 18);\r\n  }\r\n\r\n  function sendAwards(address from, address to, uint videoId) public {\r\n    approve(msg.sender, 100 * 10 ** decimals());\r\n    transferFrom(from, to, 100 * 10 ** decimals());\r\n    emit StreamRewardLog(to, videoId, block.timestamp, 100 * 10 ** decimals());\r\n  }\r\n\r\n}\r\n",
  "sourcePath": "C:\\Workspace\\DStream\\backend\\contracts\\tokens\\DStreamToken.sol",
  "compiler": {
    "name": "solc",
    "version": "0.8.14+commit.80d49f37.Emscripten.clang"
  },
  "schemaVersion": "3.4.7",
  "updatedAt": "2022-06-30T01:28:45.146Z",
  "networkType": "ethereum",
  "devdoc": {
    "kind": "dev",
    "methods": {
      "allowance(address,address)": {
        "details": "See {IERC20-allowance}."
      },
      "approve(address,uint256)": {
        "details": "See {IERC20-approve}. NOTE: If `amount` is the maximum `uint256`, the allowance is not updated on `transferFrom`. This is semantically equivalent to an infinite approval. Requirements: - `spender` cannot be the zero address."
      },
      "balanceOf(address)": {
        "details": "See {IERC20-balanceOf}."
      },
      "decimals()": {
        "details": "Returns the number of decimals used to get its user representation. For example, if `decimals` equals `2`, a balance of `505` tokens should be displayed to a user as `5.05` (`505 / 10 ** 2`). Tokens usually opt for a value of 18, imitating the relationship between Ether and Wei. This is the value {ERC20} uses, unless this function is overridden; NOTE: This information is only used for _display_ purposes: it in no way affects any of the arithmetic of the contract, including {IERC20-balanceOf} and {IERC20-transfer}."
      },
      "decreaseAllowance(address,uint256)": {
        "details": "Atomically decreases the allowance granted to `spender` by the caller. This is an alternative to {approve} that can be used as a mitigation for problems described in {IERC20-approve}. Emits an {Approval} event indicating the updated allowance. Requirements: - `spender` cannot be the zero address. - `spender` must have allowance for the caller of at least `subtractedValue`."
      },
      "increaseAllowance(address,uint256)": {
        "details": "Atomically increases the allowance granted to `spender` by the caller. This is an alternative to {approve} that can be used as a mitigation for problems described in {IERC20-approve}. Emits an {Approval} event indicating the updated allowance. Requirements: - `spender` cannot be the zero address."
      },
      "name()": {
        "details": "Returns the name of the token."
      },
      "symbol()": {
        "details": "Returns the symbol of the token, usually a shorter version of the name."
      },
      "totalSupply()": {
        "details": "See {IERC20-totalSupply}."
      },
      "transfer(address,uint256)": {
        "details": "See {IERC20-transfer}. Requirements: - `to` cannot be the zero address. - the caller must have a balance of at least `amount`."
      },
      "transferFrom(address,address,uint256)": {
        "details": "See {IERC20-transferFrom}. Emits an {Approval} event indicating the updated allowance. This is not required by the EIP. See the note at the beginning of {ERC20}. NOTE: Does not update the allowance if the current allowance is the maximum `uint256`. Requirements: - `from` and `to` cannot be the zero address. - `from` must have a balance of at least `amount`. - the caller must have allowance for ``from``'s tokens of at least `amount`."
      }
    },
    "version": 1
  },
  "userdoc": {
    "kind": "user",
    "methods": {},
    "version": 1
  }
}