{
  "contractName": "DStreamInvestNFT",
  "abi": [
    {
      "inputs": [],
      "stateMutability": "nonpayable",
      "type": "constructor"
    },
    {
      "anonymous": false,
      "inputs": [
        {
          "indexed": true,
          "internalType": "address",
          "name": "owner",
          "type": "address"
        },
        {
          "indexed": true,
          "internalType": "address",
          "name": "approved",
          "type": "address"
        },
        {
          "indexed": true,
          "internalType": "uint256",
          "name": "tokenId",
          "type": "uint256"
        }
      ],
      "name": "Approval",
      "type": "event"
    },
    {
      "anonymous": false,
      "inputs": [
        {
          "indexed": true,
          "internalType": "address",
          "name": "owner",
          "type": "address"
        },
        {
          "indexed": true,
          "internalType": "address",
          "name": "operator",
          "type": "address"
        },
        {
          "indexed": false,
          "internalType": "bool",
          "name": "approved",
          "type": "bool"
        }
      ],
      "name": "ApprovalForAll",
      "type": "event"
    },
    {
      "anonymous": false,
      "inputs": [
        {
          "indexed": false,
          "internalType": "uint256",
          "name": "tokenId",
          "type": "uint256"
        },
        {
          "indexed": false,
          "internalType": "uint256",
          "name": "projectId",
          "type": "uint256"
        },
        {
          "indexed": false,
          "internalType": "uint256",
          "name": "projectInvestorsRewardsShare",
          "type": "uint256"
        },
        {
          "indexed": false,
          "internalType": "address",
          "name": "owner",
          "type": "address"
        }
      ],
      "name": "DInvestNFTCreated",
      "type": "event"
    },
    {
      "anonymous": false,
      "inputs": [
        {
          "indexed": false,
          "internalType": "uint256",
          "name": "tokenId",
          "type": "uint256"
        },
        {
          "indexed": false,
          "internalType": "address",
          "name": "newOwner",
          "type": "address"
        }
      ],
      "name": "OwnerChanged",
      "type": "event"
    },
    {
      "anonymous": false,
      "inputs": [
        {
          "indexed": true,
          "internalType": "address",
          "name": "from",
          "type": "address"
        },
        {
          "indexed": true,
          "internalType": "address",
          "name": "to",
          "type": "address"
        },
        {
          "indexed": true,
          "internalType": "uint256",
          "name": "tokenId",
          "type": "uint256"
        }
      ],
      "name": "Transfer",
      "type": "event"
    },
    {
      "inputs": [
        {
          "internalType": "address",
          "name": "to",
          "type": "address"
        },
        {
          "internalType": "uint256",
          "name": "tokenId",
          "type": "uint256"
        }
      ],
      "name": "approve",
      "outputs": [],
      "stateMutability": "nonpayable",
      "type": "function"
    },
    {
      "inputs": [
        {
          "internalType": "address",
          "name": "owner",
          "type": "address"
        }
      ],
      "name": "balanceOf",
      "outputs": [
        {
          "internalType": "uint256",
          "name": "",
          "type": "uint256"
        }
      ],
      "stateMutability": "view",
      "type": "function",
      "constant": true
    },
    {
      "inputs": [],
      "name": "decimals",
      "outputs": [
        {
          "internalType": "uint256",
          "name": "",
          "type": "uint256"
        }
      ],
      "stateMutability": "view",
      "type": "function",
      "constant": true
    },
    {
      "inputs": [
        {
          "internalType": "uint256",
          "name": "tokenId",
          "type": "uint256"
        }
      ],
      "name": "getApproved",
      "outputs": [
        {
          "internalType": "address",
          "name": "",
          "type": "address"
        }
      ],
      "stateMutability": "view",
      "type": "function",
      "constant": true
    },
    {
      "inputs": [
        {
          "internalType": "address",
          "name": "owner",
          "type": "address"
        },
        {
          "internalType": "address",
          "name": "operator",
          "type": "address"
        }
      ],
      "name": "isApprovedForAll",
      "outputs": [
        {
          "internalType": "bool",
          "name": "",
          "type": "bool"
        }
      ],
      "stateMutability": "view",
      "type": "function",
      "constant": true
    },
    {
      "inputs": [],
      "name": "name",
      "outputs": [
        {
          "internalType": "string",
          "name": "",
          "type": "string"
        }
      ],
      "stateMutability": "view",
      "type": "function",
      "constant": true
    },
    {
      "inputs": [
        {
          "internalType": "uint256",
          "name": "tokenId",
          "type": "uint256"
        }
      ],
      "name": "ownerOf",
      "outputs": [
        {
          "internalType": "address",
          "name": "",
          "type": "address"
        }
      ],
      "stateMutability": "view",
      "type": "function",
      "constant": true
    },
    {
      "inputs": [
        {
          "internalType": "address",
          "name": "from",
          "type": "address"
        },
        {
          "internalType": "address",
          "name": "to",
          "type": "address"
        },
        {
          "internalType": "uint256",
          "name": "tokenId",
          "type": "uint256"
        }
      ],
      "name": "safeTransferFrom",
      "outputs": [],
      "stateMutability": "nonpayable",
      "type": "function"
    },
    {
      "inputs": [
        {
          "internalType": "address",
          "name": "from",
          "type": "address"
        },
        {
          "internalType": "address",
          "name": "to",
          "type": "address"
        },
        {
          "internalType": "uint256",
          "name": "tokenId",
          "type": "uint256"
        },
        {
          "internalType": "bytes",
          "name": "_data",
          "type": "bytes"
        }
      ],
      "name": "safeTransferFrom",
      "outputs": [],
      "stateMutability": "nonpayable",
      "type": "function"
    },
    {
      "inputs": [
        {
          "internalType": "address",
          "name": "operator",
          "type": "address"
        },
        {
          "internalType": "bool",
          "name": "approved",
          "type": "bool"
        }
      ],
      "name": "setApprovalForAll",
      "outputs": [],
      "stateMutability": "nonpayable",
      "type": "function"
    },
    {
      "inputs": [
        {
          "internalType": "uint256",
          "name": "",
          "type": "uint256"
        }
      ],
      "name": "sharesByTokenId",
      "outputs": [
        {
          "internalType": "uint256",
          "name": "tokenId",
          "type": "uint256"
        },
        {
          "internalType": "uint256",
          "name": "projectId",
          "type": "uint256"
        },
        {
          "internalType": "uint256",
          "name": "projectInvestorsRewardsShare",
          "type": "uint256"
        },
        {
          "internalType": "address",
          "name": "owner",
          "type": "address"
        }
      ],
      "stateMutability": "view",
      "type": "function",
      "constant": true
    },
    {
      "inputs": [
        {
          "internalType": "bytes4",
          "name": "interfaceId",
          "type": "bytes4"
        }
      ],
      "name": "supportsInterface",
      "outputs": [
        {
          "internalType": "bool",
          "name": "",
          "type": "bool"
        }
      ],
      "stateMutability": "view",
      "type": "function",
      "constant": true
    },
    {
      "inputs": [],
      "name": "symbol",
      "outputs": [
        {
          "internalType": "string",
          "name": "",
          "type": "string"
        }
      ],
      "stateMutability": "view",
      "type": "function",
      "constant": true
    },
    {
      "inputs": [
        {
          "internalType": "uint256",
          "name": "tokenId",
          "type": "uint256"
        }
      ],
      "name": "tokenURI",
      "outputs": [
        {
          "internalType": "string",
          "name": "",
          "type": "string"
        }
      ],
      "stateMutability": "view",
      "type": "function",
      "constant": true
    },
    {
      "inputs": [],
      "name": "tokensCount",
      "outputs": [
        {
          "internalType": "uint256",
          "name": "",
          "type": "uint256"
        }
      ],
      "stateMutability": "view",
      "type": "function",
      "constant": true
    },
    {
      "inputs": [
        {
          "internalType": "address",
          "name": "from",
          "type": "address"
        },
        {
          "internalType": "address",
          "name": "to",
          "type": "address"
        },
        {
          "internalType": "uint256",
          "name": "tokenId",
          "type": "uint256"
        }
      ],
      "name": "transferFrom",
      "outputs": [],
      "stateMutability": "nonpayable",
      "type": "function"
    },
    {
      "inputs": [
        {
          "internalType": "address",
          "name": "to",
          "type": "address"
        },
        {
          "internalType": "uint256",
          "name": "projectId",
          "type": "uint256"
        },
        {
          "internalType": "uint256",
          "name": "contributions",
          "type": "uint256"
        },
        {
          "internalType": "uint256",
          "name": "total",
          "type": "uint256"
        }
      ],
      "name": "safeMint",
      "outputs": [],
      "stateMutability": "nonpayable",
      "type": "function"
    }
  ],
  "bytecode": "0x6080604052600c6009553480156200001657600080fd5b506040518060400160405280601281526020017f4453747265616d20496e76657374204e465400000000000000000000000000008152506040518060400160405280600a81526020017f44496e766573744e46540000000000000000000000000000000000000000000081525081600090805190602001906200009b929190620000bd565b508060019080519060200190620000b4929190620000bd565b505050620001d1565b828054620000cb906200019c565b90600052602060002090601f016020900481019282620000ef57600085556200013b565b82601f106200010a57805160ff19168380011785556200013b565b828001600101855582156200013b579182015b828111156200013a5782518255916020019190600101906200011d565b5b5090506200014a91906200014e565b5090565b5b80821115620001695760008160009055506001016200014f565b5090565b7f4e487b7100000000000000000000000000000000000000000000000000000000600052602260045260246000fd5b60006002820490506001821680620001b557607f821691505b602082108103620001cb57620001ca6200016d565b5b50919050565b612e0080620001e16000396000f3fe608060405234801561001057600080fd5b506004361061010b5760003560e01c806370a08231116100a2578063a64ed8ba11610071578063a64ed8ba146102cd578063b88d4fde146102eb578063c87b56dd14610307578063e985e9c514610337578063faa07ec1146103675761010b565b806370a08231146102305780637a399d8a1461026057806395d89b4114610293578063a22cb465146102b15761010b565b806323b872dd116100de57806323b872dd146101aa578063313ce567146101c657806342842e0e146101e45780636352211e146102005761010b565b806301ffc9a71461011057806306fdde0314610140578063081812fc1461015e578063095ea7b31461018e575b600080fd5b61012a60048036038101906101259190611ad8565b610383565b6040516101379190611b20565b60405180910390f35b610148610465565b6040516101559190611bd4565b60405180910390f35b61017860048036038101906101739190611c2c565b6104f7565b6040516101859190611c9a565b60405180910390f35b6101a860048036038101906101a39190611ce1565b61057c565b005b6101c460048036038101906101bf9190611d21565b610693565b005b6101ce6106f3565b6040516101db9190611d83565b60405180910390f35b6101fe60048036038101906101f99190611d21565b6106f9565b005b61021a60048036038101906102159190611c2c565b610719565b6040516102279190611c9a565b60405180910390f35b61024a60048036038101906102459190611d9e565b6107ca565b6040516102579190611d83565b60405180910390f35b61027a60048036038101906102759190611c2c565b610881565b60405161028a9493929190611dcb565b60405180910390f35b61029b6108d1565b6040516102a89190611bd4565b60405180910390f35b6102cb60048036038101906102c69190611e3c565b610963565b005b6102d5610979565b6040516102e29190611d83565b60405180910390f35b61030560048036038101906103009190611fb1565b61097f565b005b610321600480360381019061031c9190611c2c565b6109e1565b60405161032e9190611bd4565b60405180910390f35b610351600480360381019061034c9190612034565b610a88565b60405161035e9190611b20565b60405180910390f35b610381600480360381019061037c9190612074565b610b1c565b005b60007f80ac58cd000000000000000000000000000000000000000000000000000000007bffffffffffffffffffffffffffffffffffffffffffffffffffffffff1916827bffffffffffffffffffffffffffffffffffffffffffffffffffffffff1916148061044e57507f5b5e139f000000000000000000000000000000000000000000000000000000007bffffffffffffffffffffffffffffffffffffffffffffffffffffffff1916827bffffffffffffffffffffffffffffffffffffffffffffffffffffffff1916145b8061045e575061045d82610cbd565b5b9050919050565b6060600080546104749061210a565b80601f01602080910402602001604051908101604052809291908181526020018280546104a09061210a565b80156104ed5780601f106104c2576101008083540402835291602001916104ed565b820191906000526020600020905b8154815290600101906020018083116104d057829003601f168201915b5050505050905090565b600061050282610d27565b610541576040517f08c379a0000000000000000000000000000000000000000000000000000000008152600401610538906121ad565b60405180910390fd5b6004600083815260200190815260200160002060009054906101000a900473ffffffffffffffffffffffffffffffffffffffff169050919050565b600061058782610719565b90508073ffffffffffffffffffffffffffffffffffffffff168373ffffffffffffffffffffffffffffffffffffffff16036105f7576040517f08c379a00000000000000000000000000000000000000000000000000000000081526004016105ee9061223f565b60405180910390fd5b8073ffffffffffffffffffffffffffffffffffffffff16610616610d93565b73ffffffffffffffffffffffffffffffffffffffff16148061064557506106448161063f610d93565b610a88565b5b610684576040517f08c379a000000000000000000000000000000000000000000000000000000000815260040161067b906122d1565b60405180910390fd5b61068e8383610d9b565b505050565b6106a461069e610d93565b82610e54565b6106e3576040517f08c379a00000000000000000000000000000000000000000000000000000000081526004016106da90612363565b60405180910390fd5b6106ee838383610f32565b505050565b60095481565b6107148383836040518060200160405280600081525061097f565b505050565b6000806002600084815260200190815260200160002060009054906101000a900473ffffffffffffffffffffffffffffffffffffffff169050600073ffffffffffffffffffffffffffffffffffffffff168173ffffffffffffffffffffffffffffffffffffffff16036107c1576040517f08c379a00000000000000000000000000000000000000000000000000000000081526004016107b8906123f5565b60405180910390fd5b80915050919050565b60008073ffffffffffffffffffffffffffffffffffffffff168273ffffffffffffffffffffffffffffffffffffffff160361083a576040517f08c379a000000000000000000000000000000000000000000000000000000000815260040161083190612487565b60405180910390fd5b600360008373ffffffffffffffffffffffffffffffffffffffff1673ffffffffffffffffffffffffffffffffffffffff168152602001908152602001600020549050919050565b60066020528060005260406000206000915090508060000154908060010154908060020154908060030160009054906101000a900473ffffffffffffffffffffffffffffffffffffffff16905084565b6060600180546108e09061210a565b80601f016020809104026020016040519081016040528092919081815260200182805461090c9061210a565b80156109595780601f1061092e57610100808354040283529160200191610959565b820191906000526020600020905b81548152906001019060200180831161093c57829003601f168201915b5050505050905090565b61097561096e610d93565b8383611198565b5050565b600a5481565b61099061098a610d93565b83610e54565b6109cf576040517f08c379a00000000000000000000000000000000000000000000000000000000081526004016109c690612363565b60405180910390fd5b6109db84848484611304565b50505050565b60606109ec82610d27565b610a2b576040517f08c379a0000000000000000000000000000000000000000000000000000000008152600401610a2290612519565b60405180910390fd5b6000610a35611360565b90506000815111610a555760405180602001604052806000815250610a80565b80610a5f84611377565b604051602001610a70929190612575565b6040516020818303038152906040525b915050919050565b6000600560008473ffffffffffffffffffffffffffffffffffffffff1673ffffffffffffffffffffffffffffffffffffffff16815260200190815260200160002060008373ffffffffffffffffffffffffffffffffffffffff1673ffffffffffffffffffffffffffffffffffffffff16815260200190815260200160002060009054906101000a900460ff16905092915050565b610b326001600a546114d790919063ffffffff16565b600a81905550610b4484600a546114ed565b6000610b50838361150b565b90506040518060800160405280600a5481526020018581526020018281526020018673ffffffffffffffffffffffffffffffffffffffff1681525060066000600a54815260200190815260200160002060008201518160000155602082015181600101556040820151816002015560608201518160030160006101000a81548173ffffffffffffffffffffffffffffffffffffffff021916908373ffffffffffffffffffffffffffffffffffffffff1602179055509050506000610c31600160076000888152602001908152602001600020546114d790919063ffffffff16565b9050806007600087815260200190815260200160002081905550600a54600860008781526020019081526020016000206000838152602001908152602001600020819055507f991f6ff29ae1bd8986cfd884a1dd930828bf3ffce7e60cdd7a43d802fdef32c6600a54868489604051610cad9493929190611dcb565b60405180910390a1505050505050565b60007f01ffc9a7000000000000000000000000000000000000000000000000000000007bffffffffffffffffffffffffffffffffffffffffffffffffffffffff1916827bffffffffffffffffffffffffffffffffffffffffffffffffffffffff1916149050919050565b60008073ffffffffffffffffffffffffffffffffffffffff166002600084815260200190815260200160002060009054906101000a900473ffffffffffffffffffffffffffffffffffffffff1673ffffffffffffffffffffffffffffffffffffffff1614159050919050565b600033905090565b816004600083815260200190815260200160002060006101000a81548173ffffffffffffffffffffffffffffffffffffffff021916908373ffffffffffffffffffffffffffffffffffffffff160217905550808273ffffffffffffffffffffffffffffffffffffffff16610e0e83610719565b73ffffffffffffffffffffffffffffffffffffffff167f8c5be1e5ebec7d5bd14f71427d1e84f3dd0314c0f7b2291e5b200ac8c7c3b92560405160405180910390a45050565b6000610e5f82610d27565b610e9e576040517f08c379a0000000000000000000000000000000000000000000000000000000008152600401610e959061260b565b60405180910390fd5b6000610ea983610719565b90508073ffffffffffffffffffffffffffffffffffffffff168473ffffffffffffffffffffffffffffffffffffffff161480610eeb5750610eea8185610a88565b5b80610f2957508373ffffffffffffffffffffffffffffffffffffffff16610f11846104f7565b73ffffffffffffffffffffffffffffffffffffffff16145b91505092915050565b8273ffffffffffffffffffffffffffffffffffffffff16610f5282610719565b73ffffffffffffffffffffffffffffffffffffffff1614610fa8576040517f08c379a0000000000000000000000000000000000000000000000000000000008152600401610f9f9061269d565b60405180910390fd5b600073ffffffffffffffffffffffffffffffffffffffff168273ffffffffffffffffffffffffffffffffffffffff1603611017576040517f08c379a000000000000000000000000000000000000000000000000000000000815260040161100e9061272f565b60405180910390fd5b611022838383611541565b61102d600082610d9b565b6001600360008573ffffffffffffffffffffffffffffffffffffffff1673ffffffffffffffffffffffffffffffffffffffff168152602001908152602001600020600082825461107d919061277e565b925050819055506001600360008473ffffffffffffffffffffffffffffffffffffffff1673ffffffffffffffffffffffffffffffffffffffff16815260200190815260200160002060008282546110d491906127b2565b92505081905550816002600083815260200190815260200160002060006101000a81548173ffffffffffffffffffffffffffffffffffffffff021916908373ffffffffffffffffffffffffffffffffffffffff160217905550808273ffffffffffffffffffffffffffffffffffffffff168473ffffffffffffffffffffffffffffffffffffffff167fddf252ad1be2c89b69c2b068fc378daa952ba7f163c4a11628f55a4df523b3ef60405160405180910390a4611193838383611546565b505050565b8173ffffffffffffffffffffffffffffffffffffffff168373ffffffffffffffffffffffffffffffffffffffff1603611206576040517f08c379a00000000000000000000000000000000000000000000000000000000081526004016111fd90612854565b60405180910390fd5b80600560008573ffffffffffffffffffffffffffffffffffffffff1673ffffffffffffffffffffffffffffffffffffffff16815260200190815260200160002060008473ffffffffffffffffffffffffffffffffffffffff1673ffffffffffffffffffffffffffffffffffffffff16815260200190815260200160002060006101000a81548160ff0219169083151502179055508173ffffffffffffffffffffffffffffffffffffffff168373ffffffffffffffffffffffffffffffffffffffff167f17307eab39ab6107e8899845ad3d59bd9653f200f220920489ca2b5937696c31836040516112f79190611b20565b60405180910390a3505050565b61130f848484610f32565b61131b84848484611673565b61135a576040517f08c379a0000000000000000000000000000000000000000000000000000000008152600401611351906128e6565b60405180910390fd5b50505050565b606060405180602001604052806000815250905090565b6060600082036113be576040518060400160405280600181526020017f300000000000000000000000000000000000000000000000000000000000000081525090506114d2565b600082905060005b600082146113f05780806113d990612906565b915050600a826113e9919061297d565b91506113c6565b60008167ffffffffffffffff81111561140c5761140b611e86565b5b6040519080825280601f01601f19166020018201604052801561143e5781602001600182028036833780820191505090505b5090505b600085146114cb57600182611457919061277e565b9150600a8561146691906129ae565b603061147291906127b2565b60f81b818381518110611488576114876129df565b5b60200101907effffffffffffffffffffffffffffffffffffffffffffffffffffffffffffff1916908160001a905350600a856114c4919061297d565b9450611442565b8093505050505b919050565b600081836114e591906127b2565b905092915050565b6115078282604051806020016040528060008152506117fa565b5050565b60008161152f600954600a6115209190612b41565b8561185590919063ffffffff16565b611539919061297d565b905092915050565b505050565b61155183838361186b565b8173ffffffffffffffffffffffffffffffffffffffff166006600083815260200190815260200160002060030160009054906101000a900473ffffffffffffffffffffffffffffffffffffffff1673ffffffffffffffffffffffffffffffffffffffff16141580156115da57506000600660008381526020019081526020016000206002015414155b1561166e57816006600083815260200190815260200160002060030160006101000a81548173ffffffffffffffffffffffffffffffffffffffff021916908373ffffffffffffffffffffffffffffffffffffffff1602179055507f9c65bdcdf3baa5d433981546cddddb0c820aa405c7bd651375df9f19f02698768183604051611665929190612b8c565b60405180910390a15b505050565b60006116948473ffffffffffffffffffffffffffffffffffffffff16611870565b156117ed578373ffffffffffffffffffffffffffffffffffffffff1663150b7a026116bd610d93565b8786866040518563ffffffff1660e01b81526004016116df9493929190612c0a565b6020604051808303816000875af192505050801561171b57506040513d601f19601f820116820180604052508101906117189190612c6b565b60015b61179d573d806000811461174b576040519150601f19603f3d011682016040523d82523d6000602084013e611750565b606091505b506000815103611795576040517f08c379a000000000000000000000000000000000000000000000000000000000815260040161178c906128e6565b60405180910390fd5b805181602001fd5b63150b7a0260e01b7bffffffffffffffffffffffffffffffffffffffffffffffffffffffff1916817bffffffffffffffffffffffffffffffffffffffffffffffffffffffff1916149150506117f2565b600190505b949350505050565b6118048383611893565b6118116000848484611673565b611850576040517f08c379a0000000000000000000000000000000000000000000000000000000008152600401611847906128e6565b60405180910390fd5b505050565b600081836118639190612c98565b905092915050565b505050565b6000808273ffffffffffffffffffffffffffffffffffffffff163b119050919050565b600073ffffffffffffffffffffffffffffffffffffffff168273ffffffffffffffffffffffffffffffffffffffff1603611902576040517f08c379a00000000000000000000000000000000000000000000000000000000081526004016118f990612d3e565b60405180910390fd5b61190b81610d27565b1561194b576040517f08c379a000000000000000000000000000000000000000000000000000000000815260040161194290612daa565b60405180910390fd5b61195760008383611541565b6001600360008473ffffffffffffffffffffffffffffffffffffffff1673ffffffffffffffffffffffffffffffffffffffff16815260200190815260200160002060008282546119a791906127b2565b92505081905550816002600083815260200190815260200160002060006101000a81548173ffffffffffffffffffffffffffffffffffffffff021916908373ffffffffffffffffffffffffffffffffffffffff160217905550808273ffffffffffffffffffffffffffffffffffffffff16600073ffffffffffffffffffffffffffffffffffffffff167fddf252ad1be2c89b69c2b068fc378daa952ba7f163c4a11628f55a4df523b3ef60405160405180910390a4611a6860008383611546565b5050565b6000604051905090565b600080fd5b600080fd5b60007fffffffff0000000000000000000000000000000000000000000000000000000082169050919050565b611ab581611a80565b8114611ac057600080fd5b50565b600081359050611ad281611aac565b92915050565b600060208284031215611aee57611aed611a76565b5b6000611afc84828501611ac3565b91505092915050565b60008115159050919050565b611b1a81611b05565b82525050565b6000602082019050611b356000830184611b11565b92915050565b600081519050919050565b600082825260208201905092915050565b60005b83811015611b75578082015181840152602081019050611b5a565b83811115611b84576000848401525b50505050565b6000601f19601f8301169050919050565b6000611ba682611b3b565b611bb08185611b46565b9350611bc0818560208601611b57565b611bc981611b8a565b840191505092915050565b60006020820190508181036000830152611bee8184611b9b565b905092915050565b6000819050919050565b611c0981611bf6565b8114611c1457600080fd5b50565b600081359050611c2681611c00565b92915050565b600060208284031215611c4257611c41611a76565b5b6000611c5084828501611c17565b91505092915050565b600073ffffffffffffffffffffffffffffffffffffffff82169050919050565b6000611c8482611c59565b9050919050565b611c9481611c79565b82525050565b6000602082019050611caf6000830184611c8b565b92915050565b611cbe81611c79565b8114611cc957600080fd5b50565b600081359050611cdb81611cb5565b92915050565b60008060408385031215611cf857611cf7611a76565b5b6000611d0685828601611ccc565b9250506020611d1785828601611c17565b9150509250929050565b600080600060608486031215611d3a57611d39611a76565b5b6000611d4886828701611ccc565b9350506020611d5986828701611ccc565b9250506040611d6a86828701611c17565b9150509250925092565b611d7d81611bf6565b82525050565b6000602082019050611d986000830184611d74565b92915050565b600060208284031215611db457611db3611a76565b5b6000611dc284828501611ccc565b91505092915050565b6000608082019050611de06000830187611d74565b611ded6020830186611d74565b611dfa6040830185611d74565b611e076060830184611c8b565b95945050505050565b611e1981611b05565b8114611e2457600080fd5b50565b600081359050611e3681611e10565b92915050565b60008060408385031215611e5357611e52611a76565b5b6000611e6185828601611ccc565b9250506020611e7285828601611e27565b9150509250929050565b600080fd5b600080fd5b7f4e487b7100000000000000000000000000000000000000000000000000000000600052604160045260246000fd5b611ebe82611b8a565b810181811067ffffffffffffffff82111715611edd57611edc611e86565b5b80604052505050565b6000611ef0611a6c565b9050611efc8282611eb5565b919050565b600067ffffffffffffffff821115611f1c57611f1b611e86565b5b611f2582611b8a565b9050602081019050919050565b82818337600083830152505050565b6000611f54611f4f84611f01565b611ee6565b905082815260208101848484011115611f7057611f6f611e81565b5b611f7b848285611f32565b509392505050565b600082601f830112611f9857611f97611e7c565b5b8135611fa8848260208601611f41565b91505092915050565b60008060008060808587031215611fcb57611fca611a76565b5b6000611fd987828801611ccc565b9450506020611fea87828801611ccc565b9350506040611ffb87828801611c17565b925050606085013567ffffffffffffffff81111561201c5761201b611a7b565b5b61202887828801611f83565b91505092959194509250565b6000806040838503121561204b5761204a611a76565b5b600061205985828601611ccc565b925050602061206a85828601611ccc565b9150509250929050565b6000806000806080858703121561208e5761208d611a76565b5b600061209c87828801611ccc565b94505060206120ad87828801611c17565b93505060406120be87828801611c17565b92505060606120cf87828801611c17565b91505092959194509250565b7f4e487b7100000000000000000000000000000000000000000000000000000000600052602260045260246000fd5b6000600282049050600182168061212257607f821691505b602082108103612135576121346120db565b5b50919050565b7f4552433732313a20617070726f76656420717565727920666f72206e6f6e657860008201527f697374656e7420746f6b656e0000000000000000000000000000000000000000602082015250565b6000612197602c83611b46565b91506121a28261213b565b604082019050919050565b600060208201905081810360008301526121c68161218a565b9050919050565b7f4552433732313a20617070726f76616c20746f2063757272656e74206f776e6560008201527f7200000000000000000000000000000000000000000000000000000000000000602082015250565b6000612229602183611b46565b9150612234826121cd565b604082019050919050565b600060208201905081810360008301526122588161221c565b9050919050565b7f4552433732313a20617070726f76652063616c6c6572206973206e6f74206f7760008201527f6e6572206e6f7220617070726f76656420666f7220616c6c0000000000000000602082015250565b60006122bb603883611b46565b91506122c68261225f565b604082019050919050565b600060208201905081810360008301526122ea816122ae565b9050919050565b7f4552433732313a207472616e736665722063616c6c6572206973206e6f74206f60008201527f776e6572206e6f7220617070726f766564000000000000000000000000000000602082015250565b600061234d603183611b46565b9150612358826122f1565b604082019050919050565b6000602082019050818103600083015261237c81612340565b9050919050565b7f4552433732313a206f776e657220717565727920666f72206e6f6e657869737460008201527f656e7420746f6b656e0000000000000000000000000000000000000000000000602082015250565b60006123df602983611b46565b91506123ea82612383565b604082019050919050565b6000602082019050818103600083015261240e816123d2565b9050919050565b7f4552433732313a2062616c616e636520717565727920666f7220746865207a6560008201527f726f206164647265737300000000000000000000000000000000000000000000602082015250565b6000612471602a83611b46565b915061247c82612415565b604082019050919050565b600060208201905081810360008301526124a081612464565b9050919050565b7f4552433732314d657461646174613a2055524920717565727920666f72206e6f60008201527f6e6578697374656e7420746f6b656e0000000000000000000000000000000000602082015250565b6000612503602f83611b46565b915061250e826124a7565b604082019050919050565b60006020820190508181036000830152612532816124f6565b9050919050565b600081905092915050565b600061254f82611b3b565b6125598185612539565b9350612569818560208601611b57565b80840191505092915050565b60006125818285612544565b915061258d8284612544565b91508190509392505050565b7f4552433732313a206f70657261746f7220717565727920666f72206e6f6e657860008201527f697374656e7420746f6b656e0000000000000000000000000000000000000000602082015250565b60006125f5602c83611b46565b915061260082612599565b604082019050919050565b60006020820190508181036000830152612624816125e8565b9050919050565b7f4552433732313a207472616e736665722066726f6d20696e636f72726563742060008201527f6f776e6572000000000000000000000000000000000000000000000000000000602082015250565b6000612687602583611b46565b91506126928261262b565b604082019050919050565b600060208201905081810360008301526126b68161267a565b9050919050565b7f4552433732313a207472616e7366657220746f20746865207a65726f2061646460008201527f7265737300000000000000000000000000000000000000000000000000000000602082015250565b6000612719602483611b46565b9150612724826126bd565b604082019050919050565b600060208201905081810360008301526127488161270c565b9050919050565b7f4e487b7100000000000000000000000000000000000000000000000000000000600052601160045260246000fd5b600061278982611bf6565b915061279483611bf6565b9250828210156127a7576127a661274f565b5b828203905092915050565b60006127bd82611bf6565b91506127c883611bf6565b9250827fffffffffffffffffffffffffffffffffffffffffffffffffffffffffffffffff038211156127fd576127fc61274f565b5b828201905092915050565b7f4552433732313a20617070726f766520746f2063616c6c657200000000000000600082015250565b600061283e601983611b46565b915061284982612808565b602082019050919050565b6000602082019050818103600083015261286d81612831565b9050919050565b7f4552433732313a207472616e7366657220746f206e6f6e20455243373231526560008201527f63656976657220696d706c656d656e7465720000000000000000000000000000602082015250565b60006128d0603283611b46565b91506128db82612874565b604082019050919050565b600060208201905081810360008301526128ff816128c3565b9050919050565b600061291182611bf6565b91507fffffffffffffffffffffffffffffffffffffffffffffffffffffffffffffffff82036129435761294261274f565b5b600182019050919050565b7f4e487b7100000000000000000000000000000000000000000000000000000000600052601260045260246000fd5b600061298882611bf6565b915061299383611bf6565b9250826129a3576129a261294e565b5b828204905092915050565b60006129b982611bf6565b91506129c483611bf6565b9250826129d4576129d361294e565b5b828206905092915050565b7f4e487b7100000000000000000000000000000000000000000000000000000000600052603260045260246000fd5b60008160011c9050919050565b6000808291508390505b6001851115612a6557808604811115612a4157612a4061274f565b5b6001851615612a505780820291505b8081029050612a5e85612a0e565b9450612a25565b94509492505050565b600082612a7e5760019050612b3a565b81612a8c5760009050612b3a565b8160018114612aa25760028114612aac57612adb565b6001915050612b3a565b60ff841115612abe57612abd61274f565b5b8360020a915084821115612ad557612ad461274f565b5b50612b3a565b5060208310610133831016604e8410600b8410161715612b105782820a905083811115612b0b57612b0a61274f565b5b612b3a565b612b1d8484846001612a1b565b92509050818404811115612b3457612b3361274f565b5b81810290505b9392505050565b6000612b4c82611bf6565b9150612b5783611bf6565b9250612b847fffffffffffffffffffffffffffffffffffffffffffffffffffffffffffffffff8484612a6e565b905092915050565b6000604082019050612ba16000830185611d74565b612bae6020830184611c8b565b9392505050565b600081519050919050565b600082825260208201905092915050565b6000612bdc82612bb5565b612be68185612bc0565b9350612bf6818560208601611b57565b612bff81611b8a565b840191505092915050565b6000608082019050612c1f6000830187611c8b565b612c2c6020830186611c8b565b612c396040830185611d74565b8181036060830152612c4b8184612bd1565b905095945050505050565b600081519050612c6581611aac565b92915050565b600060208284031215612c8157612c80611a76565b5b6000612c8f84828501612c56565b91505092915050565b6000612ca382611bf6565b9150612cae83611bf6565b9250817fffffffffffffffffffffffffffffffffffffffffffffffffffffffffffffffff0483118215151615612ce757612ce661274f565b5b828202905092915050565b7f4552433732313a206d696e7420746f20746865207a65726f2061646472657373600082015250565b6000612d28602083611b46565b9150612d3382612cf2565b602082019050919050565b60006020820190508181036000830152612d5781612d1b565b9050919050565b7f4552433732313a20746f6b656e20616c7265616479206d696e74656400000000600082015250565b6000612d94601c83611b46565b9150612d9f82612d5e565b602082019050919050565b60006020820190508181036000830152612dc381612d87565b905091905056fea26469706673582212203f6ff2a09c126ccb12203c6cd91c0377c29f5813da5b9cda60621ae61b9531ed64736f6c634300080e0033",
  "immutableReferences": {},
  "source": "// SPDX-License-Identifier: UNLICENSED\r\npragma solidity >=0.6.0 <0.9.0;\r\n\r\nimport \"@openzeppelin/contracts/token/ERC721/ERC721.sol\";\r\nimport \"@openzeppelin/contracts/utils/math/SafeMath.sol\";\r\n\r\ncontract DStreamInvestNFT is ERC721 {\r\n  using SafeMath for uint256;\r\n\r\n  struct Metadata {\r\n    uint tokenId;\r\n    uint projectId;\r\n    uint projectInvestorsRewardsShare;\r\n    address owner;\r\n  }\r\n  mapping(uint => Metadata) public sharesByTokenId;\r\n  mapping(uint => uint) internal tokensTotalsByProjectId;\r\n  mapping(uint => mapping(uint => uint)) tokensIdsByProjectIdAndOrder;\r\n\r\n  uint public decimals = 12;\r\n  uint public tokensCount;\r\n\r\n  event DInvestNFTCreated(\r\n    uint tokenId,\r\n    uint projectId,\r\n    uint projectInvestorsRewardsShare,\r\n    address owner\r\n  );\r\n\r\n  event OwnerChanged(\r\n    uint tokenId, \r\n    address newOwner\r\n  );\r\n\r\n  constructor() ERC721(\"DStream Invest NFT\", \"DInvestNFT\") {}\r\n\r\n  \r\n  function _getPercentage(uint low, uint high) private view returns (uint) {\r\n    // max contributions in millions (10 ** 6); therefore, max decimal in this calculating 10 ** 18 (6 + 12)\r\n    // decimals (12) is precision, example: 478965654123 = 47,8965654123 %\r\n    return low.mul(10 ** decimals) / high;\r\n  }\r\n\r\n  function safeMint(\r\n    address to, uint projectId, uint contributions , uint total \r\n  ) external {\r\n    // require(msg.sender == address(0xb6477cbDB30a05Fb453f5eeE6004b7D08b5daF43));\r\n    tokensCount = tokensCount.add(1);\r\n    _safeMint(to, tokensCount);\r\n\r\n    uint share = _getPercentage(contributions, total);\r\n    sharesByTokenId[tokensCount] = Metadata(\r\n      tokensCount, projectId, share, to\r\n    );\r\n\r\n    uint newTokensTotalPerProject = tokensTotalsByProjectId[\r\n      projectId\r\n    ].add(1);\r\n\r\n    tokensTotalsByProjectId[projectId] = newTokensTotalPerProject;\r\n    tokensIdsByProjectIdAndOrder[projectId][newTokensTotalPerProject] = tokensCount;\r\n\r\n    emit DInvestNFTCreated(\r\n      tokensCount, projectId, share, to\r\n    );\r\n  }\r\n\r\n  // Hook\r\n  function _afterTokenTransfer(address from, address to, uint256 tokenId)\r\n    internal virtual override\r\n  {\r\n    super._afterTokenTransfer(from, to, tokenId);\r\n    if (\r\n      (sharesByTokenId[tokenId].owner != to) && \r\n      (sharesByTokenId[tokenId].projectInvestorsRewardsShare != 0)\r\n      ) {\r\n      sharesByTokenId[tokenId].owner = to;\r\n      emit OwnerChanged(tokenId, to);\r\n    }\r\n  }\r\n\r\n}\r\n",
  "sourcePath": "C:\\Workspace\\DStream\\backend\\contracts\\tokens\\DStreamInvestNFT.sol",
  "compiler": {
    "name": "solc",
    "version": "0.8.14+commit.80d49f37.Emscripten.clang"
  },
  "schemaVersion": "3.4.7",
  "updatedAt": "2022-06-29T15:10:30.969Z",
  "networkType": "ethereum",
  "devdoc": {
    "kind": "dev",
    "methods": {
      "approve(address,uint256)": {
        "details": "See {IERC721-approve}."
      },
      "balanceOf(address)": {
        "details": "See {IERC721-balanceOf}."
      },
      "getApproved(uint256)": {
        "details": "See {IERC721-getApproved}."
      },
      "isApprovedForAll(address,address)": {
        "details": "See {IERC721-isApprovedForAll}."
      },
      "name()": {
        "details": "See {IERC721Metadata-name}."
      },
      "ownerOf(uint256)": {
        "details": "See {IERC721-ownerOf}."
      },
      "safeTransferFrom(address,address,uint256)": {
        "details": "See {IERC721-safeTransferFrom}."
      },
      "safeTransferFrom(address,address,uint256,bytes)": {
        "details": "See {IERC721-safeTransferFrom}."
      },
      "setApprovalForAll(address,bool)": {
        "details": "See {IERC721-setApprovalForAll}."
      },
      "supportsInterface(bytes4)": {
        "details": "See {IERC165-supportsInterface}."
      },
      "symbol()": {
        "details": "See {IERC721Metadata-symbol}."
      },
      "tokenURI(uint256)": {
        "details": "See {IERC721Metadata-tokenURI}."
      },
      "transferFrom(address,address,uint256)": {
        "details": "See {IERC721-transferFrom}."
      }
    },
    "version": 1
  },
  "userdoc": {
    "kind": "user",
    "methods": {},
    "version": 1
  }
}