{
  "contractName": "DStreamInvestNFT",
  "abi": [
    {
      "inputs": [],
      "stateMutability": "nonpayable",
      "type": "constructor"
    },
    {
      "anonymous": false,
      "inputs": [
        {
          "indexed": true,
          "internalType": "address",
          "name": "owner",
          "type": "address"
        },
        {
          "indexed": true,
          "internalType": "address",
          "name": "approved",
          "type": "address"
        },
        {
          "indexed": true,
          "internalType": "uint256",
          "name": "tokenId",
          "type": "uint256"
        }
      ],
      "name": "Approval",
      "type": "event"
    },
    {
      "anonymous": false,
      "inputs": [
        {
          "indexed": true,
          "internalType": "address",
          "name": "owner",
          "type": "address"
        },
        {
          "indexed": true,
          "internalType": "address",
          "name": "operator",
          "type": "address"
        },
        {
          "indexed": false,
          "internalType": "bool",
          "name": "approved",
          "type": "bool"
        }
      ],
      "name": "ApprovalForAll",
      "type": "event"
    },
    {
      "anonymous": false,
      "inputs": [
        {
          "indexed": false,
          "internalType": "uint256",
          "name": "tokenId",
          "type": "uint256"
        },
        {
          "indexed": false,
          "internalType": "uint256",
          "name": "projectId",
          "type": "uint256"
        },
        {
          "indexed": false,
          "internalType": "uint256",
          "name": "projectInvestorsRewardsShare",
          "type": "uint256"
        },
        {
          "indexed": false,
          "internalType": "address",
          "name": "owner",
          "type": "address"
        }
      ],
      "name": "DInvestNFTCreated",
      "type": "event"
    },
    {
      "anonymous": false,
      "inputs": [
        {
          "indexed": false,
          "internalType": "uint256",
          "name": "tokenId",
          "type": "uint256"
        },
        {
          "indexed": false,
          "internalType": "address",
          "name": "newOwner",
          "type": "address"
        }
      ],
      "name": "OwnerChanged",
      "type": "event"
    },
    {
      "anonymous": false,
      "inputs": [
        {
          "indexed": true,
          "internalType": "address",
          "name": "from",
          "type": "address"
        },
        {
          "indexed": true,
          "internalType": "address",
          "name": "to",
          "type": "address"
        },
        {
          "indexed": true,
          "internalType": "uint256",
          "name": "tokenId",
          "type": "uint256"
        }
      ],
      "name": "Transfer",
      "type": "event"
    },
    {
      "inputs": [
        {
          "internalType": "address",
          "name": "to",
          "type": "address"
        },
        {
          "internalType": "uint256",
          "name": "tokenId",
          "type": "uint256"
        }
      ],
      "name": "approve",
      "outputs": [],
      "stateMutability": "nonpayable",
      "type": "function"
    },
    {
      "inputs": [
        {
          "internalType": "address",
          "name": "owner",
          "type": "address"
        }
      ],
      "name": "balanceOf",
      "outputs": [
        {
          "internalType": "uint256",
          "name": "",
          "type": "uint256"
        }
      ],
      "stateMutability": "view",
      "type": "function",
      "constant": true
    },
    {
      "inputs": [],
      "name": "decimals",
      "outputs": [
        {
          "internalType": "uint256",
          "name": "",
          "type": "uint256"
        }
      ],
      "stateMutability": "view",
      "type": "function",
      "constant": true
    },
    {
      "inputs": [
        {
          "internalType": "uint256",
          "name": "tokenId",
          "type": "uint256"
        }
      ],
      "name": "getApproved",
      "outputs": [
        {
          "internalType": "address",
          "name": "",
          "type": "address"
        }
      ],
      "stateMutability": "view",
      "type": "function",
      "constant": true
    },
    {
      "inputs": [
        {
          "internalType": "address",
          "name": "owner",
          "type": "address"
        },
        {
          "internalType": "address",
          "name": "operator",
          "type": "address"
        }
      ],
      "name": "isApprovedForAll",
      "outputs": [
        {
          "internalType": "bool",
          "name": "",
          "type": "bool"
        }
      ],
      "stateMutability": "view",
      "type": "function",
      "constant": true
    },
    {
      "inputs": [],
      "name": "name",
      "outputs": [
        {
          "internalType": "string",
          "name": "",
          "type": "string"
        }
      ],
      "stateMutability": "view",
      "type": "function",
      "constant": true
    },
    {
      "inputs": [
        {
          "internalType": "uint256",
          "name": "tokenId",
          "type": "uint256"
        }
      ],
      "name": "ownerOf",
      "outputs": [
        {
          "internalType": "address",
          "name": "",
          "type": "address"
        }
      ],
      "stateMutability": "view",
      "type": "function",
      "constant": true
    },
    {
      "inputs": [
        {
          "internalType": "address",
          "name": "from",
          "type": "address"
        },
        {
          "internalType": "address",
          "name": "to",
          "type": "address"
        },
        {
          "internalType": "uint256",
          "name": "tokenId",
          "type": "uint256"
        }
      ],
      "name": "safeTransferFrom",
      "outputs": [],
      "stateMutability": "nonpayable",
      "type": "function"
    },
    {
      "inputs": [
        {
          "internalType": "address",
          "name": "from",
          "type": "address"
        },
        {
          "internalType": "address",
          "name": "to",
          "type": "address"
        },
        {
          "internalType": "uint256",
          "name": "tokenId",
          "type": "uint256"
        },
        {
          "internalType": "bytes",
          "name": "_data",
          "type": "bytes"
        }
      ],
      "name": "safeTransferFrom",
      "outputs": [],
      "stateMutability": "nonpayable",
      "type": "function"
    },
    {
      "inputs": [
        {
          "internalType": "address",
          "name": "operator",
          "type": "address"
        },
        {
          "internalType": "bool",
          "name": "approved",
          "type": "bool"
        }
      ],
      "name": "setApprovalForAll",
      "outputs": [],
      "stateMutability": "nonpayable",
      "type": "function"
    },
    {
      "inputs": [
        {
          "internalType": "uint256",
          "name": "",
          "type": "uint256"
        }
      ],
      "name": "sharesByTokenId",
      "outputs": [
        {
          "internalType": "uint256",
          "name": "tokenId",
          "type": "uint256"
        },
        {
          "internalType": "uint256",
          "name": "projectId",
          "type": "uint256"
        },
        {
          "internalType": "uint256",
          "name": "projectInvestorsRewardsShare",
          "type": "uint256"
        },
        {
          "internalType": "address",
          "name": "owner",
          "type": "address"
        }
      ],
      "stateMutability": "view",
      "type": "function",
      "constant": true
    },
    {
      "inputs": [
        {
          "internalType": "bytes4",
          "name": "interfaceId",
          "type": "bytes4"
        }
      ],
      "name": "supportsInterface",
      "outputs": [
        {
          "internalType": "bool",
          "name": "",
          "type": "bool"
        }
      ],
      "stateMutability": "view",
      "type": "function",
      "constant": true
    },
    {
      "inputs": [],
      "name": "symbol",
      "outputs": [
        {
          "internalType": "string",
          "name": "",
          "type": "string"
        }
      ],
      "stateMutability": "view",
      "type": "function",
      "constant": true
    },
    {
      "inputs": [
        {
          "internalType": "uint256",
          "name": "tokenId",
          "type": "uint256"
        }
      ],
      "name": "tokenURI",
      "outputs": [
        {
          "internalType": "string",
          "name": "",
          "type": "string"
        }
      ],
      "stateMutability": "view",
      "type": "function",
      "constant": true
    },
    {
      "inputs": [],
      "name": "tokensCount",
      "outputs": [
        {
          "internalType": "uint256",
          "name": "",
          "type": "uint256"
        }
      ],
      "stateMutability": "view",
      "type": "function",
      "constant": true
    },
    {
      "inputs": [
        {
          "internalType": "address",
          "name": "from",
          "type": "address"
        },
        {
          "internalType": "address",
          "name": "to",
          "type": "address"
        },
        {
          "internalType": "uint256",
          "name": "tokenId",
          "type": "uint256"
        }
      ],
      "name": "transferFrom",
      "outputs": [],
      "stateMutability": "nonpayable",
      "type": "function"
    },
    {
      "inputs": [
        {
          "internalType": "address",
          "name": "to",
          "type": "address"
        },
        {
          "internalType": "uint256",
          "name": "projectId",
          "type": "uint256"
        },
        {
          "internalType": "uint256",
          "name": "contributions",
          "type": "uint256"
        },
        {
          "internalType": "uint256",
          "name": "total",
          "type": "uint256"
        }
      ],
      "name": "safeMint",
      "outputs": [],
      "stateMutability": "nonpayable",
      "type": "function"
    }
  ],
  "bytecode": "0x6080604052600c6009553480156200001657600080fd5b506040518060400160405280601281526020017f4453747265616d20496e76657374204e465400000000000000000000000000008152506040518060400160405280600a81526020017f44496e766573744e46540000000000000000000000000000000000000000000081525081600090805190602001906200009b929190620000bd565b508060019080519060200190620000b4929190620000bd565b505050620001d1565b828054620000cb906200019c565b90600052602060002090601f016020900481019282620000ef57600085556200013b565b82601f106200010a57805160ff19168380011785556200013b565b828001600101855582156200013b579182015b828111156200013a5782518255916020019190600101906200011d565b5b5090506200014a91906200014e565b5090565b5b80821115620001695760008160009055506001016200014f565b5090565b7f4e487b7100000000000000000000000000000000000000000000000000000000600052602260045260246000fd5b60006002820490506001821680620001b557607f821691505b602082108103620001cb57620001ca6200016d565b5b50919050565b612ddb80620001e16000396000f3fe608060405234801561001057600080fd5b506004361061010b5760003560e01c806370a08231116100a2578063a64ed8ba11610071578063a64ed8ba146102cd578063b88d4fde146102eb578063c87b56dd14610307578063e985e9c514610337578063faa07ec1146103675761010b565b806370a08231146102305780637a399d8a1461026057806395d89b4114610293578063a22cb465146102b15761010b565b806323b872dd116100de57806323b872dd146101aa578063313ce567146101c657806342842e0e146101e45780636352211e146102005761010b565b806301ffc9a71461011057806306fdde0314610140578063081812fc1461015e578063095ea7b31461018e575b600080fd5b61012a60048036038101906101259190611ab3565b610383565b6040516101379190611afb565b60405180910390f35b610148610465565b6040516101559190611baf565b60405180910390f35b61017860048036038101906101739190611c07565b6104f7565b6040516101859190611c75565b60405180910390f35b6101a860048036038101906101a39190611cbc565b61057c565b005b6101c460048036038101906101bf9190611cfc565b610693565b005b6101ce6106f3565b6040516101db9190611d5e565b60405180910390f35b6101fe60048036038101906101f99190611cfc565b6106f9565b005b61021a60048036038101906102159190611c07565b610719565b6040516102279190611c75565b60405180910390f35b61024a60048036038101906102459190611d79565b6107ca565b6040516102579190611d5e565b60405180910390f35b61027a60048036038101906102759190611c07565b610881565b60405161028a9493929190611da6565b60405180910390f35b61029b6108d1565b6040516102a89190611baf565b60405180910390f35b6102cb60048036038101906102c69190611e17565b610963565b005b6102d5610979565b6040516102e29190611d5e565b60405180910390f35b61030560048036038101906103009190611f8c565b61097f565b005b610321600480360381019061031c9190611c07565b6109e1565b60405161032e9190611baf565b60405180910390f35b610351600480360381019061034c919061200f565b610a88565b60405161035e9190611afb565b60405180910390f35b610381600480360381019061037c919061204f565b610b1c565b005b60007f80ac58cd000000000000000000000000000000000000000000000000000000007bffffffffffffffffffffffffffffffffffffffffffffffffffffffff1916827bffffffffffffffffffffffffffffffffffffffffffffffffffffffff1916148061044e57507f5b5e139f000000000000000000000000000000000000000000000000000000007bffffffffffffffffffffffffffffffffffffffffffffffffffffffff1916827bffffffffffffffffffffffffffffffffffffffffffffffffffffffff1916145b8061045e575061045d82610cbd565b5b9050919050565b606060008054610474906120e5565b80601f01602080910402602001604051908101604052809291908181526020018280546104a0906120e5565b80156104ed5780601f106104c2576101008083540402835291602001916104ed565b820191906000526020600020905b8154815290600101906020018083116104d057829003601f168201915b5050505050905090565b600061050282610d27565b610541576040517f08c379a000000000000000000000000000000000000000000000000000000000815260040161053890612188565b60405180910390fd5b6004600083815260200190815260200160002060009054906101000a900473ffffffffffffffffffffffffffffffffffffffff169050919050565b600061058782610719565b90508073ffffffffffffffffffffffffffffffffffffffff168373ffffffffffffffffffffffffffffffffffffffff16036105f7576040517f08c379a00000000000000000000000000000000000000000000000000000000081526004016105ee9061221a565b60405180910390fd5b8073ffffffffffffffffffffffffffffffffffffffff16610616610d93565b73ffffffffffffffffffffffffffffffffffffffff16148061064557506106448161063f610d93565b610a88565b5b610684576040517f08c379a000000000000000000000000000000000000000000000000000000000815260040161067b906122ac565b60405180910390fd5b61068e8383610d9b565b505050565b6106a461069e610d93565b82610e54565b6106e3576040517f08c379a00000000000000000000000000000000000000000000000000000000081526004016106da9061233e565b60405180910390fd5b6106ee838383610f32565b505050565b60095481565b6107148383836040518060200160405280600081525061097f565b505050565b6000806002600084815260200190815260200160002060009054906101000a900473ffffffffffffffffffffffffffffffffffffffff169050600073ffffffffffffffffffffffffffffffffffffffff168173ffffffffffffffffffffffffffffffffffffffff16036107c1576040517f08c379a00000000000000000000000000000000000000000000000000000000081526004016107b8906123d0565b60405180910390fd5b80915050919050565b60008073ffffffffffffffffffffffffffffffffffffffff168273ffffffffffffffffffffffffffffffffffffffff160361083a576040517f08c379a000000000000000000000000000000000000000000000000000000000815260040161083190612462565b60405180910390fd5b600360008373ffffffffffffffffffffffffffffffffffffffff1673ffffffffffffffffffffffffffffffffffffffff168152602001908152602001600020549050919050565b60066020528060005260406000206000915090508060000154908060010154908060020154908060030160009054906101000a900473ffffffffffffffffffffffffffffffffffffffff16905084565b6060600180546108e0906120e5565b80601f016020809104026020016040519081016040528092919081815260200182805461090c906120e5565b80156109595780601f1061092e57610100808354040283529160200191610959565b820191906000526020600020905b81548152906001019060200180831161093c57829003601f168201915b5050505050905090565b61097561096e610d93565b8383611198565b5050565b600a5481565b61099061098a610d93565b83610e54565b6109cf576040517f08c379a00000000000000000000000000000000000000000000000000000000081526004016109c69061233e565b60405180910390fd5b6109db84848484611304565b50505050565b60606109ec82610d27565b610a2b576040517f08c379a0000000000000000000000000000000000000000000000000000000008152600401610a22906124f4565b60405180910390fd5b6000610a35611360565b90506000815111610a555760405180602001604052806000815250610a80565b80610a5f84611377565b604051602001610a70929190612550565b6040516020818303038152906040525b915050919050565b6000600560008473ffffffffffffffffffffffffffffffffffffffff1673ffffffffffffffffffffffffffffffffffffffff16815260200190815260200160002060008373ffffffffffffffffffffffffffffffffffffffff1673ffffffffffffffffffffffffffffffffffffffff16815260200190815260200160002060009054906101000a900460ff16905092915050565b610b326001600a546114d790919063ffffffff16565b600a81905550610b4484600a546114ed565b6000610b50838361150b565b90506040518060800160405280600a5481526020018581526020018281526020018673ffffffffffffffffffffffffffffffffffffffff1681525060066000600a54815260200190815260200160002060008201518160000155602082015181600101556040820151816002015560608201518160030160006101000a81548173ffffffffffffffffffffffffffffffffffffffff021916908373ffffffffffffffffffffffffffffffffffffffff1602179055509050506000610c31600160076000888152602001908152602001600020546114d790919063ffffffff16565b9050806007600087815260200190815260200160002081905550600a54600860008781526020019081526020016000206000838152602001908152602001600020819055507f991f6ff29ae1bd8986cfd884a1dd930828bf3ffce7e60cdd7a43d802fdef32c6600a54868489604051610cad9493929190611da6565b60405180910390a1505050505050565b60007f01ffc9a7000000000000000000000000000000000000000000000000000000007bffffffffffffffffffffffffffffffffffffffffffffffffffffffff1916827bffffffffffffffffffffffffffffffffffffffffffffffffffffffff1916149050919050565b60008073ffffffffffffffffffffffffffffffffffffffff166002600084815260200190815260200160002060009054906101000a900473ffffffffffffffffffffffffffffffffffffffff1673ffffffffffffffffffffffffffffffffffffffff1614159050919050565b600033905090565b816004600083815260200190815260200160002060006101000a81548173ffffffffffffffffffffffffffffffffffffffff021916908373ffffffffffffffffffffffffffffffffffffffff160217905550808273ffffffffffffffffffffffffffffffffffffffff16610e0e83610719565b73ffffffffffffffffffffffffffffffffffffffff167f8c5be1e5ebec7d5bd14f71427d1e84f3dd0314c0f7b2291e5b200ac8c7c3b92560405160405180910390a45050565b6000610e5f82610d27565b610e9e576040517f08c379a0000000000000000000000000000000000000000000000000000000008152600401610e95906125e6565b60405180910390fd5b6000610ea983610719565b90508073ffffffffffffffffffffffffffffffffffffffff168473ffffffffffffffffffffffffffffffffffffffff161480610eeb5750610eea8185610a88565b5b80610f2957508373ffffffffffffffffffffffffffffffffffffffff16610f11846104f7565b73ffffffffffffffffffffffffffffffffffffffff16145b91505092915050565b8273ffffffffffffffffffffffffffffffffffffffff16610f5282610719565b73ffffffffffffffffffffffffffffffffffffffff1614610fa8576040517f08c379a0000000000000000000000000000000000000000000000000000000008152600401610f9f90612678565b60405180910390fd5b600073ffffffffffffffffffffffffffffffffffffffff168273ffffffffffffffffffffffffffffffffffffffff1603611017576040517f08c379a000000000000000000000000000000000000000000000000000000000815260040161100e9061270a565b60405180910390fd5b611022838383611541565b61102d600082610d9b565b6001600360008573ffffffffffffffffffffffffffffffffffffffff1673ffffffffffffffffffffffffffffffffffffffff168152602001908152602001600020600082825461107d9190612759565b925050819055506001600360008473ffffffffffffffffffffffffffffffffffffffff1673ffffffffffffffffffffffffffffffffffffffff16815260200190815260200160002060008282546110d4919061278d565b92505081905550816002600083815260200190815260200160002060006101000a81548173ffffffffffffffffffffffffffffffffffffffff021916908373ffffffffffffffffffffffffffffffffffffffff160217905550808273ffffffffffffffffffffffffffffffffffffffff168473ffffffffffffffffffffffffffffffffffffffff167fddf252ad1be2c89b69c2b068fc378daa952ba7f163c4a11628f55a4df523b3ef60405160405180910390a4611193838383611546565b505050565b8173ffffffffffffffffffffffffffffffffffffffff168373ffffffffffffffffffffffffffffffffffffffff1603611206576040517f08c379a00000000000000000000000000000000000000000000000000000000081526004016111fd9061282f565b60405180910390fd5b80600560008573ffffffffffffffffffffffffffffffffffffffff1673ffffffffffffffffffffffffffffffffffffffff16815260200190815260200160002060008473ffffffffffffffffffffffffffffffffffffffff1673ffffffffffffffffffffffffffffffffffffffff16815260200190815260200160002060006101000a81548160ff0219169083151502179055508173ffffffffffffffffffffffffffffffffffffffff168373ffffffffffffffffffffffffffffffffffffffff167f17307eab39ab6107e8899845ad3d59bd9653f200f220920489ca2b5937696c31836040516112f79190611afb565b60405180910390a3505050565b61130f848484610f32565b61131b8484848461164e565b61135a576040517f08c379a0000000000000000000000000000000000000000000000000000000008152600401611351906128c1565b60405180910390fd5b50505050565b606060405180602001604052806000815250905090565b6060600082036113be576040518060400160405280600181526020017f300000000000000000000000000000000000000000000000000000000000000081525090506114d2565b600082905060005b600082146113f05780806113d9906128e1565b915050600a826113e99190612958565b91506113c6565b60008167ffffffffffffffff81111561140c5761140b611e61565b5b6040519080825280601f01601f19166020018201604052801561143e5781602001600182028036833780820191505090505b5090505b600085146114cb576001826114579190612759565b9150600a856114669190612989565b6030611472919061278d565b60f81b818381518110611488576114876129ba565b5b60200101907effffffffffffffffffffffffffffffffffffffffffffffffffffffffffffff1916908160001a905350600a856114c49190612958565b9450611442565b8093505050505b919050565b600081836114e5919061278d565b905092915050565b6115078282604051806020016040528060008152506117d5565b5050565b60008161152f600954600a6115209190612b1c565b8561183090919063ffffffff16565b6115399190612958565b905092915050565b505050565b611551838383611846565b8173ffffffffffffffffffffffffffffffffffffffff166006600083815260200190815260200160002060030160009054906101000a900473ffffffffffffffffffffffffffffffffffffffff1673ffffffffffffffffffffffffffffffffffffffff161461164957816006600083815260200190815260200160002060030160006101000a81548173ffffffffffffffffffffffffffffffffffffffff021916908373ffffffffffffffffffffffffffffffffffffffff1602179055507f9c65bdcdf3baa5d433981546cddddb0c820aa405c7bd651375df9f19f02698768183604051611640929190612b67565b60405180910390a15b505050565b600061166f8473ffffffffffffffffffffffffffffffffffffffff1661184b565b156117c8578373ffffffffffffffffffffffffffffffffffffffff1663150b7a02611698610d93565b8786866040518563ffffffff1660e01b81526004016116ba9493929190612be5565b6020604051808303816000875af19250505080156116f657506040513d601f19601f820116820180604052508101906116f39190612c46565b60015b611778573d8060008114611726576040519150601f19603f3d011682016040523d82523d6000602084013e61172b565b606091505b506000815103611770576040517f08c379a0000000000000000000000000000000000000000000000000000000008152600401611767906128c1565b60405180910390fd5b805181602001fd5b63150b7a0260e01b7bffffffffffffffffffffffffffffffffffffffffffffffffffffffff1916817bffffffffffffffffffffffffffffffffffffffffffffffffffffffff1916149150506117cd565b600190505b949350505050565b6117df838361186e565b6117ec600084848461164e565b61182b576040517f08c379a0000000000000000000000000000000000000000000000000000000008152600401611822906128c1565b60405180910390fd5b505050565b6000818361183e9190612c73565b905092915050565b505050565b6000808273ffffffffffffffffffffffffffffffffffffffff163b119050919050565b600073ffffffffffffffffffffffffffffffffffffffff168273ffffffffffffffffffffffffffffffffffffffff16036118dd576040517f08c379a00000000000000000000000000000000000000000000000000000000081526004016118d490612d19565b60405180910390fd5b6118e681610d27565b15611926576040517f08c379a000000000000000000000000000000000000000000000000000000000815260040161191d90612d85565b60405180910390fd5b61193260008383611541565b6001600360008473ffffffffffffffffffffffffffffffffffffffff1673ffffffffffffffffffffffffffffffffffffffff1681526020019081526020016000206000828254611982919061278d565b92505081905550816002600083815260200190815260200160002060006101000a81548173ffffffffffffffffffffffffffffffffffffffff021916908373ffffffffffffffffffffffffffffffffffffffff160217905550808273ffffffffffffffffffffffffffffffffffffffff16600073ffffffffffffffffffffffffffffffffffffffff167fddf252ad1be2c89b69c2b068fc378daa952ba7f163c4a11628f55a4df523b3ef60405160405180910390a4611a4360008383611546565b5050565b6000604051905090565b600080fd5b600080fd5b60007fffffffff0000000000000000000000000000000000000000000000000000000082169050919050565b611a9081611a5b565b8114611a9b57600080fd5b50565b600081359050611aad81611a87565b92915050565b600060208284031215611ac957611ac8611a51565b5b6000611ad784828501611a9e565b91505092915050565b60008115159050919050565b611af581611ae0565b82525050565b6000602082019050611b106000830184611aec565b92915050565b600081519050919050565b600082825260208201905092915050565b60005b83811015611b50578082015181840152602081019050611b35565b83811115611b5f576000848401525b50505050565b6000601f19601f8301169050919050565b6000611b8182611b16565b611b8b8185611b21565b9350611b9b818560208601611b32565b611ba481611b65565b840191505092915050565b60006020820190508181036000830152611bc98184611b76565b905092915050565b6000819050919050565b611be481611bd1565b8114611bef57600080fd5b50565b600081359050611c0181611bdb565b92915050565b600060208284031215611c1d57611c1c611a51565b5b6000611c2b84828501611bf2565b91505092915050565b600073ffffffffffffffffffffffffffffffffffffffff82169050919050565b6000611c5f82611c34565b9050919050565b611c6f81611c54565b82525050565b6000602082019050611c8a6000830184611c66565b92915050565b611c9981611c54565b8114611ca457600080fd5b50565b600081359050611cb681611c90565b92915050565b60008060408385031215611cd357611cd2611a51565b5b6000611ce185828601611ca7565b9250506020611cf285828601611bf2565b9150509250929050565b600080600060608486031215611d1557611d14611a51565b5b6000611d2386828701611ca7565b9350506020611d3486828701611ca7565b9250506040611d4586828701611bf2565b9150509250925092565b611d5881611bd1565b82525050565b6000602082019050611d736000830184611d4f565b92915050565b600060208284031215611d8f57611d8e611a51565b5b6000611d9d84828501611ca7565b91505092915050565b6000608082019050611dbb6000830187611d4f565b611dc86020830186611d4f565b611dd56040830185611d4f565b611de26060830184611c66565b95945050505050565b611df481611ae0565b8114611dff57600080fd5b50565b600081359050611e1181611deb565b92915050565b60008060408385031215611e2e57611e2d611a51565b5b6000611e3c85828601611ca7565b9250506020611e4d85828601611e02565b9150509250929050565b600080fd5b600080fd5b7f4e487b7100000000000000000000000000000000000000000000000000000000600052604160045260246000fd5b611e9982611b65565b810181811067ffffffffffffffff82111715611eb857611eb7611e61565b5b80604052505050565b6000611ecb611a47565b9050611ed78282611e90565b919050565b600067ffffffffffffffff821115611ef757611ef6611e61565b5b611f0082611b65565b9050602081019050919050565b82818337600083830152505050565b6000611f2f611f2a84611edc565b611ec1565b905082815260208101848484011115611f4b57611f4a611e5c565b5b611f56848285611f0d565b509392505050565b600082601f830112611f7357611f72611e57565b5b8135611f83848260208601611f1c565b91505092915050565b60008060008060808587031215611fa657611fa5611a51565b5b6000611fb487828801611ca7565b9450506020611fc587828801611ca7565b9350506040611fd687828801611bf2565b925050606085013567ffffffffffffffff811115611ff757611ff6611a56565b5b61200387828801611f5e565b91505092959194509250565b6000806040838503121561202657612025611a51565b5b600061203485828601611ca7565b925050602061204585828601611ca7565b9150509250929050565b6000806000806080858703121561206957612068611a51565b5b600061207787828801611ca7565b945050602061208887828801611bf2565b935050604061209987828801611bf2565b92505060606120aa87828801611bf2565b91505092959194509250565b7f4e487b7100000000000000000000000000000000000000000000000000000000600052602260045260246000fd5b600060028204905060018216806120fd57607f821691505b6020821081036121105761210f6120b6565b5b50919050565b7f4552433732313a20617070726f76656420717565727920666f72206e6f6e657860008201527f697374656e7420746f6b656e0000000000000000000000000000000000000000602082015250565b6000612172602c83611b21565b915061217d82612116565b604082019050919050565b600060208201905081810360008301526121a181612165565b9050919050565b7f4552433732313a20617070726f76616c20746f2063757272656e74206f776e6560008201527f7200000000000000000000000000000000000000000000000000000000000000602082015250565b6000612204602183611b21565b915061220f826121a8565b604082019050919050565b60006020820190508181036000830152612233816121f7565b9050919050565b7f4552433732313a20617070726f76652063616c6c6572206973206e6f74206f7760008201527f6e6572206e6f7220617070726f76656420666f7220616c6c0000000000000000602082015250565b6000612296603883611b21565b91506122a18261223a565b604082019050919050565b600060208201905081810360008301526122c581612289565b9050919050565b7f4552433732313a207472616e736665722063616c6c6572206973206e6f74206f60008201527f776e6572206e6f7220617070726f766564000000000000000000000000000000602082015250565b6000612328603183611b21565b9150612333826122cc565b604082019050919050565b600060208201905081810360008301526123578161231b565b9050919050565b7f4552433732313a206f776e657220717565727920666f72206e6f6e657869737460008201527f656e7420746f6b656e0000000000000000000000000000000000000000000000602082015250565b60006123ba602983611b21565b91506123c58261235e565b604082019050919050565b600060208201905081810360008301526123e9816123ad565b9050919050565b7f4552433732313a2062616c616e636520717565727920666f7220746865207a6560008201527f726f206164647265737300000000000000000000000000000000000000000000602082015250565b600061244c602a83611b21565b9150612457826123f0565b604082019050919050565b6000602082019050818103600083015261247b8161243f565b9050919050565b7f4552433732314d657461646174613a2055524920717565727920666f72206e6f60008201527f6e6578697374656e7420746f6b656e0000000000000000000000000000000000602082015250565b60006124de602f83611b21565b91506124e982612482565b604082019050919050565b6000602082019050818103600083015261250d816124d1565b9050919050565b600081905092915050565b600061252a82611b16565b6125348185612514565b9350612544818560208601611b32565b80840191505092915050565b600061255c828561251f565b9150612568828461251f565b91508190509392505050565b7f4552433732313a206f70657261746f7220717565727920666f72206e6f6e657860008201527f697374656e7420746f6b656e0000000000000000000000000000000000000000602082015250565b60006125d0602c83611b21565b91506125db82612574565b604082019050919050565b600060208201905081810360008301526125ff816125c3565b9050919050565b7f4552433732313a207472616e736665722066726f6d20696e636f72726563742060008201527f6f776e6572000000000000000000000000000000000000000000000000000000602082015250565b6000612662602583611b21565b915061266d82612606565b604082019050919050565b6000602082019050818103600083015261269181612655565b9050919050565b7f4552433732313a207472616e7366657220746f20746865207a65726f2061646460008201527f7265737300000000000000000000000000000000000000000000000000000000602082015250565b60006126f4602483611b21565b91506126ff82612698565b604082019050919050565b60006020820190508181036000830152612723816126e7565b9050919050565b7f4e487b7100000000000000000000000000000000000000000000000000000000600052601160045260246000fd5b600061276482611bd1565b915061276f83611bd1565b9250828210156127825761278161272a565b5b828203905092915050565b600061279882611bd1565b91506127a383611bd1565b9250827fffffffffffffffffffffffffffffffffffffffffffffffffffffffffffffffff038211156127d8576127d761272a565b5b828201905092915050565b7f4552433732313a20617070726f766520746f2063616c6c657200000000000000600082015250565b6000612819601983611b21565b9150612824826127e3565b602082019050919050565b600060208201905081810360008301526128488161280c565b9050919050565b7f4552433732313a207472616e7366657220746f206e6f6e20455243373231526560008201527f63656976657220696d706c656d656e7465720000000000000000000000000000602082015250565b60006128ab603283611b21565b91506128b68261284f565b604082019050919050565b600060208201905081810360008301526128da8161289e565b9050919050565b60006128ec82611bd1565b91507fffffffffffffffffffffffffffffffffffffffffffffffffffffffffffffffff820361291e5761291d61272a565b5b600182019050919050565b7f4e487b7100000000000000000000000000000000000000000000000000000000600052601260045260246000fd5b600061296382611bd1565b915061296e83611bd1565b92508261297e5761297d612929565b5b828204905092915050565b600061299482611bd1565b915061299f83611bd1565b9250826129af576129ae612929565b5b828206905092915050565b7f4e487b7100000000000000000000000000000000000000000000000000000000600052603260045260246000fd5b60008160011c9050919050565b6000808291508390505b6001851115612a4057808604811115612a1c57612a1b61272a565b5b6001851615612a2b5780820291505b8081029050612a39856129e9565b9450612a00565b94509492505050565b600082612a595760019050612b15565b81612a675760009050612b15565b8160018114612a7d5760028114612a8757612ab6565b6001915050612b15565b60ff841115612a9957612a9861272a565b5b8360020a915084821115612ab057612aaf61272a565b5b50612b15565b5060208310610133831016604e8410600b8410161715612aeb5782820a905083811115612ae657612ae561272a565b5b612b15565b612af884848460016129f6565b92509050818404811115612b0f57612b0e61272a565b5b81810290505b9392505050565b6000612b2782611bd1565b9150612b3283611bd1565b9250612b5f7fffffffffffffffffffffffffffffffffffffffffffffffffffffffffffffffff8484612a49565b905092915050565b6000604082019050612b7c6000830185611d4f565b612b896020830184611c66565b9392505050565b600081519050919050565b600082825260208201905092915050565b6000612bb782612b90565b612bc18185612b9b565b9350612bd1818560208601611b32565b612bda81611b65565b840191505092915050565b6000608082019050612bfa6000830187611c66565b612c076020830186611c66565b612c146040830185611d4f565b8181036060830152612c268184612bac565b905095945050505050565b600081519050612c4081611a87565b92915050565b600060208284031215612c5c57612c5b611a51565b5b6000612c6a84828501612c31565b91505092915050565b6000612c7e82611bd1565b9150612c8983611bd1565b9250817fffffffffffffffffffffffffffffffffffffffffffffffffffffffffffffffff0483118215151615612cc257612cc161272a565b5b828202905092915050565b7f4552433732313a206d696e7420746f20746865207a65726f2061646472657373600082015250565b6000612d03602083611b21565b9150612d0e82612ccd565b602082019050919050565b60006020820190508181036000830152612d3281612cf6565b9050919050565b7f4552433732313a20746f6b656e20616c7265616479206d696e74656400000000600082015250565b6000612d6f601c83611b21565b9150612d7a82612d39565b602082019050919050565b60006020820190508181036000830152612d9e81612d62565b905091905056fea264697066735822122008ad479847ea29b0dd04340c62c51c0d544bffdc40e581b62c1bdef237e027f864736f6c634300080e0033",
  "immutableReferences": {},
  "source": "// SPDX-License-Identifier: UNLICENSED\r\npragma solidity >=0.6.0 <0.9.0;\r\n\r\nimport \"@openzeppelin/contracts/token/ERC721/ERC721.sol\";\r\nimport \"@openzeppelin/contracts/utils/math/SafeMath.sol\";\r\n\r\ncontract DStreamInvestNFT is ERC721 {\r\n  using SafeMath for uint256;\r\n\r\n  struct Metadata {\r\n    uint tokenId;\r\n    uint projectId;\r\n    uint projectInvestorsRewardsShare;\r\n    address owner;\r\n  }\r\n  mapping(uint => Metadata) public sharesByTokenId;\r\n  mapping(uint => uint) internal tokensTotalsByProjectId;\r\n  mapping(uint => mapping(uint => uint)) tokensIdsByProjectIdAndOrder;\r\n\r\n  uint public decimals = 12;\r\n  uint public tokensCount;\r\n\r\n  event DInvestNFTCreated(\r\n    uint tokenId,\r\n    uint projectId,\r\n    uint projectInvestorsRewardsShare,\r\n    address owner\r\n  );\r\n\r\n  event OwnerChanged(\r\n    uint tokenId, \r\n    address newOwner\r\n  );\r\n\r\n  constructor() ERC721(\"DStream Invest NFT\", \"DInvestNFT\") {}\r\n\r\n  \r\n  function _getPercentage(uint low, uint high) private view returns (uint) {\r\n    // max contributions in millions (10 ** 6); therefore, max decimal in this calculating 10 ** 18 (6 + 12)\r\n    // decimals (12) is precision, example: 478965654123 = 47,8965654123 %\r\n    return low.mul(10 ** decimals) / high;\r\n  }\r\n\r\n  function safeMint(\r\n    address to, uint projectId, uint contributions , uint total \r\n  ) external {\r\n    // require(msg.sender == address(0xb6477cbDB30a05Fb453f5eeE6004b7D08b5daF43));\r\n    tokensCount = tokensCount.add(1);\r\n    _safeMint(to, tokensCount);\r\n\r\n    uint share = _getPercentage(contributions, total);\r\n    sharesByTokenId[tokensCount] = Metadata(\r\n      tokensCount, projectId, share, to\r\n    );\r\n\r\n    uint newTokensTotalPerProject = tokensTotalsByProjectId[\r\n      projectId\r\n    ].add(1);\r\n\r\n    tokensTotalsByProjectId[projectId] = newTokensTotalPerProject;\r\n    tokensIdsByProjectIdAndOrder[projectId][newTokensTotalPerProject] = tokensCount;\r\n\r\n    emit DInvestNFTCreated(\r\n      tokensCount, projectId, share, to\r\n    );\r\n  }\r\n\r\n  // Hook\r\n  function _afterTokenTransfer(address from, address to, uint256 tokenId)\r\n    internal virtual override\r\n  {\r\n    super._afterTokenTransfer(from, to, tokenId);\r\n    if (sharesByTokenId[tokenId].owner != to) {\r\n      sharesByTokenId[tokenId].owner = to;\r\n      emit OwnerChanged(tokenId, to);\r\n    }\r\n  }\r\n\r\n}\r\n",
  "sourcePath": "C:\\Workspace\\DStream\\backend\\contracts\\tokens\\DStreamInvestNFT.sol",
  "compiler": {
    "name": "solc",
    "version": "0.8.14+commit.80d49f37.Emscripten.clang"
  },
  "schemaVersion": "3.4.7",
  "updatedAt": "2022-06-26T12:39:52.346Z",
  "networkType": "ethereum",
  "devdoc": {
    "kind": "dev",
    "methods": {
      "approve(address,uint256)": {
        "details": "See {IERC721-approve}."
      },
      "balanceOf(address)": {
        "details": "See {IERC721-balanceOf}."
      },
      "getApproved(uint256)": {
        "details": "See {IERC721-getApproved}."
      },
      "isApprovedForAll(address,address)": {
        "details": "See {IERC721-isApprovedForAll}."
      },
      "name()": {
        "details": "See {IERC721Metadata-name}."
      },
      "ownerOf(uint256)": {
        "details": "See {IERC721-ownerOf}."
      },
      "safeTransferFrom(address,address,uint256)": {
        "details": "See {IERC721-safeTransferFrom}."
      },
      "safeTransferFrom(address,address,uint256,bytes)": {
        "details": "See {IERC721-safeTransferFrom}."
      },
      "setApprovalForAll(address,bool)": {
        "details": "See {IERC721-setApprovalForAll}."
      },
      "supportsInterface(bytes4)": {
        "details": "See {IERC165-supportsInterface}."
      },
      "symbol()": {
        "details": "See {IERC721Metadata-symbol}."
      },
      "tokenURI(uint256)": {
        "details": "See {IERC721Metadata-tokenURI}."
      },
      "transferFrom(address,address,uint256)": {
        "details": "See {IERC721-transferFrom}."
      }
    },
    "version": 1
  },
  "userdoc": {
    "kind": "user",
    "methods": {},
    "version": 1
  }
}