{
  "contractName": "DStreamInvestNFT",
  "abi": [
    {
      "inputs": [],
      "stateMutability": "nonpayable",
      "type": "constructor"
    },
    {
      "anonymous": false,
      "inputs": [
        {
          "indexed": true,
          "internalType": "address",
          "name": "owner",
          "type": "address"
        },
        {
          "indexed": true,
          "internalType": "address",
          "name": "approved",
          "type": "address"
        },
        {
          "indexed": true,
          "internalType": "uint256",
          "name": "tokenId",
          "type": "uint256"
        }
      ],
      "name": "Approval",
      "type": "event"
    },
    {
      "anonymous": false,
      "inputs": [
        {
          "indexed": true,
          "internalType": "address",
          "name": "owner",
          "type": "address"
        },
        {
          "indexed": true,
          "internalType": "address",
          "name": "operator",
          "type": "address"
        },
        {
          "indexed": false,
          "internalType": "bool",
          "name": "approved",
          "type": "bool"
        }
      ],
      "name": "ApprovalForAll",
      "type": "event"
    },
    {
      "anonymous": false,
      "inputs": [
        {
          "indexed": false,
          "internalType": "uint256",
          "name": "tokenId",
          "type": "uint256"
        },
        {
          "indexed": false,
          "internalType": "uint256",
          "name": "projectId",
          "type": "uint256"
        },
        {
          "indexed": false,
          "internalType": "uint256",
          "name": "projectInvestorsRewardsShare",
          "type": "uint256"
        },
        {
          "indexed": false,
          "internalType": "address",
          "name": "owner",
          "type": "address"
        }
      ],
      "name": "DInvestNFTCreated",
      "type": "event"
    },
    {
      "anonymous": false,
      "inputs": [
        {
          "indexed": false,
          "internalType": "uint256",
          "name": "tokenId",
          "type": "uint256"
        },
        {
          "indexed": false,
          "internalType": "address",
          "name": "newOwner",
          "type": "address"
        }
      ],
      "name": "OwnerChanged",
      "type": "event"
    },
    {
      "anonymous": false,
      "inputs": [
        {
          "indexed": true,
          "internalType": "address",
          "name": "from",
          "type": "address"
        },
        {
          "indexed": true,
          "internalType": "address",
          "name": "to",
          "type": "address"
        },
        {
          "indexed": true,
          "internalType": "uint256",
          "name": "tokenId",
          "type": "uint256"
        }
      ],
      "name": "Transfer",
      "type": "event"
    },
    {
      "inputs": [
        {
          "internalType": "address",
          "name": "to",
          "type": "address"
        },
        {
          "internalType": "uint256",
          "name": "tokenId",
          "type": "uint256"
        }
      ],
      "name": "approve",
      "outputs": [],
      "stateMutability": "nonpayable",
      "type": "function"
    },
    {
      "inputs": [
        {
          "internalType": "address",
          "name": "owner",
          "type": "address"
        }
      ],
      "name": "balanceOf",
      "outputs": [
        {
          "internalType": "uint256",
          "name": "",
          "type": "uint256"
        }
      ],
      "stateMutability": "view",
      "type": "function"
    },
    {
      "inputs": [],
      "name": "decimals",
      "outputs": [
        {
          "internalType": "uint256",
          "name": "",
          "type": "uint256"
        }
      ],
      "stateMutability": "view",
      "type": "function"
    },
    {
      "inputs": [
        {
          "internalType": "uint256",
          "name": "tokenId",
          "type": "uint256"
        }
      ],
      "name": "getApproved",
      "outputs": [
        {
          "internalType": "address",
          "name": "",
          "type": "address"
        }
      ],
      "stateMutability": "view",
      "type": "function"
    },
    {
      "inputs": [
        {
          "internalType": "address",
          "name": "owner",
          "type": "address"
        },
        {
          "internalType": "address",
          "name": "operator",
          "type": "address"
        }
      ],
      "name": "isApprovedForAll",
      "outputs": [
        {
          "internalType": "bool",
          "name": "",
          "type": "bool"
        }
      ],
      "stateMutability": "view",
      "type": "function"
    },
    {
      "inputs": [],
      "name": "name",
      "outputs": [
        {
          "internalType": "string",
          "name": "",
          "type": "string"
        }
      ],
      "stateMutability": "view",
      "type": "function"
    },
    {
      "inputs": [
        {
          "internalType": "uint256",
          "name": "tokenId",
          "type": "uint256"
        }
      ],
      "name": "ownerOf",
      "outputs": [
        {
          "internalType": "address",
          "name": "",
          "type": "address"
        }
      ],
      "stateMutability": "view",
      "type": "function"
    },
    {
      "inputs": [
        {
          "internalType": "address",
          "name": "from",
          "type": "address"
        },
        {
          "internalType": "address",
          "name": "to",
          "type": "address"
        },
        {
          "internalType": "uint256",
          "name": "tokenId",
          "type": "uint256"
        }
      ],
      "name": "safeTransferFrom",
      "outputs": [],
      "stateMutability": "nonpayable",
      "type": "function"
    },
    {
      "inputs": [
        {
          "internalType": "address",
          "name": "from",
          "type": "address"
        },
        {
          "internalType": "address",
          "name": "to",
          "type": "address"
        },
        {
          "internalType": "uint256",
          "name": "tokenId",
          "type": "uint256"
        },
        {
          "internalType": "bytes",
          "name": "_data",
          "type": "bytes"
        }
      ],
      "name": "safeTransferFrom",
      "outputs": [],
      "stateMutability": "nonpayable",
      "type": "function"
    },
    {
      "inputs": [
        {
          "internalType": "address",
          "name": "operator",
          "type": "address"
        },
        {
          "internalType": "bool",
          "name": "approved",
          "type": "bool"
        }
      ],
      "name": "setApprovalForAll",
      "outputs": [],
      "stateMutability": "nonpayable",
      "type": "function"
    },
    {
      "inputs": [
        {
          "internalType": "uint256",
          "name": "",
          "type": "uint256"
        }
      ],
      "name": "sharesByTokenId",
      "outputs": [
        {
          "internalType": "uint256",
          "name": "tokenId",
          "type": "uint256"
        },
        {
          "internalType": "uint256",
          "name": "projectId",
          "type": "uint256"
        },
        {
          "internalType": "uint256",
          "name": "projectInvestorsRewardsShare",
          "type": "uint256"
        },
        {
          "internalType": "address",
          "name": "owner",
          "type": "address"
        }
      ],
      "stateMutability": "view",
      "type": "function"
    },
    {
      "inputs": [
        {
          "internalType": "bytes4",
          "name": "interfaceId",
          "type": "bytes4"
        }
      ],
      "name": "supportsInterface",
      "outputs": [
        {
          "internalType": "bool",
          "name": "",
          "type": "bool"
        }
      ],
      "stateMutability": "view",
      "type": "function"
    },
    {
      "inputs": [],
      "name": "symbol",
      "outputs": [
        {
          "internalType": "string",
          "name": "",
          "type": "string"
        }
      ],
      "stateMutability": "view",
      "type": "function"
    },
    {
      "inputs": [
        {
          "internalType": "uint256",
          "name": "tokenId",
          "type": "uint256"
        }
      ],
      "name": "tokenURI",
      "outputs": [
        {
          "internalType": "string",
          "name": "",
          "type": "string"
        }
      ],
      "stateMutability": "view",
      "type": "function"
    },
    {
      "inputs": [],
      "name": "tokensCount",
      "outputs": [
        {
          "internalType": "uint256",
          "name": "",
          "type": "uint256"
        }
      ],
      "stateMutability": "view",
      "type": "function"
    },
    {
      "inputs": [
        {
          "internalType": "address",
          "name": "from",
          "type": "address"
        },
        {
          "internalType": "address",
          "name": "to",
          "type": "address"
        },
        {
          "internalType": "uint256",
          "name": "tokenId",
          "type": "uint256"
        }
      ],
      "name": "transferFrom",
      "outputs": [],
      "stateMutability": "nonpayable",
      "type": "function"
    }
  ],
  "bytecode": "0x6080604052600c6009553480156200001657600080fd5b506040518060400160405280601281526020017f4453747265616d20496e76657374204e465400000000000000000000000000008152506040518060400160405280600a81526020017f44496e766573744e46540000000000000000000000000000000000000000000081525081600090805190602001906200009b929190620000bd565b508060019080519060200190620000b4929190620000bd565b505050620001d1565b828054620000cb906200019c565b90600052602060002090601f016020900481019282620000ef57600085556200013b565b82601f106200010a57805160ff19168380011785556200013b565b828001600101855582156200013b579182015b828111156200013a5782518255916020019190600101906200011d565b5b5090506200014a91906200014e565b5090565b5b80821115620001695760008160009055506001016200014f565b5090565b7f4e487b7100000000000000000000000000000000000000000000000000000000600052602260045260246000fd5b60006002820490506001821680620001b557607f821691505b602082108103620001cb57620001ca6200016d565b5b50919050565b6125de80620001e16000396000f3fe608060405234801561001057600080fd5b50600436106101005760003560e01c806370a0823111610097578063a64ed8ba11610066578063a64ed8ba146102c2578063b88d4fde146102e0578063c87b56dd146102fc578063e985e9c51461032c57610100565b806370a08231146102255780637a399d8a1461025557806395d89b4114610288578063a22cb465146102a657610100565b806323b872dd116100d357806323b872dd1461019f578063313ce567146101bb57806342842e0e146101d95780636352211e146101f557610100565b806301ffc9a71461010557806306fdde0314610135578063081812fc14610153578063095ea7b314610183575b600080fd5b61011f600480360381019061011a91906115cd565b61035c565b60405161012c9190611615565b60405180910390f35b61013d61043e565b60405161014a91906116c9565b60405180910390f35b61016d60048036038101906101689190611721565b6104d0565b60405161017a919061178f565b60405180910390f35b61019d600480360381019061019891906117d6565b610555565b005b6101b960048036038101906101b49190611816565b61066c565b005b6101c36106cc565b6040516101d09190611878565b60405180910390f35b6101f360048036038101906101ee9190611816565b6106d2565b005b61020f600480360381019061020a9190611721565b6106f2565b60405161021c919061178f565b60405180910390f35b61023f600480360381019061023a9190611893565b6107a3565b60405161024c9190611878565b60405180910390f35b61026f600480360381019061026a9190611721565b61085a565b60405161027f94939291906118c0565b60405180910390f35b6102906108aa565b60405161029d91906116c9565b60405180910390f35b6102c060048036038101906102bb9190611931565b61093c565b005b6102ca610952565b6040516102d79190611878565b60405180910390f35b6102fa60048036038101906102f59190611aa6565b610958565b005b61031660048036038101906103119190611721565b6109ba565b60405161032391906116c9565b60405180910390f35b61034660048036038101906103419190611b29565b610a61565b6040516103539190611615565b60405180910390f35b60007f80ac58cd000000000000000000000000000000000000000000000000000000007bffffffffffffffffffffffffffffffffffffffffffffffffffffffff1916827bffffffffffffffffffffffffffffffffffffffffffffffffffffffff1916148061042757507f5b5e139f000000000000000000000000000000000000000000000000000000007bffffffffffffffffffffffffffffffffffffffffffffffffffffffff1916827bffffffffffffffffffffffffffffffffffffffffffffffffffffffff1916145b80610437575061043682610af5565b5b9050919050565b60606000805461044d90611b98565b80601f016020809104026020016040519081016040528092919081815260200182805461047990611b98565b80156104c65780601f1061049b576101008083540402835291602001916104c6565b820191906000526020600020905b8154815290600101906020018083116104a957829003601f168201915b5050505050905090565b60006104db82610b5f565b61051a576040517f08c379a000000000000000000000000000000000000000000000000000000000815260040161051190611c3b565b60405180910390fd5b6004600083815260200190815260200160002060009054906101000a900473ffffffffffffffffffffffffffffffffffffffff169050919050565b6000610560826106f2565b90508073ffffffffffffffffffffffffffffffffffffffff168373ffffffffffffffffffffffffffffffffffffffff16036105d0576040517f08c379a00000000000000000000000000000000000000000000000000000000081526004016105c790611ccd565b60405180910390fd5b8073ffffffffffffffffffffffffffffffffffffffff166105ef610bcb565b73ffffffffffffffffffffffffffffffffffffffff16148061061e575061061d81610618610bcb565b610a61565b5b61065d576040517f08c379a000000000000000000000000000000000000000000000000000000000815260040161065490611d5f565b60405180910390fd5b6106678383610bd3565b505050565b61067d610677610bcb565b82610c8c565b6106bc576040517f08c379a00000000000000000000000000000000000000000000000000000000081526004016106b390611df1565b60405180910390fd5b6106c7838383610d6a565b505050565b60095481565b6106ed83838360405180602001604052806000815250610958565b505050565b6000806002600084815260200190815260200160002060009054906101000a900473ffffffffffffffffffffffffffffffffffffffff169050600073ffffffffffffffffffffffffffffffffffffffff168173ffffffffffffffffffffffffffffffffffffffff160361079a576040517f08c379a000000000000000000000000000000000000000000000000000000000815260040161079190611e83565b60405180910390fd5b80915050919050565b60008073ffffffffffffffffffffffffffffffffffffffff168273ffffffffffffffffffffffffffffffffffffffff1603610813576040517f08c379a000000000000000000000000000000000000000000000000000000000815260040161080a90611f15565b60405180910390fd5b600360008373ffffffffffffffffffffffffffffffffffffffff1673ffffffffffffffffffffffffffffffffffffffff168152602001908152602001600020549050919050565b60066020528060005260406000206000915090508060000154908060010154908060020154908060030160009054906101000a900473ffffffffffffffffffffffffffffffffffffffff16905084565b6060600180546108b990611b98565b80601f01602080910402602001604051908101604052809291908181526020018280546108e590611b98565b80156109325780601f1061090757610100808354040283529160200191610932565b820191906000526020600020905b81548152906001019060200180831161091557829003601f168201915b5050505050905090565b61094e610947610bcb565b8383610fd0565b5050565b600a5481565b610969610963610bcb565b83610c8c565b6109a8576040517f08c379a000000000000000000000000000000000000000000000000000000000815260040161099f90611df1565b60405180910390fd5b6109b48484848461113c565b50505050565b60606109c582610b5f565b610a04576040517f08c379a00000000000000000000000000000000000000000000000000000000081526004016109fb90611fa7565b60405180910390fd5b6000610a0e611198565b90506000815111610a2e5760405180602001604052806000815250610a59565b80610a38846111af565b604051602001610a49929190612003565b6040516020818303038152906040525b915050919050565b6000600560008473ffffffffffffffffffffffffffffffffffffffff1673ffffffffffffffffffffffffffffffffffffffff16815260200190815260200160002060008373ffffffffffffffffffffffffffffffffffffffff1673ffffffffffffffffffffffffffffffffffffffff16815260200190815260200160002060009054906101000a900460ff16905092915050565b60007f01ffc9a7000000000000000000000000000000000000000000000000000000007bffffffffffffffffffffffffffffffffffffffffffffffffffffffff1916827bffffffffffffffffffffffffffffffffffffffffffffffffffffffff1916149050919050565b60008073ffffffffffffffffffffffffffffffffffffffff166002600084815260200190815260200160002060009054906101000a900473ffffffffffffffffffffffffffffffffffffffff1673ffffffffffffffffffffffffffffffffffffffff1614159050919050565b600033905090565b816004600083815260200190815260200160002060006101000a81548173ffffffffffffffffffffffffffffffffffffffff021916908373ffffffffffffffffffffffffffffffffffffffff160217905550808273ffffffffffffffffffffffffffffffffffffffff16610c46836106f2565b73ffffffffffffffffffffffffffffffffffffffff167f8c5be1e5ebec7d5bd14f71427d1e84f3dd0314c0f7b2291e5b200ac8c7c3b92560405160405180910390a45050565b6000610c9782610b5f565b610cd6576040517f08c379a0000000000000000000000000000000000000000000000000000000008152600401610ccd90612099565b60405180910390fd5b6000610ce1836106f2565b90508073ffffffffffffffffffffffffffffffffffffffff168473ffffffffffffffffffffffffffffffffffffffff161480610d235750610d228185610a61565b5b80610d6157508373ffffffffffffffffffffffffffffffffffffffff16610d49846104d0565b73ffffffffffffffffffffffffffffffffffffffff16145b91505092915050565b8273ffffffffffffffffffffffffffffffffffffffff16610d8a826106f2565b73ffffffffffffffffffffffffffffffffffffffff1614610de0576040517f08c379a0000000000000000000000000000000000000000000000000000000008152600401610dd79061212b565b60405180910390fd5b600073ffffffffffffffffffffffffffffffffffffffff168273ffffffffffffffffffffffffffffffffffffffff1603610e4f576040517f08c379a0000000000000000000000000000000000000000000000000000000008152600401610e46906121bd565b60405180910390fd5b610e5a83838361130f565b610e65600082610bd3565b6001600360008573ffffffffffffffffffffffffffffffffffffffff1673ffffffffffffffffffffffffffffffffffffffff1681526020019081526020016000206000828254610eb5919061220c565b925050819055506001600360008473ffffffffffffffffffffffffffffffffffffffff1673ffffffffffffffffffffffffffffffffffffffff1681526020019081526020016000206000828254610f0c9190612240565b92505081905550816002600083815260200190815260200160002060006101000a81548173ffffffffffffffffffffffffffffffffffffffff021916908373ffffffffffffffffffffffffffffffffffffffff160217905550808273ffffffffffffffffffffffffffffffffffffffff168473ffffffffffffffffffffffffffffffffffffffff167fddf252ad1be2c89b69c2b068fc378daa952ba7f163c4a11628f55a4df523b3ef60405160405180910390a4610fcb838383611314565b505050565b8173ffffffffffffffffffffffffffffffffffffffff168373ffffffffffffffffffffffffffffffffffffffff160361103e576040517f08c379a0000000000000000000000000000000000000000000000000000000008152600401611035906122e2565b60405180910390fd5b80600560008573ffffffffffffffffffffffffffffffffffffffff1673ffffffffffffffffffffffffffffffffffffffff16815260200190815260200160002060008473ffffffffffffffffffffffffffffffffffffffff1673ffffffffffffffffffffffffffffffffffffffff16815260200190815260200160002060006101000a81548160ff0219169083151502179055508173ffffffffffffffffffffffffffffffffffffffff168373ffffffffffffffffffffffffffffffffffffffff167f17307eab39ab6107e8899845ad3d59bd9653f200f220920489ca2b5937696c318360405161112f9190611615565b60405180910390a3505050565b611147848484610d6a565b611153848484846113b2565b611192576040517f08c379a000000000000000000000000000000000000000000000000000000000815260040161118990612374565b60405180910390fd5b50505050565b606060405180602001604052806000815250905090565b6060600082036111f6576040518060400160405280600181526020017f3000000000000000000000000000000000000000000000000000000000000000815250905061130a565b600082905060005b6000821461122857808061121190612394565b915050600a82611221919061240b565b91506111fe565b60008167ffffffffffffffff8111156112445761124361197b565b5b6040519080825280601f01601f1916602001820160405280156112765781602001600182028036833780820191505090505b5090505b600085146113035760018261128f919061220c565b9150600a8561129e919061243c565b60306112aa9190612240565b60f81b8183815181106112c0576112bf61246d565b5b60200101907effffffffffffffffffffffffffffffffffffffffffffffffffffffffffffff1916908160001a905350600a856112fc919061240b565b945061127a565b8093505050505b919050565b505050565b61131f838383611539565b816006600083815260200190815260200160002060030160006101000a81548173ffffffffffffffffffffffffffffffffffffffff021916908373ffffffffffffffffffffffffffffffffffffffff1602179055507f9c65bdcdf3baa5d433981546cddddb0c820aa405c7bd651375df9f19f026987681836040516113a592919061249c565b60405180910390a1505050565b60006113d38473ffffffffffffffffffffffffffffffffffffffff1661153e565b1561152c578373ffffffffffffffffffffffffffffffffffffffff1663150b7a026113fc610bcb565b8786866040518563ffffffff1660e01b815260040161141e949392919061251a565b6020604051808303816000875af192505050801561145a57506040513d601f19601f82011682018060405250810190611457919061257b565b60015b6114dc573d806000811461148a576040519150601f19603f3d011682016040523d82523d6000602084013e61148f565b606091505b5060008151036114d4576040517f08c379a00000000000000000000000000000000000000000000000000000000081526004016114cb90612374565b60405180910390fd5b805181602001fd5b63150b7a0260e01b7bffffffffffffffffffffffffffffffffffffffffffffffffffffffff1916817bffffffffffffffffffffffffffffffffffffffffffffffffffffffff191614915050611531565b600190505b949350505050565b505050565b6000808273ffffffffffffffffffffffffffffffffffffffff163b119050919050565b6000604051905090565b600080fd5b600080fd5b60007fffffffff0000000000000000000000000000000000000000000000000000000082169050919050565b6115aa81611575565b81146115b557600080fd5b50565b6000813590506115c7816115a1565b92915050565b6000602082840312156115e3576115e261156b565b5b60006115f1848285016115b8565b91505092915050565b60008115159050919050565b61160f816115fa565b82525050565b600060208201905061162a6000830184611606565b92915050565b600081519050919050565b600082825260208201905092915050565b60005b8381101561166a57808201518184015260208101905061164f565b83811115611679576000848401525b50505050565b6000601f19601f8301169050919050565b600061169b82611630565b6116a5818561163b565b93506116b581856020860161164c565b6116be8161167f565b840191505092915050565b600060208201905081810360008301526116e38184611690565b905092915050565b6000819050919050565b6116fe816116eb565b811461170957600080fd5b50565b60008135905061171b816116f5565b92915050565b6000602082840312156117375761173661156b565b5b60006117458482850161170c565b91505092915050565b600073ffffffffffffffffffffffffffffffffffffffff82169050919050565b60006117798261174e565b9050919050565b6117898161176e565b82525050565b60006020820190506117a46000830184611780565b92915050565b6117b38161176e565b81146117be57600080fd5b50565b6000813590506117d0816117aa565b92915050565b600080604083850312156117ed576117ec61156b565b5b60006117fb858286016117c1565b925050602061180c8582860161170c565b9150509250929050565b60008060006060848603121561182f5761182e61156b565b5b600061183d868287016117c1565b935050602061184e868287016117c1565b925050604061185f8682870161170c565b9150509250925092565b611872816116eb565b82525050565b600060208201905061188d6000830184611869565b92915050565b6000602082840312156118a9576118a861156b565b5b60006118b7848285016117c1565b91505092915050565b60006080820190506118d56000830187611869565b6118e26020830186611869565b6118ef6040830185611869565b6118fc6060830184611780565b95945050505050565b61190e816115fa565b811461191957600080fd5b50565b60008135905061192b81611905565b92915050565b600080604083850312156119485761194761156b565b5b6000611956858286016117c1565b92505060206119678582860161191c565b9150509250929050565b600080fd5b600080fd5b7f4e487b7100000000000000000000000000000000000000000000000000000000600052604160045260246000fd5b6119b38261167f565b810181811067ffffffffffffffff821117156119d2576119d161197b565b5b80604052505050565b60006119e5611561565b90506119f182826119aa565b919050565b600067ffffffffffffffff821115611a1157611a1061197b565b5b611a1a8261167f565b9050602081019050919050565b82818337600083830152505050565b6000611a49611a44846119f6565b6119db565b905082815260208101848484011115611a6557611a64611976565b5b611a70848285611a27565b509392505050565b600082601f830112611a8d57611a8c611971565b5b8135611a9d848260208601611a36565b91505092915050565b60008060008060808587031215611ac057611abf61156b565b5b6000611ace878288016117c1565b9450506020611adf878288016117c1565b9350506040611af08782880161170c565b925050606085013567ffffffffffffffff811115611b1157611b10611570565b5b611b1d87828801611a78565b91505092959194509250565b60008060408385031215611b4057611b3f61156b565b5b6000611b4e858286016117c1565b9250506020611b5f858286016117c1565b9150509250929050565b7f4e487b7100000000000000000000000000000000000000000000000000000000600052602260045260246000fd5b60006002820490506001821680611bb057607f821691505b602082108103611bc357611bc2611b69565b5b50919050565b7f4552433732313a20617070726f76656420717565727920666f72206e6f6e657860008201527f697374656e7420746f6b656e0000000000000000000000000000000000000000602082015250565b6000611c25602c8361163b565b9150611c3082611bc9565b604082019050919050565b60006020820190508181036000830152611c5481611c18565b9050919050565b7f4552433732313a20617070726f76616c20746f2063757272656e74206f776e6560008201527f7200000000000000000000000000000000000000000000000000000000000000602082015250565b6000611cb760218361163b565b9150611cc282611c5b565b604082019050919050565b60006020820190508181036000830152611ce681611caa565b9050919050565b7f4552433732313a20617070726f76652063616c6c6572206973206e6f74206f7760008201527f6e6572206e6f7220617070726f76656420666f7220616c6c0000000000000000602082015250565b6000611d4960388361163b565b9150611d5482611ced565b604082019050919050565b60006020820190508181036000830152611d7881611d3c565b9050919050565b7f4552433732313a207472616e736665722063616c6c6572206973206e6f74206f60008201527f776e6572206e6f7220617070726f766564000000000000000000000000000000602082015250565b6000611ddb60318361163b565b9150611de682611d7f565b604082019050919050565b60006020820190508181036000830152611e0a81611dce565b9050919050565b7f4552433732313a206f776e657220717565727920666f72206e6f6e657869737460008201527f656e7420746f6b656e0000000000000000000000000000000000000000000000602082015250565b6000611e6d60298361163b565b9150611e7882611e11565b604082019050919050565b60006020820190508181036000830152611e9c81611e60565b9050919050565b7f4552433732313a2062616c616e636520717565727920666f7220746865207a6560008201527f726f206164647265737300000000000000000000000000000000000000000000602082015250565b6000611eff602a8361163b565b9150611f0a82611ea3565b604082019050919050565b60006020820190508181036000830152611f2e81611ef2565b9050919050565b7f4552433732314d657461646174613a2055524920717565727920666f72206e6f60008201527f6e6578697374656e7420746f6b656e0000000000000000000000000000000000602082015250565b6000611f91602f8361163b565b9150611f9c82611f35565b604082019050919050565b60006020820190508181036000830152611fc081611f84565b9050919050565b600081905092915050565b6000611fdd82611630565b611fe78185611fc7565b9350611ff781856020860161164c565b80840191505092915050565b600061200f8285611fd2565b915061201b8284611fd2565b91508190509392505050565b7f4552433732313a206f70657261746f7220717565727920666f72206e6f6e657860008201527f697374656e7420746f6b656e0000000000000000000000000000000000000000602082015250565b6000612083602c8361163b565b915061208e82612027565b604082019050919050565b600060208201905081810360008301526120b281612076565b9050919050565b7f4552433732313a207472616e736665722066726f6d20696e636f72726563742060008201527f6f776e6572000000000000000000000000000000000000000000000000000000602082015250565b600061211560258361163b565b9150612120826120b9565b604082019050919050565b6000602082019050818103600083015261214481612108565b9050919050565b7f4552433732313a207472616e7366657220746f20746865207a65726f2061646460008201527f7265737300000000000000000000000000000000000000000000000000000000602082015250565b60006121a760248361163b565b91506121b28261214b565b604082019050919050565b600060208201905081810360008301526121d68161219a565b9050919050565b7f4e487b7100000000000000000000000000000000000000000000000000000000600052601160045260246000fd5b6000612217826116eb565b9150612222836116eb565b925082821015612235576122346121dd565b5b828203905092915050565b600061224b826116eb565b9150612256836116eb565b9250827fffffffffffffffffffffffffffffffffffffffffffffffffffffffffffffffff0382111561228b5761228a6121dd565b5b828201905092915050565b7f4552433732313a20617070726f766520746f2063616c6c657200000000000000600082015250565b60006122cc60198361163b565b91506122d782612296565b602082019050919050565b600060208201905081810360008301526122fb816122bf565b9050919050565b7f4552433732313a207472616e7366657220746f206e6f6e20455243373231526560008201527f63656976657220696d706c656d656e7465720000000000000000000000000000602082015250565b600061235e60328361163b565b915061236982612302565b604082019050919050565b6000602082019050818103600083015261238d81612351565b9050919050565b600061239f826116eb565b91507fffffffffffffffffffffffffffffffffffffffffffffffffffffffffffffffff82036123d1576123d06121dd565b5b600182019050919050565b7f4e487b7100000000000000000000000000000000000000000000000000000000600052601260045260246000fd5b6000612416826116eb565b9150612421836116eb565b925082612431576124306123dc565b5b828204905092915050565b6000612447826116eb565b9150612452836116eb565b925082612462576124616123dc565b5b828206905092915050565b7f4e487b7100000000000000000000000000000000000000000000000000000000600052603260045260246000fd5b60006040820190506124b16000830185611869565b6124be6020830184611780565b9392505050565b600081519050919050565b600082825260208201905092915050565b60006124ec826124c5565b6124f681856124d0565b935061250681856020860161164c565b61250f8161167f565b840191505092915050565b600060808201905061252f6000830187611780565b61253c6020830186611780565b6125496040830185611869565b818103606083015261255b81846124e1565b905095945050505050565b600081519050612575816115a1565b92915050565b6000602082840312156125915761259061156b565b5b600061259f84828501612566565b9150509291505056fea26469706673582212200fd661b3323945fbc71a729a652cbc62131f7a1ff7c38fba78d70a85c313ceb864736f6c634300080e0033",
  "immutableReferences": {},
  "source": "// SPDX-License-Identifier: UNLICENSED\r\npragma solidity >=0.6.0 <0.9.0;\r\n\r\nimport \"@openzeppelin/contracts/token/ERC721/ERC721.sol\";\r\nimport \"@openzeppelin/contracts/utils/math/SafeMath.sol\";\r\n\r\ncontract DStreamInvestNFT is ERC721 {\r\n  using SafeMath for uint256;\r\n\r\n  struct Metadata {\r\n    uint tokenId;\r\n    uint projectId;\r\n    uint projectInvestorsRewardsShare;\r\n    address owner;\r\n  }\r\n  mapping(uint => Metadata) public sharesByTokenId;\r\n  mapping(uint => uint) internal tokensTotalsByProjectId;\r\n  mapping(uint => mapping(uint => uint)) tokensIdsByProjectIdAndOrder;\r\n\r\n  uint public decimals = 12;\r\n  uint public tokensCount;\r\n\r\n  event DInvestNFTCreated(\r\n    uint tokenId,\r\n    uint projectId,\r\n    uint projectInvestorsRewardsShare,\r\n    address owner\r\n  );\r\n\r\n  event OwnerChanged(\r\n    uint tokenId, \r\n    address newOwner\r\n  );\r\n\r\n  constructor() ERC721(\"DStream Invest NFT\", \"DInvestNFT\") {}\r\n\r\n  \r\n  function _getPercentage(uint low, uint high) private view returns (uint) {\r\n    // max contributions in millions (10 ** 6); therefore, max decimal in this calculating 10 ** 18 (6 + 12)\r\n    // decimals (12) is precision, example: 478965654123 = 47,8965654123 %\r\n    return low.mul(10 ** decimals) / high;\r\n  }\r\n\r\n  function mintInvestNFT(\r\n    address to, uint projectId, uint contributions, uint total\r\n  ) internal {\r\n    require(msg.sender != address(this));\r\n    tokensCount = tokensCount.add(1);\r\n    _safeMint(to, tokensCount);\r\n\r\n    uint share = _getPercentage(contributions, total);\r\n    sharesByTokenId[tokensCount] = Metadata(\r\n      tokensCount, projectId, share, to\r\n    );\r\n\r\n    uint newTokensTotalPerProject = tokensTotalsByProjectId[\r\n      projectId\r\n    ].add(1);\r\n\r\n    tokensTotalsByProjectId[projectId] = newTokensTotalPerProject;\r\n    tokensIdsByProjectIdAndOrder[projectId][newTokensTotalPerProject] = tokensCount;\r\n\r\n    emit DInvestNFTCreated(\r\n      tokensCount, projectId, share, to\r\n    );\r\n  }\r\n\r\n  // Hook\r\n  function _afterTokenTransfer(address from, address to, uint256 tokenId)\r\n    internal virtual override\r\n  {\r\n    super._afterTokenTransfer(from, to, tokenId);\r\n    sharesByTokenId[tokenId].owner = to;\r\n    emit OwnerChanged(tokenId, to);\r\n  }\r\n\r\n}\r\n",
  "sourcePath": "C:\\Workspace\\DStream\\backend\\contracts\\tokens\\DStreamInvestNFT.sol",
  "compiler": {
    "name": "solc",
    "version": "0.8.14+commit.80d49f37.Emscripten.clang"
  },
  "schemaVersion": "3.4.7",
  "updatedAt": "2022-06-26T08:54:02.034Z",
  "devdoc": {
    "kind": "dev",
    "methods": {
      "approve(address,uint256)": {
        "details": "See {IERC721-approve}."
      },
      "balanceOf(address)": {
        "details": "See {IERC721-balanceOf}."
      },
      "getApproved(uint256)": {
        "details": "See {IERC721-getApproved}."
      },
      "isApprovedForAll(address,address)": {
        "details": "See {IERC721-isApprovedForAll}."
      },
      "name()": {
        "details": "See {IERC721Metadata-name}."
      },
      "ownerOf(uint256)": {
        "details": "See {IERC721-ownerOf}."
      },
      "safeTransferFrom(address,address,uint256)": {
        "details": "See {IERC721-safeTransferFrom}."
      },
      "safeTransferFrom(address,address,uint256,bytes)": {
        "details": "See {IERC721-safeTransferFrom}."
      },
      "setApprovalForAll(address,bool)": {
        "details": "See {IERC721-setApprovalForAll}."
      },
      "supportsInterface(bytes4)": {
        "details": "See {IERC165-supportsInterface}."
      },
      "symbol()": {
        "details": "See {IERC721Metadata-symbol}."
      },
      "tokenURI(uint256)": {
        "details": "See {IERC721Metadata-tokenURI}."
      },
      "transferFrom(address,address,uint256)": {
        "details": "See {IERC721-transferFrom}."
      }
    },
    "version": 1
  },
  "userdoc": {
    "kind": "user",
    "methods": {},
    "version": 1
  }
}