{
  "contractName": "ProjectRBAC",
  "abi": [
    {
      "anonymous": false,
      "inputs": [
        {
          "indexed": true,
          "internalType": "bytes32",
          "name": "role",
          "type": "bytes32"
        },
        {
          "indexed": true,
          "internalType": "bytes32",
          "name": "previousAdminRole",
          "type": "bytes32"
        },
        {
          "indexed": true,
          "internalType": "bytes32",
          "name": "newAdminRole",
          "type": "bytes32"
        }
      ],
      "name": "RoleAdminChanged",
      "type": "event"
    },
    {
      "anonymous": false,
      "inputs": [
        {
          "indexed": true,
          "internalType": "bytes32",
          "name": "role",
          "type": "bytes32"
        },
        {
          "indexed": true,
          "internalType": "address",
          "name": "account",
          "type": "address"
        },
        {
          "indexed": true,
          "internalType": "address",
          "name": "sender",
          "type": "address"
        }
      ],
      "name": "RoleGranted",
      "type": "event"
    },
    {
      "anonymous": false,
      "inputs": [
        {
          "indexed": true,
          "internalType": "bytes32",
          "name": "role",
          "type": "bytes32"
        },
        {
          "indexed": true,
          "internalType": "address",
          "name": "account",
          "type": "address"
        },
        {
          "indexed": true,
          "internalType": "address",
          "name": "sender",
          "type": "address"
        }
      ],
      "name": "RoleRevoked",
      "type": "event"
    },
    {
      "inputs": [],
      "name": "ADMIN",
      "outputs": [
        {
          "internalType": "bytes32",
          "name": "",
          "type": "bytes32"
        }
      ],
      "stateMutability": "view",
      "type": "function"
    },
    {
      "inputs": [],
      "name": "DEFAULT_ADMIN_ROLE",
      "outputs": [
        {
          "internalType": "bytes32",
          "name": "",
          "type": "bytes32"
        }
      ],
      "stateMutability": "view",
      "type": "function"
    },
    {
      "inputs": [],
      "name": "EXECUTIVE_PRODUCER",
      "outputs": [
        {
          "internalType": "bytes32",
          "name": "",
          "type": "bytes32"
        }
      ],
      "stateMutability": "view",
      "type": "function"
    },
    {
      "inputs": [],
      "name": "PRODUCER",
      "outputs": [
        {
          "internalType": "bytes32",
          "name": "",
          "type": "bytes32"
        }
      ],
      "stateMutability": "view",
      "type": "function"
    },
    {
      "inputs": [
        {
          "internalType": "bytes32",
          "name": "role",
          "type": "bytes32"
        }
      ],
      "name": "getRoleAdmin",
      "outputs": [
        {
          "internalType": "bytes32",
          "name": "",
          "type": "bytes32"
        }
      ],
      "stateMutability": "view",
      "type": "function"
    },
    {
      "inputs": [
        {
          "internalType": "bytes32",
          "name": "role",
          "type": "bytes32"
        },
        {
          "internalType": "address",
          "name": "account",
          "type": "address"
        }
      ],
      "name": "grantRole",
      "outputs": [],
      "stateMutability": "nonpayable",
      "type": "function"
    },
    {
      "inputs": [
        {
          "internalType": "bytes32",
          "name": "role",
          "type": "bytes32"
        },
        {
          "internalType": "address",
          "name": "account",
          "type": "address"
        }
      ],
      "name": "hasRole",
      "outputs": [
        {
          "internalType": "bool",
          "name": "",
          "type": "bool"
        }
      ],
      "stateMutability": "view",
      "type": "function"
    },
    {
      "inputs": [
        {
          "internalType": "bytes32",
          "name": "role",
          "type": "bytes32"
        },
        {
          "internalType": "address",
          "name": "account",
          "type": "address"
        }
      ],
      "name": "renounceRole",
      "outputs": [],
      "stateMutability": "nonpayable",
      "type": "function"
    },
    {
      "inputs": [
        {
          "internalType": "bytes32",
          "name": "role",
          "type": "bytes32"
        },
        {
          "internalType": "address",
          "name": "account",
          "type": "address"
        }
      ],
      "name": "revokeRole",
      "outputs": [],
      "stateMutability": "nonpayable",
      "type": "function"
    },
    {
      "inputs": [
        {
          "internalType": "bytes4",
          "name": "interfaceId",
          "type": "bytes4"
        }
      ],
      "name": "supportsInterface",
      "outputs": [
        {
          "internalType": "bool",
          "name": "",
          "type": "bool"
        }
      ],
      "stateMutability": "view",
      "type": "function"
    },
    {
      "inputs": [
        {
          "internalType": "address",
          "name": "userAddr",
          "type": "address"
        }
      ],
      "name": "createExecutiveProducer",
      "outputs": [],
      "stateMutability": "nonpayable",
      "type": "function"
    },
    {
      "inputs": [
        {
          "internalType": "address",
          "name": "userAddr",
          "type": "address"
        }
      ],
      "name": "createProducer",
      "outputs": [],
      "stateMutability": "nonpayable",
      "type": "function"
    },
    {
      "inputs": [
        {
          "internalType": "address",
          "name": "userAddr",
          "type": "address"
        }
      ],
      "name": "removeExecutiveProducer",
      "outputs": [],
      "stateMutability": "nonpayable",
      "type": "function"
    },
    {
      "inputs": [
        {
          "internalType": "address",
          "name": "userAddr",
          "type": "address"
        }
      ],
      "name": "demoteExecutiveProducer",
      "outputs": [],
      "stateMutability": "nonpayable",
      "type": "function"
    },
    {
      "inputs": [
        {
          "internalType": "address",
          "name": "userAddr",
          "type": "address"
        }
      ],
      "name": "removeProducer",
      "outputs": [],
      "stateMutability": "nonpayable",
      "type": "function"
    }
  ],
  "bytecode": "0x608060405234801561001057600080fd5b506119dd806100206000396000f3fe608060405234801561001057600080fd5b50600436106100f55760003560e01c806358ac612c116100975780639c5b2a19116100665780639c5b2a191461026e578063a217fddf1461028a578063d2e1da1e146102a8578063d547741f146102c6576100f5565b806358ac612c146101ea5780637742ab9f1461020657806382e45ba01461022257806391d148541461023e576100f5565b80632f2ff15d116100d35780632f2ff15d1461017857806336568abe146101945780633f185b6c146101b057806343487d8d146101cc576100f5565b806301ffc9a7146100fa578063248a9ca31461012a5780632a0acc6a1461015a575b600080fd5b610114600480360381019061010f91906110bb565b6102e2565b6040516101219190611103565b60405180910390f35b610144600480360381019061013f9190611154565b61035c565b6040516101519190611190565b60405180910390f35b61016261037b565b60405161016f9190611190565b60405180910390f35b610192600480360381019061018d9190611209565b61039f565b005b6101ae60048036038101906101a99190611209565b6103c0565b005b6101ca60048036038101906101c59190611249565b610443565b005b6101d4610504565b6040516101e19190611190565b60405180910390f35b61020460048036038101906101ff9190611249565b610528565b005b610220600480360381019061021b9190611249565b6106e9565b005b61023c60048036038101906102379190611249565b6108ab565b005b61025860048036038101906102539190611209565b61096d565b6040516102659190611103565b60405180910390f35b61028860048036038101906102839190611249565b6109d7565b005b610292610af2565b60405161029f9190611190565b60405180910390f35b6102b0610af9565b6040516102bd9190611190565b60405180910390f35b6102e060048036038101906102db9190611209565b610b1d565b005b60007f7965db0b000000000000000000000000000000000000000000000000000000007bffffffffffffffffffffffffffffffffffffffffffffffffffffffff1916827bffffffffffffffffffffffffffffffffffffffffffffffffffffffff19161480610355575061035482610b3e565b5b9050919050565b6000806000838152602001908152602001600020600101549050919050565b7fdf8b4c520ffe197c5343c6f5aec59570151ef9a492f2c624fd45ddde6135ec4281565b6103a88261035c565b6103b181610ba8565b6103bb8383610bbc565b505050565b6103c8610c9c565b73ffffffffffffffffffffffffffffffffffffffff168173ffffffffffffffffffffffffffffffffffffffff1614610435576040517f08c379a000000000000000000000000000000000000000000000000000000000815260040161042c906112f9565b60405180910390fd5b61043f8282610ca4565b5050565b7f948fe2b0ce12a6942353b73cf8db43299111ff826b4a5c052c6f460715b6749561046d81610ba8565b6104977fa26228957b4ff1ee8d2f4555d58f130924b7939446a6af38afd42a510a51fbb48361096d565b6104d6576040517f08c379a00000000000000000000000000000000000000000000000000000000081526004016104cd90611365565b60405180910390fd5b6105007fa26228957b4ff1ee8d2f4555d58f130924b7939446a6af38afd42a510a51fbb483610b1d565b5050565b7f948fe2b0ce12a6942353b73cf8db43299111ff826b4a5c052c6f460715b6749581565b6105527fdf8b4c520ffe197c5343c6f5aec59570151ef9a492f2c624fd45ddde6135ec423361096d565b610591576040517f08c379a0000000000000000000000000000000000000000000000000000000008152600401610588906113d1565b60405180910390fd5b6105bb7f948fe2b0ce12a6942353b73cf8db43299111ff826b4a5c052c6f460715b674953361096d565b6105fa576040517f08c379a00000000000000000000000000000000000000000000000000000000081526004016105f190611463565b60405180910390fd5b6106247f948fe2b0ce12a6942353b73cf8db43299111ff826b4a5c052c6f460715b674958261096d565b610663576040517f08c379a000000000000000000000000000000000000000000000000000000000815260040161065a906114f5565b60405180910390fd5b61068d7f948fe2b0ce12a6942353b73cf8db43299111ff826b4a5c052c6f460715b6749582610b1d565b6106b77fa26228957b4ff1ee8d2f4555d58f130924b7939446a6af38afd42a510a51fbb48261096d565b6106e6576106e57fa26228957b4ff1ee8d2f4555d58f130924b7939446a6af38afd42a510a51fbb48261039f565b5b50565b6107137fdf8b4c520ffe197c5343c6f5aec59570151ef9a492f2c624fd45ddde6135ec423361096d565b610752576040517f08c379a0000000000000000000000000000000000000000000000000000000008152600401610749906113d1565b60405180910390fd5b61077c7f948fe2b0ce12a6942353b73cf8db43299111ff826b4a5c052c6f460715b674953361096d565b6107bb576040517f08c379a00000000000000000000000000000000000000000000000000000000081526004016107b290611463565b60405180910390fd5b6107e57f948fe2b0ce12a6942353b73cf8db43299111ff826b4a5c052c6f460715b674958261096d565b610824576040517f08c379a000000000000000000000000000000000000000000000000000000000815260040161081b906114f5565b60405180910390fd5b61084e7f948fe2b0ce12a6942353b73cf8db43299111ff826b4a5c052c6f460715b6749582610b1d565b6108787fa26228957b4ff1ee8d2f4555d58f130924b7939446a6af38afd42a510a51fbb48261096d565b156108a8576108a77fa26228957b4ff1ee8d2f4555d58f130924b7939446a6af38afd42a510a51fbb482610b1d565b5b50565b7f948fe2b0ce12a6942353b73cf8db43299111ff826b4a5c052c6f460715b674956108d581610ba8565b6108ff7fa26228957b4ff1ee8d2f4555d58f130924b7939446a6af38afd42a510a51fbb48361096d565b1561093f576040517f08c379a000000000000000000000000000000000000000000000000000000000815260040161093690611561565b60405180910390fd5b6109697fa26228957b4ff1ee8d2f4555d58f130924b7939446a6af38afd42a510a51fbb48361039f565b5050565b600080600084815260200190815260200160002060000160008373ffffffffffffffffffffffffffffffffffffffff1673ffffffffffffffffffffffffffffffffffffffff16815260200190815260200160002060009054906101000a900460ff16905092915050565b7fdf8b4c520ffe197c5343c6f5aec59570151ef9a492f2c624fd45ddde6135ec42610a0181610ba8565b610a2b7f948fe2b0ce12a6942353b73cf8db43299111ff826b4a5c052c6f460715b674958361096d565b15610a6b576040517f08c379a0000000000000000000000000000000000000000000000000000000008152600401610a62906115f3565b60405180910390fd5b610a957f948fe2b0ce12a6942353b73cf8db43299111ff826b4a5c052c6f460715b674958361039f565b610abf7fa26228957b4ff1ee8d2f4555d58f130924b7939446a6af38afd42a510a51fbb48361096d565b610aee57610aed7fa26228957b4ff1ee8d2f4555d58f130924b7939446a6af38afd42a510a51fbb48361039f565b5b5050565b6000801b81565b7fa26228957b4ff1ee8d2f4555d58f130924b7939446a6af38afd42a510a51fbb481565b610b268261035c565b610b2f81610ba8565b610b398383610ca4565b505050565b60007f01ffc9a7000000000000000000000000000000000000000000000000000000007bffffffffffffffffffffffffffffffffffffffffffffffffffffffff1916827bffffffffffffffffffffffffffffffffffffffffffffffffffffffff1916149050919050565b610bb981610bb4610c9c565b610d85565b50565b610bc6828261096d565b610c9857600160008084815260200190815260200160002060000160008373ffffffffffffffffffffffffffffffffffffffff1673ffffffffffffffffffffffffffffffffffffffff16815260200190815260200160002060006101000a81548160ff021916908315150217905550610c3d610c9c565b73ffffffffffffffffffffffffffffffffffffffff168173ffffffffffffffffffffffffffffffffffffffff16837f2f8788117e7eff1d82e926ec794901d17c78024a50270940304540a733656f0d60405160405180910390a45b5050565b600033905090565b610cae828261096d565b15610d8157600080600084815260200190815260200160002060000160008373ffffffffffffffffffffffffffffffffffffffff1673ffffffffffffffffffffffffffffffffffffffff16815260200190815260200160002060006101000a81548160ff021916908315150217905550610d26610c9c565b73ffffffffffffffffffffffffffffffffffffffff168173ffffffffffffffffffffffffffffffffffffffff16837ff6391f5c32d9c69d2a47ea670b442974b53935d1edc7fd64eb21e047a839171b60405160405180910390a45b5050565b610d8f828261096d565b610e1e57610db48173ffffffffffffffffffffffffffffffffffffffff166014610e22565b610dc28360001c6020610e22565b604051602001610dd3929190611725565b6040516020818303038152906040526040517f08c379a0000000000000000000000000000000000000000000000000000000008152600401610e1591906117a9565b60405180910390fd5b5050565b606060006002836002610e359190611804565b610e3f919061185e565b67ffffffffffffffff811115610e5857610e576118b4565b5b6040519080825280601f01601f191660200182016040528015610e8a5781602001600182028036833780820191505090505b5090507f300000000000000000000000000000000000000000000000000000000000000081600081518110610ec257610ec16118e3565b5b60200101907effffffffffffffffffffffffffffffffffffffffffffffffffffffffffffff1916908160001a9053507f780000000000000000000000000000000000000000000000000000000000000081600181518110610f2657610f256118e3565b5b60200101907effffffffffffffffffffffffffffffffffffffffffffffffffffffffffffff1916908160001a90535060006001846002610f669190611804565b610f70919061185e565b90505b6001811115611010577f3031323334353637383961626364656600000000000000000000000000000000600f861660108110610fb257610fb16118e3565b5b1a60f81b828281518110610fc957610fc86118e3565b5b60200101907effffffffffffffffffffffffffffffffffffffffffffffffffffffffffffff1916908160001a905350600485901c94508061100990611912565b9050610f73565b5060008414611054576040517f08c379a000000000000000000000000000000000000000000000000000000000815260040161104b90611987565b60405180910390fd5b8091505092915050565b600080fd5b60007fffffffff0000000000000000000000000000000000000000000000000000000082169050919050565b61109881611063565b81146110a357600080fd5b50565b6000813590506110b58161108f565b92915050565b6000602082840312156110d1576110d061105e565b5b60006110df848285016110a6565b91505092915050565b60008115159050919050565b6110fd816110e8565b82525050565b600060208201905061111860008301846110f4565b92915050565b6000819050919050565b6111318161111e565b811461113c57600080fd5b50565b60008135905061114e81611128565b92915050565b60006020828403121561116a5761116961105e565b5b60006111788482850161113f565b91505092915050565b61118a8161111e565b82525050565b60006020820190506111a56000830184611181565b92915050565b600073ffffffffffffffffffffffffffffffffffffffff82169050919050565b60006111d6826111ab565b9050919050565b6111e6816111cb565b81146111f157600080fd5b50565b600081359050611203816111dd565b92915050565b600080604083850312156112205761121f61105e565b5b600061122e8582860161113f565b925050602061123f858286016111f4565b9150509250929050565b60006020828403121561125f5761125e61105e565b5b600061126d848285016111f4565b91505092915050565b600082825260208201905092915050565b7f416363657373436f6e74726f6c3a2063616e206f6e6c792072656e6f756e636560008201527f20726f6c657320666f722073656c660000000000000000000000000000000000602082015250565b60006112e3602f83611276565b91506112ee82611287565b604082019050919050565b60006020820190508181036000830152611312816112d6565b9050919050565b7f55736572206973206e6f7420612070726f647563657221000000000000000000600082015250565b600061134f601783611276565b915061135a82611319565b602082019050919050565b6000602082019050818103600083015261137e81611342565b9050919050565b7f43616c6c6572206973206e6f7420616e2061646d696e00000000000000000000600082015250565b60006113bb601683611276565b91506113c682611385565b602082019050919050565b600060208201905081810360008301526113ea816113ae565b9050919050565b7f43616c6c6572206973206e6f7420616e206578656375746976652070726f647560008201527f6365720000000000000000000000000000000000000000000000000000000000602082015250565b600061144d602383611276565b9150611458826113f1565b604082019050919050565b6000602082019050818103600083015261147c81611440565b9050919050565b7f55736572206973206e6f7420616e206578656375746976652070726f6475636560008201527f7221000000000000000000000000000000000000000000000000000000000000602082015250565b60006114df602283611276565b91506114ea82611483565b604082019050919050565b6000602082019050818103600083015261150e816114d2565b9050919050565b7f5573657220697320612070726f647563657220616c7265616479210000000000600082015250565b600061154b601b83611276565b915061155682611515565b602082019050919050565b6000602082019050818103600083015261157a8161153e565b9050919050565b7f5573657220697320616e206578656375746976652070726f647563657220616c60008201527f7265616479210000000000000000000000000000000000000000000000000000602082015250565b60006115dd602683611276565b91506115e882611581565b604082019050919050565b6000602082019050818103600083015261160c816115d0565b9050919050565b600081905092915050565b7f416363657373436f6e74726f6c3a206163636f756e7420000000000000000000600082015250565b6000611654601783611613565b915061165f8261161e565b601782019050919050565b600081519050919050565b60005b83811015611693578082015181840152602081019050611678565b838111156116a2576000848401525b50505050565b60006116b38261166a565b6116bd8185611613565b93506116cd818560208601611675565b80840191505092915050565b7f206973206d697373696e6720726f6c6520000000000000000000000000000000600082015250565b600061170f601183611613565b915061171a826116d9565b601182019050919050565b600061173082611647565b915061173c82856116a8565b915061174782611702565b915061175382846116a8565b91508190509392505050565b6000601f19601f8301169050919050565b600061177b8261166a565b6117858185611276565b9350611795818560208601611675565b61179e8161175f565b840191505092915050565b600060208201905081810360008301526117c38184611770565b905092915050565b6000819050919050565b7f4e487b7100000000000000000000000000000000000000000000000000000000600052601160045260246000fd5b600061180f826117cb565b915061181a836117cb565b9250817fffffffffffffffffffffffffffffffffffffffffffffffffffffffffffffffff0483118215151615611853576118526117d5565b5b828202905092915050565b6000611869826117cb565b9150611874836117cb565b9250827fffffffffffffffffffffffffffffffffffffffffffffffffffffffffffffffff038211156118a9576118a86117d5565b5b828201905092915050565b7f4e487b7100000000000000000000000000000000000000000000000000000000600052604160045260246000fd5b7f4e487b7100000000000000000000000000000000000000000000000000000000600052603260045260246000fd5b600061191d826117cb565b9150600082036119305761192f6117d5565b5b600182039050919050565b7f537472696e67733a20686578206c656e67746820696e73756666696369656e74600082015250565b6000611971602083611276565b915061197c8261193b565b602082019050919050565b600060208201905081810360008301526119a081611964565b905091905056fea26469706673582212207f3fb34b2d26a844abd4fd1a5b8587aa6783a4f77c8cbd2bb585f275def920e964736f6c634300080e0033",
  "immutableReferences": {},
  "source": "// SPDX-License-Identifier: UNLICENSED\r\npragma solidity >=0.6.0 <0.9.0;\r\nimport '@openzeppelin/contracts/access/AccessControl.sol';\r\n\r\ncontract ProjectRBAC is AccessControl {\r\n  bytes32 public constant ADMIN = keccak256('ADMIN');\r\n  bytes32 public constant EXECUTIVE_PRODUCER = keccak256('EXECUTIVE_PRODUCER');\r\n  bytes32 public constant PRODUCER = keccak256('PRODUCER');\r\n\r\n  function createExecutiveProducer(address userAddr) public onlyRole(ADMIN) {\r\n    require(\r\n      !hasRole(EXECUTIVE_PRODUCER, userAddr), \r\n      'User is an executive producer already!'\r\n    );\r\n    grantRole(EXECUTIVE_PRODUCER, userAddr);\r\n    // Executive producer is also a producer automatically\r\n    if (!hasRole(PRODUCER, userAddr)) {\r\n        grantRole(PRODUCER, userAddr);\r\n    }\r\n  }\r\n\r\n  function createProducer(address userAddr) public onlyRole(EXECUTIVE_PRODUCER) {\r\n    require(\r\n      !hasRole(PRODUCER, userAddr), \r\n      'User is a producer already!'\r\n    );\r\n    grantRole(PRODUCER, userAddr);\r\n  }\r\n\r\n  function removeExecutiveProducer(address userAddr) public {\r\n    require(hasRole(ADMIN, msg.sender), \"Caller is not an admin\");\r\n    require(\r\n      hasRole(EXECUTIVE_PRODUCER, msg.sender), \r\n      \"Caller is not an executive producer\"\r\n    );\r\n    require(\r\n      hasRole(EXECUTIVE_PRODUCER, userAddr), \r\n      'User is not an executive producer!'\r\n    );\r\n    revokeRole(EXECUTIVE_PRODUCER, userAddr);\r\n    if (hasRole(PRODUCER, userAddr)) {\r\n      revokeRole(PRODUCER, userAddr);\r\n    }\r\n  }\r\n\r\n  function demoteExecutiveProducer(address userAddr) public {\r\n    require(hasRole(ADMIN, msg.sender), \"Caller is not an admin\");\r\n    require(\r\n      hasRole(EXECUTIVE_PRODUCER, msg.sender), \r\n      \"Caller is not an executive producer\"\r\n    );\r\n    require(\r\n      hasRole(EXECUTIVE_PRODUCER, userAddr), \r\n      'User is not an executive producer!'\r\n    );\r\n    revokeRole(EXECUTIVE_PRODUCER, userAddr);\r\n    if (!hasRole(PRODUCER, userAddr)) {\r\n      grantRole(PRODUCER, userAddr);\r\n    }\r\n  }\r\n\r\n  function removeProducer(address userAddr) \r\n    public onlyRole(EXECUTIVE_PRODUCER) \r\n  {\r\n    require(\r\n      hasRole(PRODUCER, userAddr), \r\n      'User is not a producer!'\r\n    );\r\n    revokeRole(PRODUCER, userAddr);\r\n  }\r\n\r\n}\r\n",
  "sourcePath": "C:\\Workspace\\DStream\\backend\\contracts\\users\\ProjectRBAC.sol",
  "compiler": {
    "name": "solc",
    "version": "0.8.14+commit.80d49f37.Emscripten.clang"
  },
  "schemaVersion": "3.4.7",
  "updatedAt": "2022-06-29T15:10:12.213Z",
  "devdoc": {
    "kind": "dev",
    "methods": {
      "getRoleAdmin(bytes32)": {
        "details": "Returns the admin role that controls `role`. See {grantRole} and {revokeRole}. To change a role's admin, use {_setRoleAdmin}."
      },
      "grantRole(bytes32,address)": {
        "details": "Grants `role` to `account`. If `account` had not been already granted `role`, emits a {RoleGranted} event. Requirements: - the caller must have ``role``'s admin role."
      },
      "hasRole(bytes32,address)": {
        "details": "Returns `true` if `account` has been granted `role`."
      },
      "renounceRole(bytes32,address)": {
        "details": "Revokes `role` from the calling account. Roles are often managed via {grantRole} and {revokeRole}: this function's purpose is to provide a mechanism for accounts to lose their privileges if they are compromised (such as when a trusted device is misplaced). If the calling account had been revoked `role`, emits a {RoleRevoked} event. Requirements: - the caller must be `account`."
      },
      "revokeRole(bytes32,address)": {
        "details": "Revokes `role` from `account`. If `account` had been granted `role`, emits a {RoleRevoked} event. Requirements: - the caller must have ``role``'s admin role."
      },
      "supportsInterface(bytes4)": {
        "details": "See {IERC165-supportsInterface}."
      }
    },
    "version": 1
  },
  "userdoc": {
    "kind": "user",
    "methods": {},
    "version": 1
  }
}