{
  "contractName": "User",
  "abi": [
    {
      "anonymous": false,
      "inputs": [
        {
          "indexed": false,
          "internalType": "address",
          "name": "addr",
          "type": "address"
        },
        {
          "indexed": false,
          "internalType": "bool",
          "name": "isLoggedIn",
          "type": "bool"
        },
        {
          "indexed": false,
          "internalType": "uint256",
          "name": "date",
          "type": "uint256"
        }
      ],
      "name": "UserLoginLog",
      "type": "event"
    },
    {
      "anonymous": false,
      "inputs": [
        {
          "indexed": false,
          "internalType": "address",
          "name": "addr",
          "type": "address"
        }
      ],
      "name": "UserRegistered",
      "type": "event"
    },
    {
      "inputs": [
        {
          "internalType": "address",
          "name": "",
          "type": "address"
        }
      ],
      "name": "users",
      "outputs": [
        {
          "internalType": "address",
          "name": "addr",
          "type": "address"
        },
        {
          "internalType": "bool",
          "name": "isLoggedIn",
          "type": "bool"
        },
        {
          "internalType": "uint256",
          "name": "date",
          "type": "uint256"
        }
      ],
      "stateMutability": "view",
      "type": "function"
    },
    {
      "inputs": [
        {
          "internalType": "address",
          "name": "_address",
          "type": "address"
        }
      ],
      "name": "register",
      "outputs": [
        {
          "internalType": "bool",
          "name": "",
          "type": "bool"
        }
      ],
      "stateMutability": "nonpayable",
      "type": "function"
    },
    {
      "inputs": [
        {
          "internalType": "address",
          "name": "_address",
          "type": "address"
        }
      ],
      "name": "login",
      "outputs": [
        {
          "internalType": "bool",
          "name": "",
          "type": "bool"
        }
      ],
      "stateMutability": "nonpayable",
      "type": "function"
    },
    {
      "inputs": [
        {
          "internalType": "address",
          "name": "_address",
          "type": "address"
        }
      ],
      "name": "logout",
      "outputs": [
        {
          "internalType": "bool",
          "name": "",
          "type": "bool"
        }
      ],
      "stateMutability": "nonpayable",
      "type": "function"
    }
  ],
  "bytecode": "0x608060405234801561001057600080fd5b506109b9806100206000396000f3fe608060405234801561001057600080fd5b506004361061004c5760003560e01c806335a6861a146100515780634420e48614610081578063a87430ba146100b1578063cc51f9b9146100e3575b600080fd5b61006b600480360381019061006691906108a6565b610113565b60405161007891906108ee565b60405180910390f35b61009b600480360381019061009691906108a6565b610382565b6040516100a891906108ee565b60405180910390f35b6100cb60048036038101906100c691906108a6565b61057d565b6040516100da93929190610931565b60405180910390f35b6100fd60048036038101906100f891906108a6565b6105d4565b60405161010a91906108ee565b60405180910390f35b60003373ffffffffffffffffffffffffffffffffffffffff166000808473ffffffffffffffffffffffffffffffffffffffff1673ffffffffffffffffffffffffffffffffffffffff16815260200190815260200160002060000160009054906101000a900473ffffffffffffffffffffffffffffffffffffffff1673ffffffffffffffffffffffffffffffffffffffff16146101ae57600080fd5b60016000808473ffffffffffffffffffffffffffffffffffffffff1673ffffffffffffffffffffffffffffffffffffffff16815260200190815260200160002060000160146101000a81548160ff021916908315150217905550426000808473ffffffffffffffffffffffffffffffffffffffff1673ffffffffffffffffffffffffffffffffffffffff168152602001908152602001600020600101819055507f965dfc6c43dd05e27fe810d49a8fe38e7214e3e2982b932b7d21a3ec504f05b76000808473ffffffffffffffffffffffffffffffffffffffff1673ffffffffffffffffffffffffffffffffffffffff16815260200190815260200160002060000160009054906101000a900473ffffffffffffffffffffffffffffffffffffffff166000808573ffffffffffffffffffffffffffffffffffffffff1673ffffffffffffffffffffffffffffffffffffffff16815260200190815260200160002060000160149054906101000a900460ff166000808673ffffffffffffffffffffffffffffffffffffffff1673ffffffffffffffffffffffffffffffffffffffff1681526020019081526020016000206001015460405161037193929190610931565b60405180910390a160019050919050565b60003373ffffffffffffffffffffffffffffffffffffffff166000808473ffffffffffffffffffffffffffffffffffffffff1673ffffffffffffffffffffffffffffffffffffffff16815260200190815260200160002060000160009054906101000a900473ffffffffffffffffffffffffffffffffffffffff1673ffffffffffffffffffffffffffffffffffffffff160361041d57600080fd5b816000808473ffffffffffffffffffffffffffffffffffffffff1673ffffffffffffffffffffffffffffffffffffffff16815260200190815260200160002060000160006101000a81548173ffffffffffffffffffffffffffffffffffffffff021916908373ffffffffffffffffffffffffffffffffffffffff16021790555060008060008473ffffffffffffffffffffffffffffffffffffffff1673ffffffffffffffffffffffffffffffffffffffff16815260200190815260200160002060000160146101000a81548160ff021916908315150217905550426000808473ffffffffffffffffffffffffffffffffffffffff1673ffffffffffffffffffffffffffffffffffffffff168152602001908152602001600020600101819055507f54db7a5cb4735e1aac1f53db512d3390390bb6637bd30ad4bf9fc98667d9b9b98260405161056c9190610968565b60405180910390a160019050919050565b60006020528060005260406000206000915090508060000160009054906101000a900473ffffffffffffffffffffffffffffffffffffffff16908060000160149054906101000a900460ff16908060010154905083565b60003373ffffffffffffffffffffffffffffffffffffffff166000808473ffffffffffffffffffffffffffffffffffffffff1673ffffffffffffffffffffffffffffffffffffffff16815260200190815260200160002060000160009054906101000a900473ffffffffffffffffffffffffffffffffffffffff1673ffffffffffffffffffffffffffffffffffffffff161461066f57600080fd5b60008060008473ffffffffffffffffffffffffffffffffffffffff1673ffffffffffffffffffffffffffffffffffffffff16815260200190815260200160002060000160146101000a81548160ff021916908315150217905550426000808473ffffffffffffffffffffffffffffffffffffffff1673ffffffffffffffffffffffffffffffffffffffff168152602001908152602001600020600101819055507f965dfc6c43dd05e27fe810d49a8fe38e7214e3e2982b932b7d21a3ec504f05b76000808473ffffffffffffffffffffffffffffffffffffffff1673ffffffffffffffffffffffffffffffffffffffff16815260200190815260200160002060000160009054906101000a900473ffffffffffffffffffffffffffffffffffffffff166000808573ffffffffffffffffffffffffffffffffffffffff1673ffffffffffffffffffffffffffffffffffffffff16815260200190815260200160002060000160149054906101000a900460ff166000808673ffffffffffffffffffffffffffffffffffffffff1673ffffffffffffffffffffffffffffffffffffffff1681526020019081526020016000206001015460405161083293929190610931565b60405180910390a160019050919050565b600080fd5b600073ffffffffffffffffffffffffffffffffffffffff82169050919050565b600061087382610848565b9050919050565b61088381610868565b811461088e57600080fd5b50565b6000813590506108a08161087a565b92915050565b6000602082840312156108bc576108bb610843565b5b60006108ca84828501610891565b91505092915050565b60008115159050919050565b6108e8816108d3565b82525050565b600060208201905061090360008301846108df565b92915050565b61091281610868565b82525050565b6000819050919050565b61092b81610918565b82525050565b60006060820190506109466000830186610909565b61095360208301856108df565b6109606040830184610922565b949350505050565b600060208201905061097d6000830184610909565b9291505056fea264697066735822122079ae9f892fb12af86093ae9e3858b6a49974370806c7fbb061fe36e52286627f64736f6c634300080e0033",
  "immutableReferences": {},
  "source": "// SPDX-License-Identifier: UNLICENSED\r\npragma solidity >=0.6.0 <0.9.0;\r\n\r\ncontract User {\r\n  struct UserType {\r\n      address addr;\r\n      bool isLoggedIn;\r\n      uint256 date;\r\n  }\r\n\r\n  mapping(address => UserType) public users;\r\n  event UserRegistered(address addr);\r\n  event UserLoginLog(address addr, bool isLoggedIn, uint256 date);\r\n\r\n  function register(address _address) \r\n      public \r\n      returns (bool) \r\n  {\r\n    require(users[_address].addr != msg.sender);\r\n    users[_address].addr = _address;\r\n    users[_address].isLoggedIn = false;\r\n    users[_address].date = block.timestamp;\r\n    emit UserRegistered(_address);\r\n    return true;\r\n  }\r\n\r\n  function login(address _address) public returns (bool) {\r\n    require(users[_address].addr == msg.sender);\r\n    users[_address].isLoggedIn = true;\r\n    users[_address].date = block.timestamp;\r\n\r\n    emit UserLoginLog(\r\n      users[_address].addr,\r\n      users[_address].isLoggedIn,\r\n      users[_address].date\r\n    );\r\n    return true;\r\n  }\r\n\r\n  function logout(address _address) public returns (bool) {\r\n    require(users[_address].addr == msg.sender);\r\n    users[_address].isLoggedIn = false;\r\n    users[_address].date = block.timestamp;\r\n\r\n    emit UserLoginLog(\r\n      users[_address].addr,\r\n      users[_address].isLoggedIn,\r\n      users[_address].date\r\n    );\r\n    return true;\r\n  }\r\n}\r\n",
  "sourcePath": "C:\\Workspace\\DStream\\backend\\contracts\\users\\User.sol",
  "compiler": {
    "name": "solc",
    "version": "0.8.14+commit.80d49f37.Emscripten.clang"
  },
  "schemaVersion": "3.4.7",
  "updatedAt": "2022-06-14T20:03:31.158Z",
  "devdoc": {
    "kind": "dev",
    "methods": {},
    "version": 1
  },
  "userdoc": {
    "kind": "user",
    "methods": {},
    "version": 1
  }
}