{
  "contractName": "Video",
  "abi": [
    {
      "anonymous": false,
      "inputs": [
        {
          "indexed": false,
          "internalType": "uint256",
          "name": "id",
          "type": "uint256"
        },
        {
          "indexed": false,
          "internalType": "string",
          "name": "ipfsCid",
          "type": "string"
        },
        {
          "indexed": false,
          "internalType": "uint256",
          "name": "dateCreated",
          "type": "uint256"
        },
        {
          "indexed": false,
          "internalType": "address",
          "name": "uploader",
          "type": "address"
        },
        {
          "indexed": false,
          "internalType": "uint256",
          "name": "projectId",
          "type": "uint256"
        }
      ],
      "name": "VideoEntryAdded",
      "type": "event"
    },
    {
      "inputs": [
        {
          "internalType": "uint256",
          "name": "",
          "type": "uint256"
        }
      ],
      "name": "videos",
      "outputs": [
        {
          "internalType": "uint256",
          "name": "id",
          "type": "uint256"
        },
        {
          "internalType": "string",
          "name": "ipfsCid",
          "type": "string"
        },
        {
          "internalType": "uint256",
          "name": "dateCreated",
          "type": "uint256"
        },
        {
          "internalType": "address",
          "name": "uploader",
          "type": "address"
        },
        {
          "internalType": "uint256",
          "name": "projectId",
          "type": "uint256"
        }
      ],
      "stateMutability": "view",
      "type": "function",
      "constant": true
    },
    {
      "inputs": [],
      "name": "videosCount",
      "outputs": [
        {
          "internalType": "uint256",
          "name": "",
          "type": "uint256"
        }
      ],
      "stateMutability": "view",
      "type": "function",
      "constant": true
    },
    {
      "inputs": [
        {
          "internalType": "string",
          "name": "_ipfsCid",
          "type": "string"
        },
        {
          "internalType": "address",
          "name": "_uploader",
          "type": "address"
        },
        {
          "internalType": "uint256",
          "name": "_projectId",
          "type": "uint256"
        }
      ],
      "name": "createVideoEntry",
      "outputs": [
        {
          "internalType": "bool",
          "name": "",
          "type": "bool"
        }
      ],
      "stateMutability": "nonpayable",
      "type": "function"
    }
  ],
  "bytecode": "0x608060405234801561001057600080fd5b50610a54806100206000396000f3fe608060405234801561001057600080fd5b50600436106100415760003560e01c8063a42d2c6b14610046578063e6821bf514610076578063ef08523b146100aa575b600080fd5b610060600480360381019061005b919061065d565b6100c8565b60405161006d91906106e7565b60405180910390f35b610090600480360381019061008b9190610702565b6102d2565b6040516100a19594939291906107d5565b60405180910390f35b6100b26103b0565b6040516100bf919061082f565b60405180910390f35b60003373ffffffffffffffffffffffffffffffffffffffff168373ffffffffffffffffffffffffffffffffffffffff161461010257600080fd5b61011860016000546103b690919063ffffffff16565b60008190555060005460016000805481526020019081526020016000206000018190555083600160008054815260200190815260200160002060010190805190602001906101679291906103cc565b504260016000805481526020019081526020016000206002018190555082600160008054815260200190815260200160002060030160006101000a81548173ffffffffffffffffffffffffffffffffffffffff021916908373ffffffffffffffffffffffffffffffffffffffff160217905550816001600080548152602001908152602001600020600401819055507fbbdd07f84c9c5ef7565793f213b6960faa550667db74d123f39efb75e05ba07b6001600080548152602001908152602001600020600001546001600080548152602001908152602001600020600101600160008054815260200190815260200160002060020154600160008054815260200190815260200160002060030160009054906101000a900473ffffffffffffffffffffffffffffffffffffffff166001600080548152602001908152602001600020600401546040516102bf95949392919061093f565b60405180910390a1600190509392505050565b60016020528060005260406000206000915090508060000154908060010180546102fb90610879565b80601f016020809104026020016040519081016040528092919081815260200182805461032790610879565b80156103745780601f1061034957610100808354040283529160200191610374565b820191906000526020600020905b81548152906001019060200180831161035757829003601f168201915b5050505050908060020154908060030160009054906101000a900473ffffffffffffffffffffffffffffffffffffffff16908060040154905085565b60005481565b600081836103c491906109c8565b905092915050565b8280546103d890610879565b90600052602060002090601f0160209004810192826103fa5760008555610441565b82601f1061041357805160ff1916838001178555610441565b82800160010185558215610441579182015b82811115610440578251825591602001919060010190610425565b5b50905061044e9190610452565b5090565b5b8082111561046b576000816000905550600101610453565b5090565b6000604051905090565b600080fd5b600080fd5b600080fd5b600080fd5b6000601f19601f8301169050919050565b7f4e487b7100000000000000000000000000000000000000000000000000000000600052604160045260246000fd5b6104d68261048d565b810181811067ffffffffffffffff821117156104f5576104f461049e565b5b80604052505050565b600061050861046f565b905061051482826104cd565b919050565b600067ffffffffffffffff8211156105345761053361049e565b5b61053d8261048d565b9050602081019050919050565b82818337600083830152505050565b600061056c61056784610519565b6104fe565b90508281526020810184848401111561058857610587610488565b5b61059384828561054a565b509392505050565b600082601f8301126105b0576105af610483565b5b81356105c0848260208601610559565b91505092915050565b600073ffffffffffffffffffffffffffffffffffffffff82169050919050565b60006105f4826105c9565b9050919050565b610604816105e9565b811461060f57600080fd5b50565b600081359050610621816105fb565b92915050565b6000819050919050565b61063a81610627565b811461064557600080fd5b50565b60008135905061065781610631565b92915050565b60008060006060848603121561067657610675610479565b5b600084013567ffffffffffffffff8111156106945761069361047e565b5b6106a08682870161059b565b93505060206106b186828701610612565b92505060406106c286828701610648565b9150509250925092565b60008115159050919050565b6106e1816106cc565b82525050565b60006020820190506106fc60008301846106d8565b92915050565b60006020828403121561071857610717610479565b5b600061072684828501610648565b91505092915050565b61073881610627565b82525050565b600081519050919050565b600082825260208201905092915050565b60005b8381101561077857808201518184015260208101905061075d565b83811115610787576000848401525b50505050565b60006107988261073e565b6107a28185610749565b93506107b281856020860161075a565b6107bb8161048d565b840191505092915050565b6107cf816105e9565b82525050565b600060a0820190506107ea600083018861072f565b81810360208301526107fc818761078d565b905061080b604083018661072f565b61081860608301856107c6565b610825608083018461072f565b9695505050505050565b6000602082019050610844600083018461072f565b92915050565b7f4e487b7100000000000000000000000000000000000000000000000000000000600052602260045260246000fd5b6000600282049050600182168061089157607f821691505b6020821081036108a4576108a361084a565b5b50919050565b60008190508160005260206000209050919050565b600081546108cc81610879565b6108d68186610749565b945060018216600081146108f1576001811461090357610936565b60ff1983168652602086019350610936565b61090c856108aa565b60005b8381101561092e5781548189015260018201915060208101905061090f565b808801955050505b50505092915050565b600060a082019050610954600083018861072f565b818103602083015261096681876108bf565b9050610975604083018661072f565b61098260608301856107c6565b61098f608083018461072f565b9695505050505050565b7f4e487b7100000000000000000000000000000000000000000000000000000000600052601160045260246000fd5b60006109d382610627565b91506109de83610627565b9250827fffffffffffffffffffffffffffffffffffffffffffffffffffffffffffffffff03821115610a1357610a12610999565b5b82820190509291505056fea26469706673582212205c452ce0ddf02401f2e2b628b0c6a27c29471f37a5791ff7ac213b6f58d77e3d64736f6c634300080e0033",
  "immutableReferences": {},
  "source": "// SPDX-License-Identifier: UNLICENSED\npragma solidity >=0.6.0 <0.9.0;\nimport '@openzeppelin/contracts/utils/math/SafeMath.sol';\n\ncontract Video {\n  using SafeMath for uint;\n\n  struct VideoType {\n    uint id;\n    string ipfsCid;\n    uint dateCreated;\n    address uploader;\n    uint projectId;\n  }\n\n  uint public videosCount;\n  mapping(uint => VideoType) public videos;\n\n  event VideoEntryAdded(\n    uint id, string ipfsCid, uint dateCreated, address uploader, uint projectId\n  );\n\n  function createVideoEntry(\n    string memory _ipfsCid, address _uploader, uint _projectId\n  ) public returns (bool) {\n    // must be executive producer and msg.sender must be user\n    require(_uploader == msg.sender);\n    videosCount = videosCount.add(1);\n\n    videos[videosCount].id = videosCount;\n    videos[videosCount].ipfsCid = _ipfsCid;\n    videos[videosCount].dateCreated = block.timestamp;\n    videos[videosCount].uploader = _uploader;\n    videos[videosCount].projectId = _projectId;\n\n    emit VideoEntryAdded(\n      videos[videosCount].id,\n      videos[videosCount].ipfsCid,\n      videos[videosCount].dateCreated,\n      videos[videosCount].uploader,\n      videos[videosCount].projectId\n    );\n    return true;\n  }\n\n}\n",
  "sourcePath": "D:\\WORKSPACE\\DStream\\backend\\contracts\\streaming\\Video.sol",
  "compiler": {
    "name": "solc",
    "version": "0.8.14+commit.80d49f37.Emscripten.clang"
  },
  "schemaVersion": "3.4.7",
  "updatedAt": "2022-06-16T10:46:07.404Z",
  "networkType": "ethereum",
  "devdoc": {
    "kind": "dev",
    "methods": {},
    "version": 1
  },
  "userdoc": {
    "kind": "user",
    "methods": {},
    "version": 1
  }
}