{
  "contractName": "User",
  "abi": [
    {
      "anonymous": false,
      "inputs": [
        {
          "indexed": false,
          "internalType": "address",
          "name": "addr",
          "type": "address"
        },
        {
          "indexed": false,
          "internalType": "bool",
          "name": "isLoggedIn",
          "type": "bool"
        },
        {
          "indexed": false,
          "internalType": "uint256",
          "name": "date",
          "type": "uint256"
        }
      ],
      "name": "UserLoginLog",
      "type": "event"
    },
    {
      "anonymous": false,
      "inputs": [
        {
          "indexed": false,
          "internalType": "address",
          "name": "addr",
          "type": "address"
        }
      ],
      "name": "UserRegistered",
      "type": "event"
    },
    {
      "inputs": [
        {
          "internalType": "address",
          "name": "_address",
          "type": "address"
        }
      ],
      "name": "register",
      "outputs": [
        {
          "internalType": "bool",
          "name": "",
          "type": "bool"
        }
      ],
      "stateMutability": "nonpayable",
      "type": "function"
    },
    {
      "inputs": [
        {
          "internalType": "address",
          "name": "_address",
          "type": "address"
        }
      ],
      "name": "login",
      "outputs": [
        {
          "internalType": "bool",
          "name": "",
          "type": "bool"
        }
      ],
      "stateMutability": "nonpayable",
      "type": "function"
    },
    {
      "inputs": [
        {
          "internalType": "address",
          "name": "_address",
          "type": "address"
        }
      ],
      "name": "logout",
      "outputs": [
        {
          "internalType": "bool",
          "name": "",
          "type": "bool"
        }
      ],
      "stateMutability": "nonpayable",
      "type": "function"
    }
  ],
  "bytecode": "0x608060405234801561001057600080fd5b50610925806100206000396000f3fe608060405234801561001057600080fd5b50600436106100415760003560e01c806335a6861a146100465780634420e48614610076578063cc51f9b9146100a6575b600080fd5b610060600480360381019061005b9190610812565b6100d6565b60405161006d919061085a565b60405180910390f35b610090600480360381019061008b9190610812565b610345565b60405161009d919061085a565b60405180910390f35b6100c060048036038101906100bb9190610812565b610540565b6040516100cd919061085a565b60405180910390f35b60003373ffffffffffffffffffffffffffffffffffffffff166000808473ffffffffffffffffffffffffffffffffffffffff1673ffffffffffffffffffffffffffffffffffffffff16815260200190815260200160002060000160009054906101000a900473ffffffffffffffffffffffffffffffffffffffff1673ffffffffffffffffffffffffffffffffffffffff161461017157600080fd5b60016000808473ffffffffffffffffffffffffffffffffffffffff1673ffffffffffffffffffffffffffffffffffffffff16815260200190815260200160002060000160146101000a81548160ff021916908315150217905550426000808473ffffffffffffffffffffffffffffffffffffffff1673ffffffffffffffffffffffffffffffffffffffff168152602001908152602001600020600101819055507f965dfc6c43dd05e27fe810d49a8fe38e7214e3e2982b932b7d21a3ec504f05b76000808473ffffffffffffffffffffffffffffffffffffffff1673ffffffffffffffffffffffffffffffffffffffff16815260200190815260200160002060000160009054906101000a900473ffffffffffffffffffffffffffffffffffffffff166000808573ffffffffffffffffffffffffffffffffffffffff1673ffffffffffffffffffffffffffffffffffffffff16815260200190815260200160002060000160149054906101000a900460ff166000808673ffffffffffffffffffffffffffffffffffffffff1673ffffffffffffffffffffffffffffffffffffffff168152602001908152602001600020600101546040516103349392919061089d565b60405180910390a160019050919050565b60003373ffffffffffffffffffffffffffffffffffffffff166000808473ffffffffffffffffffffffffffffffffffffffff1673ffffffffffffffffffffffffffffffffffffffff16815260200190815260200160002060000160009054906101000a900473ffffffffffffffffffffffffffffffffffffffff1673ffffffffffffffffffffffffffffffffffffffff16036103e057600080fd5b816000808473ffffffffffffffffffffffffffffffffffffffff1673ffffffffffffffffffffffffffffffffffffffff16815260200190815260200160002060000160006101000a81548173ffffffffffffffffffffffffffffffffffffffff021916908373ffffffffffffffffffffffffffffffffffffffff16021790555060008060008473ffffffffffffffffffffffffffffffffffffffff1673ffffffffffffffffffffffffffffffffffffffff16815260200190815260200160002060000160146101000a81548160ff021916908315150217905550426000808473ffffffffffffffffffffffffffffffffffffffff1673ffffffffffffffffffffffffffffffffffffffff168152602001908152602001600020600101819055507f54db7a5cb4735e1aac1f53db512d3390390bb6637bd30ad4bf9fc98667d9b9b98260405161052f91906108d4565b60405180910390a160019050919050565b60003373ffffffffffffffffffffffffffffffffffffffff166000808473ffffffffffffffffffffffffffffffffffffffff1673ffffffffffffffffffffffffffffffffffffffff16815260200190815260200160002060000160009054906101000a900473ffffffffffffffffffffffffffffffffffffffff1673ffffffffffffffffffffffffffffffffffffffff16146105db57600080fd5b60008060008473ffffffffffffffffffffffffffffffffffffffff1673ffffffffffffffffffffffffffffffffffffffff16815260200190815260200160002060000160146101000a81548160ff021916908315150217905550426000808473ffffffffffffffffffffffffffffffffffffffff1673ffffffffffffffffffffffffffffffffffffffff168152602001908152602001600020600101819055507f965dfc6c43dd05e27fe810d49a8fe38e7214e3e2982b932b7d21a3ec504f05b76000808473ffffffffffffffffffffffffffffffffffffffff1673ffffffffffffffffffffffffffffffffffffffff16815260200190815260200160002060000160009054906101000a900473ffffffffffffffffffffffffffffffffffffffff166000808573ffffffffffffffffffffffffffffffffffffffff1673ffffffffffffffffffffffffffffffffffffffff16815260200190815260200160002060000160149054906101000a900460ff166000808673ffffffffffffffffffffffffffffffffffffffff1673ffffffffffffffffffffffffffffffffffffffff1681526020019081526020016000206001015460405161079e9392919061089d565b60405180910390a160019050919050565b600080fd5b600073ffffffffffffffffffffffffffffffffffffffff82169050919050565b60006107df826107b4565b9050919050565b6107ef816107d4565b81146107fa57600080fd5b50565b60008135905061080c816107e6565b92915050565b600060208284031215610828576108276107af565b5b6000610836848285016107fd565b91505092915050565b60008115159050919050565b6108548161083f565b82525050565b600060208201905061086f600083018461084b565b92915050565b61087e816107d4565b82525050565b6000819050919050565b61089781610884565b82525050565b60006060820190506108b26000830186610875565b6108bf602083018561084b565b6108cc604083018461088e565b949350505050565b60006020820190506108e96000830184610875565b9291505056fea2646970667358221220b360143d74b4e25c094f0990c61f7b8aaa147f40f48e45f074f25d671508477064736f6c634300080e0033",
  "immutableReferences": {},
  "source": "// SPDX-License-Identifier: UNLICENSED\r\npragma solidity >=0.6.0 <0.9.0;\r\n\r\ncontract User {\r\n  struct UserType {\r\n      address addr;\r\n      bool isLoggedIn;\r\n      uint date;\r\n  }\r\n\r\n  mapping(address => UserType) users;\r\n  event UserRegistered(address addr);\r\n  event UserLoginLog(address addr, bool isLoggedIn, uint date);\r\n\r\n  function register(address _address) \r\n      public \r\n      returns (bool) \r\n  {\r\n    require(users[_address].addr != msg.sender);\r\n    users[_address].addr = _address;\r\n    users[_address].isLoggedIn = false;\r\n    users[_address].date = block.timestamp;\r\n    emit UserRegistered(_address);\r\n    return true;\r\n  }\r\n\r\n  function login(address _address) public returns (bool) {\r\n    require(users[_address].addr == msg.sender);\r\n    users[_address].isLoggedIn = true;\r\n    users[_address].date = block.timestamp;\r\n\r\n    emit UserLoginLog(\r\n      users[_address].addr,\r\n      users[_address].isLoggedIn,\r\n      users[_address].date\r\n    );\r\n    return true;\r\n  }\r\n\r\n  function logout(address _address) public returns (bool) {\r\n    require(users[_address].addr == msg.sender);\r\n    users[_address].isLoggedIn = false;\r\n    users[_address].date = block.timestamp;\r\n\r\n    emit UserLoginLog(\r\n      users[_address].addr,\r\n      users[_address].isLoggedIn,\r\n      users[_address].date\r\n    );\r\n    return true;\r\n  }\r\n}\r\n",
  "sourcePath": "C:\\Workspace\\DStream\\backend\\ethereum\\contracts\\users\\User.sol",
  "compiler": {
    "name": "solc",
    "version": "0.8.14+commit.80d49f37.Emscripten.clang"
  },
  "schemaVersion": "3.4.7",
  "updatedAt": "2022-06-03T20:49:48.720Z",
  "devdoc": {
    "kind": "dev",
    "methods": {},
    "version": 1
  },
  "userdoc": {
    "kind": "user",
    "methods": {},
    "version": 1
  }
}