{
  "contractName": "User",
  "abi": [
    {
      "inputs": [
        {
          "internalType": "address",
          "name": "_address",
          "type": "address"
        }
      ],
      "name": "register",
      "outputs": [
        {
          "internalType": "bool",
          "name": "",
          "type": "bool"
        }
      ],
      "stateMutability": "nonpayable",
      "type": "function"
    },
    {
      "inputs": [
        {
          "internalType": "address",
          "name": "_address",
          "type": "address"
        }
      ],
      "name": "login",
      "outputs": [
        {
          "internalType": "bool",
          "name": "",
          "type": "bool"
        }
      ],
      "stateMutability": "nonpayable",
      "type": "function"
    },
    {
      "inputs": [
        {
          "internalType": "address",
          "name": "_address",
          "type": "address"
        }
      ],
      "name": "logout",
      "outputs": [
        {
          "internalType": "bool",
          "name": "",
          "type": "bool"
        }
      ],
      "stateMutability": "nonpayable",
      "type": "function"
    }
  ],
  "bytecode": "0x608060405234801561001057600080fd5b50610599806100206000396000f3fe608060405234801561001057600080fd5b50600436106100415760003560e01c806335a6861a146100465780634420e48614610076578063cc51f9b9146100a6575b600080fd5b610060600480360381019061005b9190610500565b6100d6565b60405161006d9190610548565b60405180910390f35b610090600480360381019061008b9190610500565b610221565b60405161009d9190610548565b60405180910390f35b6100c060048036038101906100bb9190610500565b61039f565b6040516100cd9190610548565b60405180910390f35b60003373ffffffffffffffffffffffffffffffffffffffff166000808473ffffffffffffffffffffffffffffffffffffffff1673ffffffffffffffffffffffffffffffffffffffff16815260200190815260200160002060000160009054906101000a900473ffffffffffffffffffffffffffffffffffffffff1673ffffffffffffffffffffffffffffffffffffffff161461017157600080fd5b60016000808473ffffffffffffffffffffffffffffffffffffffff1673ffffffffffffffffffffffffffffffffffffffff16815260200190815260200160002060000160146101000a81548160ff0219169083151502179055506000808373ffffffffffffffffffffffffffffffffffffffff1673ffffffffffffffffffffffffffffffffffffffff16815260200190815260200160002060000160149054906101000a900460ff169050919050565b60003373ffffffffffffffffffffffffffffffffffffffff166000808473ffffffffffffffffffffffffffffffffffffffff1673ffffffffffffffffffffffffffffffffffffffff16815260200190815260200160002060000160009054906101000a900473ffffffffffffffffffffffffffffffffffffffff1673ffffffffffffffffffffffffffffffffffffffff16036102bc57600080fd5b816000808473ffffffffffffffffffffffffffffffffffffffff1673ffffffffffffffffffffffffffffffffffffffff16815260200190815260200160002060000160006101000a81548173ffffffffffffffffffffffffffffffffffffffff021916908373ffffffffffffffffffffffffffffffffffffffff16021790555060008060008473ffffffffffffffffffffffffffffffffffffffff1673ffffffffffffffffffffffffffffffffffffffff16815260200190815260200160002060000160146101000a81548160ff02191690831515021790555060019050919050565b60003373ffffffffffffffffffffffffffffffffffffffff166000808473ffffffffffffffffffffffffffffffffffffffff1673ffffffffffffffffffffffffffffffffffffffff16815260200190815260200160002060000160009054906101000a900473ffffffffffffffffffffffffffffffffffffffff1673ffffffffffffffffffffffffffffffffffffffff161461043a57600080fd5b60008060008473ffffffffffffffffffffffffffffffffffffffff1673ffffffffffffffffffffffffffffffffffffffff16815260200190815260200160002060000160146101000a81548160ff02191690831515021790555060019050919050565b600080fd5b600073ffffffffffffffffffffffffffffffffffffffff82169050919050565b60006104cd826104a2565b9050919050565b6104dd816104c2565b81146104e857600080fd5b50565b6000813590506104fa816104d4565b92915050565b6000602082840312156105165761051561049d565b5b6000610524848285016104eb565b91505092915050565b60008115159050919050565b6105428161052d565b82525050565b600060208201905061055d6000830184610539565b9291505056fea2646970667358221220ed11430b77c7a9ba231b57607a9b87ef929f77bd27c3f3e03c79657c3fb8e5b064736f6c634300080e0033",
  "immutableReferences": {},
  "source": "// SPDX-License-Identifier: UNLICENSED\r\n\r\npragma solidity ^0.8.14;\r\n\r\ncontract User {\r\n  struct UserType {\r\n      address addr;\r\n      bool isUserLoggedIn;\r\n  }\r\n\r\n  mapping(address => UserType) users;\r\n\r\n  function register(address _address) \r\n      public \r\n      returns (bool) \r\n  {\r\n    require(users[_address].addr != msg.sender);\r\n    users[_address].addr = _address;\r\n    users[_address].isUserLoggedIn = false;\r\n    return true;\r\n  }\r\n\r\n  function login(address _address)\r\n      public\r\n      returns (bool)\r\n  {\r\n    require(users[_address].addr == msg.sender);\r\n    users[_address].isUserLoggedIn = true;\r\n    return users[_address].isUserLoggedIn;\r\n  }\r\n\r\n  // logout the users\r\n  function logout(address _address) public returns (bool) {\r\n      require(users[_address].addr == msg.sender);\r\n      users[_address].isUserLoggedIn = false;\r\n      return true;\r\n  }\r\n}\r\n",
  "sourcePath": "C:\\Workspace\\DStream\\backend\\ethereum\\contracts\\users\\User.sol",
  "compiler": {
    "name": "solc",
    "version": "0.8.14+commit.80d49f37.Emscripten.clang"
  },
  "schemaVersion": "3.4.7",
  "updatedAt": "2022-06-02T20:50:16.969Z",
  "devdoc": {
    "kind": "dev",
    "methods": {},
    "version": 1
  },
  "userdoc": {
    "kind": "user",
    "methods": {},
    "version": 1
  }
}